:100000000C9421010C944E010C944E010C944E0161
:100010000C944E010C944E010C944E010C944E0124
:100020000C944E010C943F0B0C946D0B0C949B0B99
:100030000C944E010C944E010C944E010C944E0104
:100040000C944E010C944E010C944E010C944E01F4
:100050000C944E010C944E010C944E010C9494158A
:100060000C944E010C94180F0C9460100C944E01DB
:100070000C944E010C944E010C944E010C944E01C4
:100080000C944E010C944E010C944E010C944E01B4
:100090000C94580F0C949F100C944E010C944E012C
:1000A0000C944E010C944E010C944E010C944E0194
:1000B0000C944E010C944E010C944E010C944E0184
:1000C0000C944E010C944E010C944E010C94980F1C
:1000D0000C94DE100C944E010C94D80F0C941D114E
:1000E0000C944E0100002100240027002A002D005E
:1000F0003000330001010000040107010A01000083
:100100002200250028002B002E00310034000201BF
:100110000000050108010B0100002000230026005B
:1001200029002C002F00320000010000030106010D
:10013000090105050505070508080808020202026D
:100140000A0A080804040404010101010101010173
:100150000303030303030303040707070C0C0C0C3E
:100160000C0C0C0C02020202060606060606060627
:100170000B0B0B0B0B0B0B0B0102102020080810B4
:100180002040102040800201020108040201010207
:1001900004081020408080402010080402018004E0
:1001A000020180402010080402010804020101023B
:1001B0000408102040800102040810204080000044
:1001C000090A02080B0C0D070603040100000000D9
:1001D000000000000000000000000000000000001F
:1001E0000000000000000000000011100F000000DF
:1001F00000000000000000000000000000000000FF
:1002000000000000494E46494E4954594E414ECDDA
:10021000CCCC3D0AD7233C17B7D13877CC2B3295BD
:1002200095E6241FB14F0A000020410000C842009B
:10023000401C4620BCBE4CCA1B0E5AAEC59D740065
:100240008D1211241FBECFEFD1E2DEBFCDBF00E083
:100250000CBF12E0A0E0B2E0E8EBF6E300E00BBF79
:1002600002C007900D92A83CB107D9F71BBE17E05A
:10027000A8ECB2E001C01D92AA30B107E1F712E08C
:10028000C2E4D2E004C02297FE010E940C1BC034DD
:10029000D107C9F70E94FB140C945A1B0C94000060
:1002A0002F923F925F926F927F928F929F92AF9226
:1002B000BF92CF92DF92EF92FF920F931F93CF9353
:1002C000DF938C011B01EA016115710519F0FB0137
:1002D00091838083209749F0CE010297839728F07D
:1002E00020E030E040E050E0F6C0F801A1908F013E
:1002F0008A2D90E00E94181B892BB9F7FDE2AF16FA
:1003000031F4F801A1908F015524539407C0FBE20A
:10031000AF1619F4F801A1908F015524209719F018
:10032000C031D105C1F4F0E3AF1679F4F801808152
:10033000883711F0883549F4F801A1800E5F1F4F0E
:10034000F2E05F2AC0E1D0E006C0209721F480E30C
:10035000A816E9F427C0C830D10531F1C930D1055C
:1003600024F4C230D10531F50CC0CA30D10589F072
:10037000C031D105F9F4C12CD12CE12CB8E0FB2E11
:1003800028C0C12CD12CE12CA0E4FA2E22C0CAE056
:10039000D0E0FCECCF2EFCECDF2EFCECEF2EFCE0F2
:1003A000FF2E17C0C8E0D0E0C12CD12CE12CE0E139
:1003B000FE2E0FC09E01442737FD4095542F60E06C
:1003C00070E080E090E80E94E81AC901DA016C014F
:1003D0007D0120E030E040E050E060E03E01882414
:1003E00077FC8094982C70EDB72EBA0CE9E0EB15F1
:1003F00070F48A2D81548A3118F499ECB92E06C014
:100400008A2D81568A3150F589EAB82EBA0C8B2D87
:1004100090E08C179D0714F56F3FE1F0C216D306EC
:10042000E406F506B0F0CA01B901A40193010E94E7
:10043000C91A9B01AC012B0D311D411D511D2130ED
:10044000F0E03F07F0E04F07F0E85F0710F461E0ED
:1004500001C06FEFF801A1908F01C5CF21143104C5
:1004600081F0662331F001501040F10111830083C7
:1004700008C051FE1AC002501040F10111830083E0
:1004800014C067FF12C050FC05C02FEF3FEF4FEFC5
:100490005FE704C020E030E040E050E882E290E016
:1004A000909309078093080716C050FE08C0509526
:1004B0004095309521953F4F4F4F5F4F0CC057FFF0
:1004C0000AC082E290E090930907809308072FEF1B
:1004D0003FEF4FEF5FE7B901CA01DF91CF911F9165
:1004E0000F91FF90EF90DF90CF90BF90AF909F90D3
:1004F0008F907F906F905F903F902F900895662728
:1005000077270C94CD0248EC52E00E949B0208959C
:10051000FB01DC018D9181341CF08B350CF4805E85
:10052000619161341CF06B350CF4605E861B6111C7
:1005300089F3990B0895009731F4DA018D919C911C
:10054000009709F40EC0DC01FB013D9121912223AB
:1005500019F03217C9F3FACF332331F4DA011D92BF
:100560001C928827992708951197AF93BF93FB0199
:100570003D912191321771F4332321F48827992773
:10058000119702C01E921196FA01A193B0839F9118
:100590008F910895222369F7EACFA0E0B0E0E3ED60
:1005A000F2E00C94291BEC015B016115710519F057
:1005B000FB0191838083F9908F2D90E00E94181B9E
:1005C000892BC9F7FDE2FF1621F4F990EE24E3949C
:1005D00005C02BE2F21609F4F990EE248E010150C9
:1005E0001040C80164E072E043E050E00E942D0436
:1005F000892B01F58E010E5F1F4FC80167E072E085
:1006000045E050E00E942D04892B19F48E01095F0A
:100610001F4FA114B10419F0F50111830083E0FC10
:1006200004C070E090E080E814C070E090E080E8E2
:100630006FEF08C1C8016CE072E043E050E00E9437
:100640002D04892B69F4A114B10429F470E090E021
:1006500080EC6FE7F7C02296F501D183C083F6CF17
:100660008824992440E050E060E070E0EF2DE053F2
:10067000EA30A0F5F2E0EF2A8E2D90E09C01287080
:100680003070E2FE06C0232B79F50894811C911C82
:100690002BC0232B19F0089481089108DB01CA01B3
:1006A00012E0880F991FAA1FBB1F1A95D1F7480F98
:1006B000591F6A1F7B1F440F551F661F771F4E0F60
:1006C000511D611D711D483929E9520729E9620749
:1006D00029E1720748F084E0E82A06C0EE3F31F4D1
:1006E000E3FC39C098E0E92AF990C0CFE53311F076
:1006F000E53189F529912D3219F4E0E1EE2A05C0A2
:100700002B3219F081E090E003C0299182E090E063
:10071000E22FE053EA3018F0C81BD90B1CC020E0D0
:1007200030E0FCE020383F075CF4C901880F991FD6
:10073000880F991F280F391F220F331F2E0F311DCD
:10074000E991E053EA3068F3E4FE03C03095219567
:100750003F4F820E931ECE2CDD24E1FE07C0A11474
:10076000B10421F02197F501D183C083CB01BA01F7
:100770000E94B0197B018C01F3E0CF22DD2423E03D
:10078000C216D10421F417FB109517F910955701E3
:100790006801C801B70120E030E040E050E00E946D
:1007A0004419882309F44AC097FE0DC023E2E22EC3
:1007B00022E0F22E9094819491089394C0E2D0E0CC
:1007C00000E010E012C09BE3E92E92E0F92EF6CF94
:1007D000F7012591359145915491C601B5010E94CB
:1007E000661A5B016C018C1A9D0A8C169D0684F7B3
:1007F000D595C7950F5F1F4F0630110529F08CEF77
:100800009FEFE80EF91EF1CFC501D6017C018D01E5
:100810008C2D880F8D2D881F8F3F51F0C601B5019B
:1008200020E030E040E050E00E944419882331F499
:1008300082E290E090930907809308077E2D9F2D18
:10084000802F612F272F392F482F562FB901CA012A
:10085000CDB7DEB7ECE00C94451BFB01DC01415049
:10086000504088F08D9181341CF08B350CF4805E03
:10087000659161341CF06B350CF4605E861B611170
:1008800071F3990B0895881BFCCFAF92BF92CF9262
:10089000DF92EF92FF920F931F936C01FC01828114
:1008A000938160E070E04AE050E00E9450017B01DB
:1008B0008C01F6018481958160E070E04AE050E0AF
:1008C0000E9450015B016C0197012150304024309F
:1008D0003105B8F48BE190E0289F8001299F100D2D
:1008E000389F100D112400531D4FB501882777FD47
:1008F0008095982F0E94B219F801668B778B808FB4
:10090000918F1F910F91FF90EF90DF90CF90BF904C
:10091000AF9008950F931F93CF93DF938C01FC0149
:100920008281938160E070E04AE050E00E945001D3
:10093000EB01F8018481958160E070E04AE050E0CD
:100940000E9450019E01255030402230310530F088
:10095000C930D10519F0CA30D10579F56034710577
:10096000C1F06134710544F46130710581F0683083
:10097000710509F056C009C0F1E060307F0759F0F9
:100980006050744009F04DC008C092E007C091E08B
:1009900005C093E003C094E001C095E0223031052A
:1009A00028F485B5887F982B95BD3BC08091810048
:1009B000887F982B9093810034C0C330D10511F00B
:1009C0002B9779F560347105F9F06134710554F4B1
:1009D0006830710599F060327105A1F061307105E0
:1009E00001F50EC0E1E060307E0791F0F4E0603088
:1009F0007F0781F060387105A1F408C092E00BC058
:100A000091E009C093E007C094E005C095E003C001
:100A100096E001C097E08091B100887F982B909379
:100A2000B100DF91CF911F910F91089585E796E076
:100A300040E052EC61E070E00E945C118CE393E0D6
:100A40009093050480930404AAECB2E0E0E0F0E0A7
:100A500049EB56E027E936E002C01296FC01CF01CF
:100A600001968230910551F08330910559F0813023
:100A7000910589F411963C932E93EFCF11965C93D8
:100A80004E93EBCFEE0FFF1FE653FD4F8BED96E03D
:100A900091838083089583309105FCF20895CF926D
:100AA000DF92EF92FF920F931F938C01FC018281E2
:100AB000938160E070E04AE050E00E9450016B01D9
:100AC0007C01F8018481958160E070E04AE050E0AB
:100AD0000E945001FB013197E330F10568F4EE0FFD
:100AE000FF1FE653FD4FA601662757FD6095762F41
:100AF000808191810E945C111F910F91FF90EF9076
:100B0000DF90CF900895CF92DF92EF92FF920F93F4
:100B10001F93CF93DF938C01FC018281938160E06E
:100B200072E00E9488026C01F8018481958160E086
:100B300070E04AE050E00E9450017B018C01EB0123
:100B400085E796E06EEA72E00E94E8141E141F0426
:100B500084F5CD2871F1C430D1055CF5CC0FDD1FD3
:100B6000C853DD4F85E796E00E94E311892BD1F34E
:100B700085E796E00E941412182FA881B981ED91A3
:100B8000FC911197682F772767FD70950190F08190
:100B9000E02DCD011995112329F785E796E06EEA3E
:100BA00072E00E94E8146AE070E080E090E00E9449
:100BB0004C16DF91CF911F910F91FF90EF90DF9036
:100BC000CF900895AF92BF92CF92DF92EF92FF92B3
:100BD0000F931F93CF93DF938C01FC01828193814C
:100BE00060E070E04AE050E00E9450017B01F801B3
:100BF0008481958160E070E04AE050E00E945001FD
:100C00005B016C010894E108F108F4E0EF16F104CF
:100C100038F50E94DC152BE130E0E29EE001E39E16
:100C2000D00DF29ED00D1124C053DD4F6A8B7B8B0B
:100C30008C8B9D8B28813981AB2841F081E08A8F94
:100C4000C90161E070E00E94110D0AC01A8EC9014D
:100C500060E070E00E94110D8C8160E00E947B18C2
:100C6000DF91CF911F910F91FF90EF90DF90CF9088
:100C7000BF90AF9008952F923F924F925F926F92E4
:100C80007F928F929F92AF92BF92CF92DF92EF921C
:100C9000FF920F931F936C01FC018281938160E0AE
:100CA00070E04AE050E00E9450017B018C01F601A7
:100CB000848195810E947F021B012C01F6018681AF
:100CC00097810E947F023B014C01F601808591854E
:100CD0000E947F025B016C010894E108F108F4E0D6
:100CE000EF16F104A8F48BE190E0E89EF001E99E94
:100CF000F00DF89EF00D1124E053FD4F808191819D
:100D0000B201A10194018301760165010E94C90B22
:100D10001F910F91FF90EF90DF90CF90BF90AF9019
:100D20009F908F907F906F905F904F903F902F900B
:100D300008952F923F924F925F926F927F928F927F
:100D40009F92AF92BF92CF92DF92EF92FF920F935A
:100D50001F93DF93CF93CDB7DEB764970FB6F894A8
:100D6000DEBF0FBECDBF8C01DC0112968D919C9130
:100D7000139760E070E04AE050E00E9450016B0180
:100D80007C01F8018481958160E070E04AE050E0E8
:100D90000E945001698B7A8B8B8B9C8BD8011696A5
:100DA0008D919C91179760E070E04AE050E00E94BE
:100DB00050016D877E878F87988BF801808591859C
:100DC00060E070E04AE050E00E94500169877A8755
:100DD0008B879C87D8011A968D919C911B970E94B6
:100DE0007F026D837E838F839887F8018485958544
:100DF0000E947F0269837A838B839C83D8011E962D
:100E00008D919C911F970E947F021B012C010894D9
:100E1000C108D108B4E0CB16D10408F06BC08BE157
:100E200090E0C89E8001C99E100DD89E100D11241F
:100E300030ED832E32E0932E800E911E89899A899F
:100E4000F40193838283AD85BE85B583A483E98550
:100E5000FA859F01442737FD4095542FD4011E96F3
:100E60002D933D934D935C93519789E390E00E94BD
:100E70009115782E692E00D000D0A80146525D4F02
:100E800098012A513D4FEDB7FEB72182328243824D
:100E90005482168215820A521D4FB801ED80FE80E1
:100EA0000F811885A980BA80CB80DC800E94820ED9
:100EB000D4017C9211966C921197EDB7FEB73696DD
:100EC0000FB6F894FEBF0FBEEDBF1E966D917D91DB
:100ED0008D919C9151970E94B0198B019C01872D97
:100EE000962D40E050E060E070E00E94950CD40147
:100EF0005A961C9264960FB6F894DEBF0FBECDBF13
:100F0000CF91DF911F910F91FF90EF90DF90CF90E5
:100F1000BF90AF909F908F907F906F905F904F9019
:100F20003F902F900895CF92DF92EF92FF920F9310
:100F30001F93CF93DF938C01FC018281938160E04A
:100F400070E04AE050E00E945001D62EC62EF80113
:100F5000C481D5818681978160E070E04AE050E0ED
:100F60000E9450017B018C01CE0165E072E00E947D
:100F70008802892B51F4EF2819F48D2D60E002C00E
:100F80008D2D61E00E947B1815C0CE016AE072E0F1
:100F90000E948802892B71F4B7016F3F710519F027
:100FA00014F06FEF70E077FF02C060E070E08C2D0E
:100FB0000E94E816DF91CF911F910F91FF90EF9063
:100FC000DF90CF9008958F929F92AF92BF92DF9261
:100FD000EF92FF920F931F93DF93CF930F920F9295
:100FE000CDB7DEB75C017B0101E010E04E01089453
:100FF000811C911C3EC0D7011296ED91FC91139774
:10100000808189831A8212968D919C911397019603
:1010100060E070E04AE050E00E945001D62EC4012A
:101020006FE072E00E948802892B21F48D2D0E94CE
:10103000AE180AC0C40161E172E00E948802892BE7
:10104000E1F48D2D0E94B416BC0185E796E04AE0DC
:1010500050E00E94D5140A151B052CF485E796E094
:1010600060E20E94ED130F5F1F4FE2E0F0E0EE0E32
:10107000FF1EA016B1060CF0BECF0F900F90CF91BF
:10108000DF911F910F91FF90EF90DF90BF90AF9095
:101090009F908F9008950F931F938C01FC01828184
:1010A000938160E070E04AE050E00E94500170934C
:1010B000080460930704F8018481958160E070E082
:1010C0004AE050E00E94500160930D0470930E04BA
:1010D00080930F04909310048091070461E00E94B4
:1010E000C8170E94DC156093090470930A0480936A
:1010F0000B0490930C0481E0809306041F910F91E0
:1011000008951F9310E0812F60E00E94C8171F5FB1
:101110001633C9F71F910895FF920F931F93CF9332
:10112000DF938C01FC018281938160E070E04AE0F2
:1011300050E00E945001F62EF801C481D581CE0105
:1011400063E172E00E948802892B19F48F2D60E020
:1011500009C0CE0166E172E00E948802892B21F469
:101160008F2D61E00E94C817DF91CF911F910F91E1
:10117000FF9008951F93CF93DF93EC018A819B81A9
:1011800060E072E00E94880210E0892B09F411E00F
:101190008C819D8160E070E04AE050E00E94500147
:1011A000DB01161617062CF4812F90E08A179B0797
:1011B0002CF5112389F022C0A881B981ED91FC9111
:1011C00011970680F781E02DCD011995682F85E7ED
:1011D00096E00E944D1205C0ED01CC0FDD1FC853F3
:1011E000DD4FE881F981A081B18114962D913C9168
:1011F0001597CF01F9011995892BF1F6DF91CF9160
:101200001F9108958F929F92AF92BF92CF92DF92DB
:10121000EF92FF920F931F93DF93CF93CDB7DEB77B
:10122000EC970FB6F894DEBF0FBECDBF80910604D9
:101230008130A1F50E94DC157B018C0180910D04A9
:1012400090910E04A0910F04B09110042091090414
:1012500030910A0440910B0450910C04820F931FAB
:10126000A41FB51F8E159F05A007B107B8F4E09223
:101270000904F0920A0400930B0410930C0480916B
:1012800007040E94AE18019721F48091070460E0E2
:1012900003C08091070461E00E947B1850EDC52EC9
:1012A00052E0D52EF601828D882309F455C0828143
:1012B0000E94B416AA2797FDA095BA2FBC01CD01B4
:1012C0000E94B219F60166837783808791878081B7
:1012D00091810E94650D0E94DC157B018C01F60155
:1012E00082889388A488B588268537854089518966
:1012F000DC01CB0188199909AA09BB09281739070C
:101300004A075B0740F4280D391D4A1D5B1D228BDF
:10131000338B448B558BF60182899389A489B589D7
:10132000E81AF90A0A0B1B0BC801B7010E94B01991
:101330009B01AC01F60162857385848595850E94C9
:10134000621A181624F4F601848161E003C0F601E4
:10135000848160E00E947B188BE190E0C80ED91E6A
:101360009CE3C91693E0D90609F09CCF85E796E087
:101370000E94E311892B09F405C185E796E00E94DC
:101380001412182F8A3009F4FDC08D3009F0E6C020
:1013900085E796E06AE172E00E94E814E0910404B7
:1013A000F091050410828CE393E090930504809300
:1013B00004046BE172E00E9483029A8389838E01A8
:1013C0000D5F1F4FEE24FF240894E11CF11C80E008
:1013D00090E06BE172E00E948302F80191838083C8
:1013E000FEE1EF16F10421F00E5F1F4F892B61F72C
:1013F0008B819C8160E070E04AE050E00E945001E7
:1014000009811A81C8016DE172E00E948802892B6E
:1014100029F4CE0101960E948C0899C0C80161E2AE
:1014200072E00E948802892B19F40E9481088FC003
:10143000C80167E272E00E948802892B29F4CE017C
:1014400001960E944B0883C0C80160E372E00E94CD
:101450008802892B51F48E2D992787FD9095BE0126
:101460006F5F7F4F0E94E30772C0C80165E372E0BF
:101470000E948802892B29F4CE0101960E949307CD
:1014800066C0C8016BE372E00E948802892B29F4D0
:10149000CE0101960E948A045AC0C80166E472E037
:1014A0000E948802892B29F4CE0101960E94990698
:1014B0004EC0C80165E572E00E948802892B29F4BC
:1014C000CE0101960E94450442C0C80161E672E067
:1014D0000E948802892B29F4CE0101960E943B06C6
:1014E00036C0C8016EE672E00E948802892B29F49A
:1014F000CE0101960E94E2052AC0C8016DE772E0A4
:101500000E948802892B29F4CE0101960E944F0582
:101510001EC0C8016CE872E00E948802892BB9F0F5
:10152000C8016BE972E00E948802892B29F4CE0180
:1015300001960E9483050BC0C80163EA72E00E9415
:101540008802892BF9F4CE0101960E94BA0885E73A
:1015500096E06EEA72E00E94E81414C0992787FDB5
:1015600090950E94121B892B69F0E0910404F09180
:10157000050424E0E430F20728F41193F093050405
:10158000E0930404EC960FB6F894DEBF0FBECDBF17
:10159000CF91DF911F910F91FF90EF90DF90CF904F
:1015A000BF90AF909F908F9008950F931F93CF930C
:1015B000DF93FC01738D76957170A685B78595854F
:1015C000772329F08C91892309F454C004C08C91AD
:1015D000892309F04FC08389948920E001972FEF78
:1015E0008F3F9207D9F7C589D689A685B785158516
:1015F00060E031E040E050E000E0CE01202F0197B4
:101600002FEF8F3F9207D9F78C91812311F0632B35
:1016100003C0832F80956823330F4F5F5F4F48309F
:10162000510559F78789908D20E001972FEF8F3F63
:101630009207D9F771116095809153042091540459
:1016400090E001968F73907030E08217930779F0E5
:10165000E0915304F0E0ED5EFB4F60838091530412
:1016600090E001968F7390708093530403C0838D34
:101670008160838FDF91CF911F910F9108951F9209
:101680000F920FB60F920BB60F9211242F933F9328
:101690004F935F936F937F938F939F93AF93BF937A
:1016A000EF93FF938091110490911204009711F031
:1016B0000E94D50AFF91EF91BF91AF919F918F91B9
:1016C0007F916F915F914F913F912F910F900BBE42
:1016D0000F900FBE0F901F9018951F920F920FB68C
:1016E0000F920BB60F9211242F933F934F935F935A
:1016F0006F937F938F939F93AF93BF93EF93FF93DA
:101700008091110490911204009711F00E94D50A63
:10171000FF91EF91BF91AF919F918F917F916F91C9
:101720005F914F913F912F910F900BBE0F900FBE85
:101730000F901F9018951F920F920FB60F920BB635
:101740000F9211242F933F934F935F936F937F9347
:101750008F939F93AF93BF93EF93FF938091110467
:1017600090911204009711F00E94D50AFF91EF9119
:10177000BF91AF919F918F917F916F915F914F91A9
:101780003F912F910F900BBE0F900FBE0F901F90A7
:1017900018952F923F924F925F926F927F928F9205
:1017A0009F92AF92BF92CF92DF92EF92FF920F93F0
:1017B0001F93DF93CF9300D00F92CDB7DEB71C01FC
:1017C00049835A836B837C83480159012601370181
:1017D000CB01BA0120E030E040E050E00E94441923
:1017E00087FD8CC0C501B40120E030E040E050E04E
:1017F0000E94441987FD82C0C701B60120E030E095
:1018000040E050E00E94441987FD78C089819A81A8
:10181000AB81BC81F10180839183A283B383D10129
:1018200014968D929D92AD92BC921797C086D186E8
:10183000E286F38664A575A586A597A50E94B019D2
:1018400020E030E04AE754E40E9448197B018C0113
:1018500089819A81AB81BC81F10184879587A687B4
:10186000B787C501B401A80197010E94661A5B0100
:101870006C01D10150966D937D938D939C935397FA
:10188000C301B201A80197010E9448197B018C0194
:10189000F101648B758B868B978B808D918D019771
:1018A00069F560E070E080E090E029813A814B8149
:1018B0005C810E94DF18D1011C966D937D938D93FE
:1018C0009C931F9760E070E080E090E0A601950196
:1018D0000E94DF18F101608B718B828B938B60E02B
:1018E00070E080E090E0A80197010E94DF18D1012C
:1018F00054966D937D938D939C9357970F900F9073
:101900000F900F90CF91DF911F910F91FF90EF906B
:10191000DF90CF90BF90AF909F908F907F906F900F
:101920005F904F903F902F9008954F925F926F92EB
:101930007F928F929F92AF92BF92CF92DF92EF925F
:10194000FF920F931F93CF93DF93EC013A014B016A
:1019500078018901CB01BA01A80197010E94621A9E
:1019600087FF4EC068AA79AA8AAA9BAAECAAFDAAF8
:101970000EAB1FAB88AD882309F442C04C8C5D8C44
:10198000F201A080B180C280D380C601B501A80158
:1019900097010E94621A181634F4F201E082F18273
:1019A000028313830DC0C601B501A40193010E94F7
:1019B000441988232CF4F20160827182828293821E
:1019C000ACA0BDA0CEA0DFA0ECA8FDA80EA91FA9C9
:1019D000C601B501A80197010E94621A181664F0A9
:1019E000E8A8F9A80AA91BA9C601B501A801970191
:1019F0000E944419882324F4ECA2FDA20EA31FA385
:101A0000DF91CF911F910F91FF90EF90DF90CF90DA
:101A1000BF90AF909F908F907F906F905F904F900E
:101A200008959F92AF92BF92CF92DF92EF92FF9272
:101A30000F931F93CF93DF93EC01992461307105CD
:101A400011F49924939488AD91E08927981681F533
:101A5000EC8DFD8DE080F18002811381ECA2FDA26E
:101A60000EA31FA3EA8DFB8D80819181A281B3819A
:101A700088A799A7AAA7BBA7ACA8BDA8CEA8DFA88E
:101A8000C801B701A60195010E94621A181664F0F8
:101A9000A8A8B9A8CAA8DBA8C801B701A6019501E2
:101AA0000E944419882324F4ACA2BDA2CEA2DFA2D6
:101AB00098AEDF91CF911F910F91FF90EF90DF9043
:101AC000CF90BF90AF909F9008952F923F924F92EA
:101AD0005F926F927F928F929F92AF92BF92CF92BE
:101AE000DF92EF92FF920F931F93DF93CF9300D07B
:101AF00000D0CDB7DEB79E838D83DC01D8968C9164
:101B0000882309F4E5C00E94DC1569837A838B83FE
:101B10009C83ED81FE8180A191A1A2A1B3A1298125
:101B20003A814B815C81281B390B4A0B5B0B84A5E6
:101B300095A5A6A5B7A5281739074A075B0708F496
:101B4000C7C0028CF38DE02D20803180428053800D
:101B5000AD81BE815E96ED91FC915F976081718150
:101B600082819381A20191010E94DF183B014C0107
:101B7000ED81FE8120893189428953890E94661A4C
:101B8000AD81BE8194962D913D914D915C91979739
:101B90000E94E0187B018C01ED81FE8164A375A396
:101BA00086A397A3A4A8B5A8C6A8D7A8A6019501FF
:101BB0000E94621A181674F0ED81FE81A0A8B1A8E7
:101BC000C2A8D3A8C801B701A60195010E94441973
:101BD000882344F4AD81BE819496AD92BD92CD929E
:101BE000DC929797C401B301ED81FE812485358590
:101BF000468557850E94661AAD81BE8194962D91C7
:101C00003D914D915C9197970E94E0187B018C016A
:101C1000C201B101ED81FE8120A531A542A553A5E8
:101C20000E94DF18AD81BE8154962D913D914D915A
:101C30005C9157970E94661A9B01AC01C801B701DD
:101C40000E94DF187B018C01ED81FE81D4A8C5A81C
:101C5000B6A8A7A82D2D3C2D4B2D5A2D0E94621AF7
:101C60001816BCF0AD81BE81D096DC90D097D1968D
:101C7000CC90D197D296BC90D297D396AC90C80115
:101C8000B7012D2D3C2D4B2D5A2D0E944419882330
:101C900034F48D2D9C2DAB2DBA2D7C018D01AD81A1
:101CA000BE815C96ED91FC915D97E082F1820283AA
:101CB0001383FD0120A631A642A653A689819A81ED
:101CC000AB81BC8180A391A3A2A3B3A381E001C097
:101CD00080E026960FB6F894DEBF0FBECDBFCF9141
:101CE000DF911F910F91FF90EF90DF90CF90BF9009
:101CF000AF909F908F907F906F905F904F903F90AC
:101D00002F9008954F925F926F927F928F929F9241
:101D1000AF92BF92CF92DF92EF92FF920F931F93F9
:101D2000DF93CF93CDB7DEB74C0127013801E88CA4
:101D3000F98CFC01558F448F738F628F378F268FFC
:101D400010AE40E050E060E070E000E010E02FE70F
:101D500033E40E94950C84E690E0A0E0B0E0F4014A
:101D600084A795A7A6A7B7A780AD882391F1808DFA
:101D7000918DE816F90669F160E070E080E090E08E
:101D800024853585468557850E94DF18F4016487D0
:101D900075878687978760E070E080E090E0208913
:101DA0003189428953890E94DF18F401608B718B5D
:101DB000828B938B60E070E080E090E0248935892D
:101DC000468957890E94DF18F401648B758B868BD6
:101DD000978BF401F18EE08EC401B301A20196014C
:101DE0008501CC88DD88EE88FF880E94C90B0E949F
:101DF000DC15F40124A535A546A557A5621B730B78
:101E0000840B950B60A371A382A393A3CF91DF9161
:101E10001F910F91FF90EF90DF90CF90BF90AF9008
:101E20009F908F907F906F905F904F90089508954E
:101E30001F920F920FB60F920BB60F9211242F9391
:101E40003F934F938F939F93EF93FF938091C000A5
:101E500082FD1DC04091C6002091950430919604EA
:101E60002F5F3F4F2F7330708091970490919804AB
:101E70002817390771F0E0919504F0919604EB5A18
:101E8000FB4F4083309396042093950402C08091C9
:101E9000C600FF91EF919F918F914F913F912F91AC
:101EA0000F900BBE0F900FBE0F901F9018950895C6
:101EB0001F920F920FB60F920BB60F9211242F9311
:101EC0003F934F938F939F93EF93FF938091C8001D
:101ED00082FD1DC04091CE0020911D0530911E0550
:101EE0002F5F3F4F2F73307080911F059091200519
:101EF0002817390771F0E0911D05F0911E05E35296
:101F0000FB4F408330931E0520931D0502C0809136
:101F1000CE00FF91EF919F918F914F913F912F9123
:101F20000F900BBE0F900FBE0F901F901895089545
:101F30001F920F920FB60F920BB60F9211242F9390
:101F40003F934F938F939F93EF93FF938091D00094
:101F500082FD1DC04091D6002091A5053091A605B7
:101F60002F5F3F4F2F7330708091A7059091A80588
:101F70002817390771F0E091A505F091A605EB59F6
:101F8000FA4F40833093A6052093A50502C08091A7
:101F9000D600FF91EF919F918F914F913F912F919B
:101FA0000F900BBE0F900FBE0F901F9018950895C5
:101FB0001F920F920FB60F920BB60F9211242F9310
:101FC0003F934F938F939F93EF93FF9380913001B3
:101FD00082FD1DC04091360120912D0630912E06C4
:101FE0002F5F3F4F2F73307080912F0690913006F6
:101FF0002817390771F0E0912D06F0912E06E35174
:10200000FA4F408330932E0620932D0602C0809114
:102010003601FF91EF919F918F914F913F912F91B9
:102020000F900BBE0F900FBE0F901F901895E09170
:102030008106F0918206E05CFF4F819191912081B1
:102040003181821B930B8F739070892B11F00E944A
:10205000170FE091A306F091A406E05CFF4F819179
:10206000919120813181821B930B8F739070892B0A
:1020700011F00E94570FE091C506F091C606E05C92
:10208000FF4F8191919120813181821B930B8F733E
:102090009070892B11F00E94970FE091E706F09164
:1020A000E806E05CFF4F8191919120813181821B94
:1020B000930B8F739070892B11F00E94D70F0895A6
:1020C0001F920F920FB60F920BB60F9211242F93FF
:1020D0003F938F939F93EF93FF932091D904309177
:1020E000DA048091DB049091DC042817390731F47D
:1020F0008091C1008F7D8093C10014C0E091DB040A
:10210000F091DC04E756FB4F20818091DB04909135
:10211000DC0401968F7390709093DC048093DB0451
:102120002093C600FF91EF919F918F913F912F9146
:102130000F900BBE0F900FBE0F901F9018951F921F
:102140000F920FB60F920BB60F9211242F933F935D
:102150008F939F93EF93FF932091610530916205D8
:1021600080916305909164052817390731F48091B7
:10217000C9008F7D8093C90014C0E0916305F09180
:102180006405EF5DFA4F20818091630590916405AD
:1021900001968F73907090936405809363052093EC
:1021A000CE00FF91EF919F918F913F912F910F90D2
:1021B0000BBE0F900FBE0F901F9018951F920F929D
:1021C0000FB60F920BB60F9211242F933F938F935C
:1021D0009F93EF93FF932091E9053091EA05809159
:1021E000EB059091EC052817390731F48091D10067
:1021F0008F7D8093D10014C0E091EB05F091EC0548
:10220000E755FA4F20818091EB059091EC050196FE
:102210008F7390709093EC058093EB052093D6001C
:10222000FF91EF919F918F913F912F910F900BBE56
:102230000F900FBE0F901F9018951F920F920FB620
:102240000F920BB60F9211242F933F938F939F936E
:10225000EF93FF932091710630917206809173067F
:10226000909174062817390731F4809131018F7DE0
:102270008093310114C0E0917306F0917406EF5C15
:10228000F94F2081809173069091740601968F73A7
:102290009070909374068093730620933601FF919B
:1022A000EF919F918F913F912F910F900BBE0F90C7
:1022B0000FBE0F901F901895AF92BF92DF92EF92D2
:1022C000FF920F931F93CF93DF93EC017A018B0161
:1022D000DD24403081EE580780E0680780E0780711
:1022E00011F0DD24D39491E0A92EB12CEC89FD8965
:1022F000DD2069F0C50108A002C0880F991F0A946B
:10230000E2F7808360E079E08DE390E005C0108221
:1023100060E874E88EE190E0A80197010E94E81A55
:10232000215030404040504056954795379527956D
:1023300080E12030380720F0DD2011F0DD24D6CFF9
:10234000E889F9893083EA89FB89208319A2EE891B
:10235000FF89408121E030E0C9010C8C02C0880F68
:10236000991F0A94E2F7482B4083EE89FF89408148
:10237000C9010D8C02C0880F991F0A94E2F7482BFF
:102380004083EE89FF894081C9010E8C02C0880F0D
:10239000991F0A94E2F7482B4083EE89FF898081D8
:1023A0000F8C02C0220F331F0A94E2F720952823D6
:1023B0002083DF91CF911F910F91FF90EF90DF90DD
:1023C000BF90AF900895DC011C96ED91FC911D9794
:1023D000E05CFF4F2191319180819181281B390B65
:1023E0002F733070C9010895DC011C96ED91FC91AA
:1023F0001D97E05CFF4F20813181E054F040DF0108
:10240000AE5BBF4F8D919C9111972817390719F436
:102410002FEF3FEF07C08D919C91E80FF91F80814E
:10242000282F30E0C9010895DC011C96ED91FC9144
:102430001D97E05CFF4F20813181E054F040DF01C7
:10244000AE5BBF4F8D919C9111972817390719F4F6
:102450002FEF3FEF10C08D919C911197E80FF91F5E
:1024600020818D919C91119701968F739070119698
:102470009C938E9330E0C9010895DC0191968C9174
:102480009197882339F05496ED91FC91559780816E
:1024900086FFF9CF91961C920895CF93DF93EC01BC
:1024A000EE85FF85E05CFF4F20813181E054F040F4
:1024B0002F5F3F4F2F733070DF01AE5BBF4F8D91A9
:1024C0009C91119728173907D1F3E05CFF4F808169
:1024D0009181E054F040E80FF91F6083EE85FF859D
:1024E000E05CFF4F31832083EE89FF89208181E00A
:1024F00090E00F8C02C0880F991F0A94E2F7282BF6
:10250000208381E089A3EC89FD89808180648083B8
:1025100081E090E0DF91CF9108951F9310927806AB
:102520001092770628EE33E040E050E020937906E1
:1025300030937A0640937B0650937C066CEB72E0F6
:10254000709376066093750685E594E09093820615
:102550008093810689E994E09093840680938306B2
:1025600085EC90E0909386068093850684EC90E05D
:10257000909388068093870680EC90E090938A067B
:102580008093890681EC90E090938C0680938B0673
:1025900082EC90E090938E0680938D0686EC90E01E
:1025A0009093900680938F0614E010939106B3E009
:1025B000B0939206A7E0A0939306F5E0F0939406FB
:1025C000E1E0E093950610929A0610929906209306
:1025D0009B0630939C0640939D0650939E067093F5
:1025E0009806609397068DED94E09093A4068093EF
:1025F000A30681E295E09093A6068093A5068DEC54
:1026000090E09093A8068093A7068CEC90E09093BE
:10261000AA068093A90688EC90E09093AC0680937C
:10262000AB0689EC90E09093AE068093AD068AEC01
:1026300090E09093B0068093AF068EEC90E090937C
:10264000B2068093B1061093B306B093B406A0937C
:10265000B506F093B606E093B7061092BC0610924A
:10266000BB062093BD063093BE064093BF06509331
:10267000C0067093BA066093B90685E695E090931C
:10268000C6068093C50689EA95E09093C8068093B4
:10269000C70685ED90E09093CA068093C90684ED45
:1026A00090E09093CC068093CB0680ED90E09093E1
:1026B000CE068093CD0681ED90E09093D006809376
:1026C000CF0682ED90E09093D2068093D10686EDFE
:1026D00090E09093D4068093D3061093D506B093E0
:1026E000D606A093D706F093D806E093D9061092A9
:1026F000DE061092DD062093DF063093E00640935D
:10270000E1065093E2067093DC066093DB068DEEE3
:1027100095E09093E8068093E70681E396E0909336
:10272000EA068093E90685E391E09093EC068093B6
:10273000EB0684E391E09093EE068093ED0680E350
:1027400091E09093F0068093EF0681E391E09093FF
:10275000F2068093F10682E391E09093F406809371
:10276000F30686E391E09093F6068093F5061093C6
:10277000F706B093F806A093F906F093FA06E093F3
:10278000FB061F910895CF92DF92EF92FF920F9375
:102790001F93CF93DF937C016B018A01C0E0D0E0EF
:1027A0000FC0D6016D916D01D701ED91FC910190A3
:1027B000F081E02DC7011995C80FD91F01501040B5
:1027C0000115110571F7CE01DF91CF911F910F9186
:1027D000FF90EF90DF90CF900895DC01ED91FC9198
:1027E0000190F081E02D19950895EF92FF920F93DB
:1027F0001F938C01DC01ED91FC910190F081E02DA3
:102800006DE019957C01D801ED91FC910190F0816A
:10281000E02DC8016AE019959C012E0D3F1DC901EC
:102820001F910F91FF90EF900895CF93DF93EC01EC
:102830006115710519F420E030E00FC0DB010D9047
:102840000020E9F71197A61BB70BE881F9810280F8
:10285000F381E02DAD0119959C01C901DF91CF9164
:1028600008954F925F927F928F929F92AF92BF9204
:10287000CF92DF92EF92FF920F931F93DF93CF934C
:10288000CDB7DEB7A1970FB6F894DEBF0FBECDBFB0
:102890002C01742ECB01223008F42AE019A231E277
:1028A000C32ED12CCC0EDD1E822E9924AA24BB244B
:1028B000672D752FA50194010E94E81A79018A01FC
:1028C000C801B701A50194010E94C91A472D461BF2
:1028D0000894C108D1084A3014F4405D01C0495C35
:1028E000F6014083E114F1040105110521F07E2C6D
:1028F0005F2DC801DDCFC201B6010E941514A1965B
:102900000FB6F894DEBF0FBECDBFCF91DF911F9100
:102910000F91FF90EF90DF90CF90BF90AF909F907E
:102920008F907F905F904F900895CF92DF92EF92BB
:10293000FF920F931F93CF93DF93EC016A017B010A
:102940002115310541F4E881F9810190F081E02DF4
:10295000642F19951FC02A303105D1F477FF17C0B5
:10296000E881F9810190F081E02D6DE219958C01EB
:1029700044275527BA014C195D096E097F09CE011C
:102980002AE00E9431149801280F391F04C02AE060
:102990000E9431149C01C901DF91CF911F910F91C9
:1029A000FF90EF90DF90CF900895EF92FF920F93FA
:1029B0001F937B019A010027F7FC0095102FB801A7
:1029C000A7010E9495141F910F91FF90EF90089519
:1029D000EF92FF920F931F937C010E9415148C01BC
:1029E000C7010E94F513080F191FC8011F910F910D
:1029F000FF90EF900895CF93DF930E94EA150E9415
:102A00001605C7E1D0E10E9402092097E1F30E9478
:102A10001710F9CF0F931F93CF93DF93BC01823030
:102A2000910510F462E070E0E0910607F09107076D
:102A3000A0E0B0E040E050E024C0808191818617A2
:102A40009707D0F08617970771F4828193811097CA
:102A500029F013969C938E9312972CC0909307079E
:102A60008093060727C04115510519F08417950773
:102A700018F4EF018D01AC01DF01828193819C018B
:102A8000F9013097D1F641155105F9F0CA01861BBD
:102A9000970B8430910580F48A819B810115110583
:102AA00021F0F8019383828304C0909307078093F9
:102AB0000607FE0132962FC0FE01E80FF91F619351
:102AC000719302979983888326C08DB79EB78857E4
:102AD00090402091B3023091B40228173907C8F40E
:102AE000AC01421B530B4617570798F0CB010296D7
:102AF0004817590770F0820F931F9093B402809388
:102B0000B3029093B6028093B502F9016193719379
:102B100002C0E0E0F0E0CF01DF91CF911F910F9173
:102B200008950E940A1508951F920F920FB60F92F2
:102B300011242F933F938F939F93AF93BF938091D3
:102B4000010790910207A0910307B091040730910B
:102B500005070196A11DB11D232F2D5F2D3720F0F4
:102B60002D570196A11DB11D2093050780930107E4
:102B700090930207A0930307B09304078091FD068A
:102B80009091FE06A091FF06B09100070196A11D4D
:102B9000B11D8093FD069093FE06A093FF06B093AF
:102BA0000007BF91AF919F918F913F912F910F900F
:102BB0000FBE0F901F9018958FB7F89420910107C2
:102BC0003091020740910307509104078FBFB9016C
:102BD000CA010895789484B5826084BD84B581600B
:102BE00084BD85B5826085BD85B5816085BDEEE615
:102BF000F0E0808181608083E1E8F0E010828081F4
:102C000082608083808181608083E0E8F0E0808161
:102C100081608083E1EBF0E0808184608083E0EB81
:102C2000F0E0808181608083E1E9F0E08081826072
:102C30008083808181608083E0E9F0E08081816031
:102C40008083E1EAF0E0808182608083808181601E
:102C50008083E0EAF0E0808181608083E1E2F1E05E
:102C6000808182608083808181608083E0E2F1E006
:102C7000808181608083EAE7F0E0808184608083E6
:102C80008081826080838081816080838081806890
:102C900080831092C1000895EF92FF920F931F93CB
:102CA000CF93DF937B018C013FB7F8948091FD06B1
:102CB0009091FE06A091FF06B091000726B5A89B53
:102CC00005C02F3F19F00196A11DB11D3FBFBA2FBE
:102CD000A92F982F8827820F911DA11DB11D52E0A9
:102CE000880F991FAA1FBB1F5A95D1F7EC0130C05E
:102CF0000E94DE183FB7F8948091FD069091FE0681
:102D0000A091FF06B091000726B5A89B05C02F3FF4
:102D100019F00196A11DB11D3FBFBA2FA92F982F01
:102D20008827820F911DA11DB11D32E0880F991FC8
:102D3000AA1FBB1F3A95D1F78C1B9D0B885E934051
:102D4000B8F20894E108F10801091109C851DC4FF3
:102D5000E114F1040105110559F6DF91CF911F919E
:102D60000F91FF90EF900895382F863308F0365377
:102D700020917B00832F86958695869590E08170C3
:102D8000907043E0880F991F4A95E1F7277F282B21
:102D900020937B0037708091B7028295880F880F4F
:102DA000807C832B80937C0080917A008064809368
:102DB0007A0080917A0086FDFCCF209178004091C6
:102DC0007900942F80E030E0282B392BC901089539
:102DD0001F93CF93DF93182FEB0161E00E94C81778
:102DE000209709F4CAC0CF3FD10509F4C9C0E12F2B
:102DF000F0E0E254FE4F8491893009F466C08A30D5
:102E0000B0F48430F1F1853040F4823059F18330F0
:102E100070F5813009F0AEC020C0873009F443C09E
:102E2000883008F048C0863009F0A4C034C08D3026
:102E300009F478C08E3038F48B3009F45AC08C30E5
:102E400008F066C04CC0803109F480C0813109F4BB
:102E500087C08F3009F08EC06FC084B5806884BD94
:102E6000C7BD92C084B5806284BDC8BD8DC080914D
:102E70008000806880938000D0938900C093880090
:102E800083C080918000806280938000D0938B000B
:102E9000C0938A0079C08091B00080688093B000B0
:102EA000C093B30071C08091B00080628093B00085
:102EB000C093B40069C080919000806880939000B6
:102EC000D0939900C09398005FC080919000806279
:102ED00080939000D0939B00C0939A0055C080913E
:102EE0009000886080939000D0939D00C0939C00D8
:102EF0004BC08091A00080688093A0008091A000CA
:102F00008F7B8093A000D093A900C093A8003CC001
:102F10008091A00080628093A000D093AB00C0930A
:102F2000AA0032C08091A00088608093A000D09356
:102F3000AD00C093AC0028C08091200180688093D0
:102F40002001D0932901C09328011EC08091200147
:102F5000806280932001D0932B01C0932A0114C07A
:102F600080912001886080932001D0932D01C0932F
:102F70002C010AC0C038D1051CF4812F60E002C0CA
:102F8000812F61E00E947B18DF91CF911F910895FE
:102F9000CF93DF93482F50E0CA0188589E4FFC0121
:102FA00034914E5C5E4FFA018491882369F190E080
:102FB000880F991FFC01EC51FF4FA591B491FC01C2
:102FC000E250FF4FC591D491662351F42FB7F89486
:102FD0008C91932F909589238C93888189230BC0A2
:102FE000623061F42FB7F8948C91932F90958923D8
:102FF0008C938881832B88832FBF06C09FB7F8945A
:103000008C91832B8C939FBFDF91CF910895893052
:1030100009F449C08A30A0F4843051F1853040F47D
:10302000823079F1833000F5813009F063C026C029
:10303000873079F1883098F5863009F05BC025C07B
:103040008D3009F442C08E3028F48B30B1F18C30D1
:10305000C0F52DC0803109F442C0813109F445C06A
:103060008F3009F047C037C0809180008F7703C050
:10307000809180008F7D80938000089584B58F7744
:1030800002C084B58F7D84BD08958091B0008F7794
:1030900003C08091B0008F7D8093B000089580912F
:1030A00090008F7707C0809190008F7D03C0809142
:1030B0009000877F8093900008958091A0008F7783
:1030C00007C08091A0008F7D03C08091A000877F02
:1030D0008093A0000895809120018F7703C0809194
:1030E00020018F7D80932001089580912001877FAA
:1030F000809320010895FF920F931F93F62E482F7F
:1031000050E0CA0182549E4FFC012491CA018858A4
:103110009E4FFC0114914E5C5E4FFA010491002316
:10312000C9F0222319F0822F0E940718E02FF0E047
:10313000EE0FFF1FE250FF4FA591B4919FB7F89497
:10314000FF2021F48C911095812302C08C91812B5A
:103150008C939FBF1F910F91FF9008950F931F9322
:10316000482F50E0CA0182549E4FFC012491CA01AD
:1031700088589E4FFC0104914E5C5E4FFA011491F9
:10318000112319F420E030E015C0222319F0822F1A
:103190000E940718812F90E0880F991F885E9E4F2C
:1031A000FC01A591B4918C9120E030E0802311F0D6
:1031B00021E030E0C9011F910F9108950895505802
:1031C000BB27AA270ED044C135D130F03AD120F028
:1031D00031F49F3F11F41EF42AC10EF4E095E7FB91
:1031E00020C1E92F46D180F3BA176207730784071D
:1031F000950718F071F49EF55EC10EF4E0950B2E64
:10320000BA2FA02D0B01B90190010C01CA01A00138
:103210001124FF27591B99F0593F50F4503E68F193
:103220001A16F040A22F232F342F4427585FF3CFD4
:10323000469537952795A795F0405395C9F77EF4A5
:103240001F16BA0B620B730B840BBAF09150A1F0EE
:10325000FF0FBB1F661F771F881FC2F70EC0BA0F74
:10326000621F731F841F48F4879577956795B795FC
:10327000F7959E3F08F0B3CF9395880F08F09927F4
:10328000EE0F979587950895A8D008F481E00895EA
:103290000CD0DEC0D6D040F0CDD030F021F45F3F6E
:1032A00019F0BFC0511108C1C2C0E3D098F39923EF
:1032B000C9F35523B1F3951B550BBB27AA276217FA
:1032C0007307840738F09F5F5F4F220F331F441F3F
:1032D000AA1FA9F333D00E2E3AF0E0E830D0915077
:1032E0005040E695001CCAF729D0FE2F27D0660F64
:1032F000771F881FBB1F261737074807AB07B0E8A3
:1033000009F0BB0B802DBF01FF2793585F4F2AF0B8
:103310009E3F510568F085C0CFC05F3FECF3983EFB
:10332000DCF3869577956795B795F7959F5FC9F715
:10333000880F911D9695879597F90895E1E0660F9E
:10334000771F881FBB1F621773078407BA0720F017
:10335000621B730B840BBA0BEE1F88F7E095089580
:10336000E89409C097FB3EF490958095709561951F
:103370007F4F8F4F9F4F9923A9F0F92F96E9BB27D5
:103380009395F695879577956795B795F111F8CF51
:10339000FAF4BB0F11F460FF1BC06F5F7F4F8F4FBC
:1033A0009F4F16C0882311F096E911C0772321F0B2
:1033B0009EE8872F762F05C0662371F096E8862F4A
:1033C00070E060E02AF09A95660F771F881FDAF7A1
:1033D000880F9695879597F90895990F0008550FCE
:1033E000AA0BE0E8FEEF16161706E807F907C0F08B
:1033F00012161306E407F50798F0621B730B840B93
:10340000950B39F40A2661F0232B242B252B21F46C
:1034100008950A2609F4A140A6958FEF811D811D0C
:10342000089597F99F6780E870E060E008959FEF46
:1034300080EC089500240A9416161706180609064B
:10344000089500240A94121613061406050608951A
:10345000092E0394000C11F4882352F0BB0F40F4A2
:10346000BF2B11F460FF04C06F5F7F4F8F4F9F4FE2
:10347000089557FD9058440F551F59F05F3F71F064
:103480004795880F97FB991F61F09F3F79F08795CB
:103490000895121613061406551FF2CF4695F1DF54
:1034A00008C0161617061806991FF1CF86957105E4
:1034B000610508940895E894BB2766277727CB0118
:1034C00097F908958ADF08F48FEF08950BD0C0CFE5
:1034D000B1DF28F0B6DF18F0952309F0A2CFA7CF0F
:1034E0001124EACFC6DFA0F3959FD1F3950F50E0EA
:1034F000551F629FF001729FBB27F00DB11D639FA6
:10350000AA27F00DB11DAA1F649F6627B00DA11D4B
:10351000661F829F2227B00DA11D621F739FB00DF1
:10352000A11D621F839FA00D611D221F749F332761
:10353000A00D611D231F849F600D211D822F762FFA
:103540006A2F11249F5750408AF0E1F088234AF0F7
:10355000EE0FFF1FBB1F661F771F881F9150504043
:10356000A9F79E3F510570F05CCFA6CF5F3FECF30B
:10357000983EDCF3869577956795B795F795E7952F
:103580009F5FC1F7FE2B880F911D9695879597F940
:103590000895629FD001739FF001829FE00DF11D9D
:1035A000649FE00DF11D929FF00D839FF00D749FBD
:1035B000F00D659FF00D9927729FB00DE11DF91F69
:1035C000639FB00DE11DF91FBD01CF0111240895C6
:1035D000A1E21A2EAA1BBB1BFD010DC0AA1FBB1F17
:1035E000EE1FFF1FA217B307E407F50720F0A21B89
:1035F000B30BE40BF50B661F771F881F991F1A94F6
:1036000069F760957095809590959B01AC01BD011F
:10361000CF010895EE0FFF1F0590F491E02D19944E
:10362000803209F091110CC080528F55E0F7089557
:10363000911106C0803219F089508550D0F7089555
:103640009927882708952F923F924F925F926F9209
:103650007F928F929F92AF92BF92CF92DF92EF9222
:10366000FF920F931F93CF93DF93CDB7DEB7CA1BA3
:10367000DB0B0FB6F894DEBF0FBECDBF19942A88BE
:10368000398848885F846E847D848C849B84AA8476
:10369000B984C884DF80EE80FD800C811B81AA8103
:1036A000B981CE0FD11D0FB6F894DEBF0FBECDBFCE
:0836B000ED010895F894FFCF2D
:1036B800736F6674006469676900616E616C0044C9
:1036C800004100696E006F75740000200053657436
:1036D80000526573657400426C696E6B50696E00C8
:1036E8005265616400577269746500536574507758
:1036F8006D467265710050696452656C61794372F8
:10370800656174650050696452656C6179536574CC
:103718000050696452656C617954756E6500506932
:103728006452656C6179456E61626C6500486172CE
:1037380064536572436F6E6E65637400536F66748D
:10374800536572436F6E6E6563740053657253659B
:103758006E64005365725265636569766500646FCF
:103768006E65000A07640001000000004D12C313D3
:08377800E3111412F4113D12DB
:00000001FF
