:100000000C9403010C9430010C9430010C943001D9
:100010000C9430010C9430010C9430010C9430019C
:100020000C9430010C941B060C9449060C94770632
:100030000C9430010C9430010C9430010C9430017C
:100040000C9430010C9430010C9430010C9430016C
:100050000C9430010C9430010C9430010C94980CE9
:100060000C9430010C94A6060C94EE070C9430010D
:100070000C9430010C9430010C9430010C9430013C
:100080000C9430010C9430010C9430010C9430012C
:100090000C94E6060C942D080C9430010C9430015D
:1000A0000C9430010C9430010C9430010C9430010C
:1000B0000C9430010C9430010C9430010C943001FC
:1000C0000C9430010C9430010C9430010C942607F0
:1000D0000C946C080C9430010C9466070C94AB08DB
:1000E0000C94300100002100240027002A002D007C
:1000F0003000330001010000040107010A01000083
:100100002200250028002B002E00310034000201BF
:100110000000050108010B0100002000230026005B
:1001200029002C002F00320000010000030106010D
:10013000090105050505070508080808020202026D
:100140000A0A080804040404010101010101010173
:100150000303030303030303040707070C0C0C0C3E
:100160000C0C0C0C02020202060606060606060627
:100170000B0B0B0B0B0B0B0B0102102020080810B4
:100180002040102040800201020108040201010207
:1001900004081020408080402010080402018004E0
:1001A000020180402010080402010804020101023B
:1001B0000408102040800102040810204080000044
:1001C000090A02080B0C0D070603040100000000D9
:1001D000000000000000000000000000000000001F
:1001E0000000000000000000000011100F000000DF
:1001F00000000000000000000000000000000000FF
:10020000000000001B0A11241FBECFEFD1E2DEBFA9
:10021000CDBF00E00CBF12E0A0E0B2E0ECEAFFE1ED
:1002200000E00BBF02C007900D92A838B107D9F7C4
:100230001BBE16E0A8E8B2E001C01D92A635B107CA
:10024000E1F712E0C6E0D2E004C02297FE010E946E
:10025000BD0FC430D107C9F70E94890C0C94D40F8C
:100260000C9400002F923F925F926F927F928F9238
:100270009F92AF92BF92CF92DF92EF92FF920F9335
:100280001F93CF93DF938C011B01EA016115710568
:1002900019F0FB0191838083209749F0CE010297EA
:1002A000839728F020E030E040E050E0F6C0F8010D
:1002B000A1908F018A2D90E00E94C90F892BB9F778
:1002C000FDE2AF1631F4F801A1908F01552453944B
:1002D00007C0FBE2AF1619F4F801A1908F01552475
:1002E000209719F0C031D105C1F4F0E3AF1679F4CD
:1002F000F8018081883711F0883549F4F801A18030
:100300000E5F1F4FF2E05F2AC0E1D0E006C02097E9
:1003100021F480E3A816E9F427C0C830D10531F1F3
:10032000C930D10524F4C230D10531F50CC0CA3032
:10033000D10589F0C031D105F9F4C12CD12CE12CC3
:10034000B8E0FB2E28C0C12CD12CE12CA0E4FA2E61
:1003500022C0CAE0D0E0FCECCF2EFCECDF2EFCEC9F
:10036000EF2EFCE0FF2E17C0C8E0D0E0C12CD12C4E
:10037000E12CE0E1FE2E0FC09E01442737FD4095A1
:10038000542F60E070E080E090E80E94990FC9016E
:10039000DA016C017D0120E030E040E050E060E0F7
:1003A0003E01882477FC8094982C70EDB72EBA0C0F
:1003B000E9E0EB1570F48A2D81548A3118F499EC38
:1003C000B92E06C08A2D81568A3150F589EAB82E99
:1003D000BA0C8B2D90E08C179D0714F56F3FE1F060
:1003E000C216D306E406F506B0F0CA01B901A401AD
:1003F00093010E947A0F9B01AC012B0D311D411D11
:10040000511D2130F0E03F07F0E04F07F0E85F07B3
:1004100010F461E001C06FEFF801A1908F01C5CF2A
:100420002114310481F0662331F001501040F101B4
:100430001183008308C051FE1AC002501040F10120
:100440001183008314C067FF12C050FC05C02FEF5A
:100450003FEF4FEF5FE704C020E030E040E050E8BE
:1004600082E290E0909355068093540616C050FEA9
:1004700008C050954095309521953F4F4F4F5F4FA5
:100480000CC057FF0AC082E290E09093550680931B
:1004900054062FEF3FEF4FEF5FE7B901CA01DF913D
:1004A000CF911F910F91FF90EF90DF90CF90BF9071
:1004B000AF909F908F907F906F905F903F902F9024
:1004C000089548E852E00E9479020895FB01DC019A
:1004D0008D9181341CF08B350CF4805E6191613418
:1004E0001CF06B350CF4605E861B611189F3990B6F
:1004F0000895009731F4DA018D919C91009709F4E9
:100500000EC0DC01FB013D912191222319F032172D
:10051000C9F3FACF332331F4DA011D921C928827F4
:10052000992708951197AF93BF93FB013D912191B6
:10053000321771F4332321F488279927119702C0C9
:100540001E921196FA01A193B0839F918F91089505
:10055000222369F7EACF0F931F93CF93DF938C0188
:10056000FC018281938160E070E04AE050E00E94EB
:100570003201EB01F8018481958160E070E04AE08E
:1005800050E00E9432019E0125503040223031055A
:1005900030F0C930D10519F0CA30D10579F5603491
:1005A0007105C1F06134710544F46130710581F069
:1005B0006830710509F056C009C0F1E060307F076E
:1005C00059F06050744009F04DC008C092E007C077
:1005D00091E005C093E003C094E001C095E02230B3
:1005E000310528F485B5887F982B95BD3BC0809157
:1005F0008100887F982B9093810034C0C330D1054F
:1006000011F02B9779F560347105F9F061347105BB
:1006100054F46830710599F060327105A1F06130D1
:10062000710501F50EC0E1E060307E0791F0F4E065
:1006300060307F0781F060387105A1F408C092E056
:100640000BC091E009C093E007C094E005C095E0BD
:1006500003C096E001C097E08091B100887F982B9D
:100660009093B100DF91CF911F910F910895FC01FC
:100670008481958160E070E04AE050E00E943201A0
:100680000895FC018481958160E070E04AE050E0CB
:100690000E94320183EC95E062E772E00E94760CE2
:1006A000089583EC95E040E052EC61E070E00E9438
:1006B000EA088AE892E090935303809352030895E6
:1006C000CF92DF92EF92FF920F931F93CF93DF931E
:1006D0008C01FC018281938160E070E04AE050E08F
:1006E0000E943201D62EC62EF801C481D5818681A2
:1006F000978160E070E04AE050E00E9432017B01A7
:100700008C01CE0160E072E00E946602892B51F4F8
:10071000EF2819F48D2D60E002C08D2D61E00E945C
:10072000170F15C0CE0165E072E00E946602892BAA
:1007300071F4B7016F3F710519F014F06FEF70E0BD
:1007400077FF02C060E070E08C2D0E94840DDF9185
:10075000CF911F910F91FF90EF90DF90CF90089570
:100760008F929F92AF92BF92DF92EF92FF920F9380
:100770001F93DF93CF930F920F92CDB7DEB75C013B
:100780007B0101E010E04E010894811C911C3EC0E9
:10079000D7011296ED91FC911397808189831A827B
:1007A00012968D919C911397019660E070E04AE05B
:1007B00050E00E943201D62EC4016AE072E00E942D
:1007C0006602892B21F48D2D0E944A0F0AC0C401B4
:1007D0006CE072E00E946602892BE1F48D2D0E948C
:1007E000500DBC0183EC95E04AE050E00E94630CA0
:1007F0000A151B052CF483EC95E060E20E947B0B4C
:100800000F5F1F4FE2E0F0E0EE0EFF1EA016B106F4
:100810000CF0BECF0F900F90CF91DF911F910F91F1
:10082000FF90EF90DF90BF90AF909F908F900895D2
:100830000F931F938C01FC018281938160E070E033
:100840004AE050E00E9432017093560360935503D2
:10085000F8018481958160E070E04AE050E00E94F8
:10086000320160935B0370935C0380935D0390930C
:100870005E038091550361E00E94640E0E94E00CCB
:1008800060935703709358038093590390935A03CE
:1008900081E0809354031F910F9108951F9310E0FE
:1008A000812F60E00E94640E1F5F1E30C9F71F9108
:1008B0000895FF920F931F93CF93DF938C01FC0158
:1008C0008281938160E070E04AE050E00E94320152
:1008D000F62EF801C481D581CE016EE072E00E944F
:1008E0006602892B19F48F2D60E009C0CE0161E109
:1008F00072E00E946602892B21F48F2D61E00E9434
:10090000640EDF91CF911F910F91FF900895EF92A8
:10091000FF920F931F93DF93CF93CDB7DEB7EC9782
:100920000FB6F894DEBF0FBECDBF80915403813067
:10093000A1F50E94E00C7B018C0180915B039091FA
:100940005C03A0915D03B0915E0320915703309149
:1009500058034091590350915A03820F931FA41FCB
:10096000B51F8E159F05A007B107B8F4E092570395
:10097000F09258030093590310935A038091550342
:100980000E944A0F019721F48091550360E003C053
:100990008091550361E00E94170F83EC95E00E945F
:1009A0007109892B09F4D0C083EC95E00E94A2095B
:1009B000182F8A3009F4C8C08D3009F0B1C083EC1B
:1009C00095E065E172E00E94760CE0915203F091AF
:1009D000530310828AE892E090935303809352036A
:1009E00066E172E00E9461029A8389838E010D5F45
:1009F0001F4FEE24FF240894E11CF11C80E090E0DE
:100A000066E172E00E946102F80191838083FEE159
:100A1000EF16F10421F00E5F1F4F892B61F78B81D8
:100A20009C8160E070E04AE050E00E943201098160
:100A30001A81C80168E172E00E946602892B29F4DC
:100A4000CE0101960E94590464C0C8016CE172E0B5
:100A50000E946602892B19F40E944E045AC0C801F4
:100A600062E272E00E946602892B29F4CE010196AF
:100A70000E9418044EC0C8016BE272E00E94660238
:100A8000892B51F48E2D992787FD9095BE016F5FBC
:100A90007F4F0E94B0033DC0C80160E372E00E9436
:100AA0006602892B29F4CE0101960E94600331C0B1
:100AB000C80166E372E00E946602892B29F4CE0128
:100AC00001960E94AB0225C0C80161E472E00E9459
:100AD0006602892BF1F0C80160E572E00E946602AF
:100AE000892BB9F0C8016FE572E00E946602892B7C
:100AF00029F4CE0101960E9441030BC0C80167E6AC
:100B000072E00E946602892BF9F4CE0101960E94E0
:100B1000370383EC95E062E772E00E94760C14C024
:100B2000992787FD90950E94C30F892B69F0E0916A
:100B30005203F091530323E0E235F20728F41193B6
:100B4000F0935303E0935203EC960FB6F894DEBF94
:100B50000FBECDBFCF91DF911F910F91FF90EF900E
:100B600008950F931F93CF93DF93FC01738D7695B8
:100B70007170A685B7859585772329F08C91892397
:100B800009F454C004C08C91892309F04FC08389B3
:100B9000948920E001972FEF8F3F9207D9F7C589FD
:100BA000D689A685B785158560E031E040E050E044
:100BB00000E0CE01202F01972FEF8F3F9207D9F74A
:100BC0008C91812311F0632B03C0832F80956823C0
:100BD000330F4F5F5F4F4830510559F78789908D2C
:100BE00020E001972FEF8F3F9207D9F771116095A1
:100BF0008091A1032091A20390E001968F739070E1
:100C000030E08217930779F0E091A103F0E0EF590B
:100C1000FC4F60838091A10390E001968F739070E8
:100C20008093A10303C0838D8160838FDF91CF9177
:100C30001F910F9108951F920F920FB60F920BB64E
:100C40000F9211242F933F934F935F936F937F9352
:100C50008F939F93AF93BF93EF93FF9380915F0325
:100C600090916003009711F00E94B105FF91EF9100
:100C7000BF91AF919F918F917F916F915F914F91B4
:100C80003F912F910F900BBE0F900FBE0F901F90B2
:100C900018951F920F920FB60F920BB60F92112458
:100CA0002F933F934F935F936F937F938F939F9374
:100CB000AF93BF93EF93FF9380915F039091600395
:100CC000009711F00E94B105FF91EF91BF91AF9194
:100CD0009F918F917F916F915F914F913F912F9154
:100CE0000F900BBE0F900FBE0F901F9018951F9284
:100CF0000F920FB60F920BB60F9211242F933F93C2
:100D00004F935F936F937F938F939F93AF93BF9313
:100D1000EF93FF9380915F0390916003009711F030
:100D20000E94B105FF91EF91BF91AF919F918F917B
:100D30007F916F915F914F913F912F910F900BBEDB
:100D40000F900FBE0F901F90189508951F920F924D
:100D50000FB60F920BB60F9211242F933F934F9320
:100D60008F939F93EF93FF938091C00082FD1DC0EE
:100D70004091C6002091E3033091E4032F5F3F4F81
:100D80002F7330708091E5039091E603281739079F
:100D900071F0E091E303F091E403ED55FC4F4083E3
:100DA0003093E4032093E30302C08091C600FF91D7
:100DB000EF919F918F914F913F912F910F900BBE8B
:100DC0000F900FBE0F901F90189508951F920F92CD
:100DD0000FB60F920BB60F9211242F933F934F93A0
:100DE0008F939F93EF93FF938091C80082FD1DC066
:100DF0004091CE0020916B0430916C042F5F3F4FE7
:100E00002F73307080916D0490916E04281739070C
:100E100071F0E0916B04F0916C04E55DFB4F408351
:100E200030936C0420936B0402C08091CE00FF913C
:100E3000EF919F918F914F913F912F910F900BBE0A
:100E40000F900FBE0F901F90189508951F920F924C
:100E50000FB60F920BB60F9211242F933F934F931F
:100E60008F939F93EF93FF938091D00082FD1DC0DD
:100E70004091D6002091F3043091F4042F5F3F4F4E
:100E80002F7330708091F5049091F604281739077C
:100E900071F0E091F304F091F404ED54FB4F4083C2
:100EA0003093F4042093F30402C08091D600FF91A4
:100EB000EF919F918F914F913F912F910F900BBE8A
:100EC0000F900FBE0F901F90189508951F920F92CC
:100ED0000FB60F920BB60F9211242F933F934F939F
:100EE0008F939F93EF93FF938091300182FD1DC0FC
:100EF0004091360120917B0530917C052F5F3F4F5B
:100F00002F73307080917D0590917E0528173907E9
:100F100071F0E0917B05F0917C05E55CFA4F408330
:100F200030937C0520937B0502C080913601FF91B0
:100F3000EF919F918F914F913F912F910F900BBE09
:100F40000F900FBE0F901F901895E091CF05F09174
:100F5000D005E05CFF4F8191919120813181821B0E
:100F6000930B8F739070892B11F00E94A506E0916E
:100F7000F105F091F205E05CFF4F819191912081A4
:100F80003181821B930B8F739070892B11F00E941B
:100F9000E506E0911306F0911406E05CFF4F8191A5
:100FA000919120813181821B930B8F739070892BDB
:100FB00011F00E942507E0913506F0913606E05CBD
:100FC000FF4F8191919120813181821B930B8F730F
:100FD0009070892B11F00E94650708951F920F925F
:100FE0000FB60F920BB60F9211242F933F938F934E
:100FF0009F93EF93FF9320912704309128048091D1
:10100000290490912A042817390731F48091C100EE
:101010008F7D8093C10014C0E0912904F0912A04CF
:10102000E951FC4F20818091290490912A04019676
:101030008F73907090932A04809329042093C600A4
:10104000FF91EF919F918F913F912F910F900BBE48
:101050000F900FBE0F901F9018951F920F920FB612
:101060000F920BB60F9211242F933F938F939F9360
:10107000EF93FF932091AF043091B0048091B104BD
:101080009091B2042817390731F48091C9008F7DFF
:101090008093C90014C0E091B104F091B204E15909
:1010A000FB4F20818091B1049091B20401968F731F
:1010B00090709093B2048093B1042093CE00FF917E
:1010C000EF919F918F913F912F910F900BBE0F90B9
:1010D0000FBE0F901F9018951F920F920FB60F9290
:1010E0000BB60F9211242F933F938F939F93EF93FF
:1010F000FF93209137053091380580913905909103
:101100003A052817390731F48091D1008F7D8093FB
:10111000D10014C0E0913905F0913A05E950FB4F38
:1011200020818091390590913A0501968F739070D6
:1011300090933A05809339052093D600FF91EF9163
:101140009F918F913F912F910F900BBE0F900FBEEB
:101150000F901F9018951F920F920FB60F920BB61B
:101160000F9211242F933F938F939F93EF93FF93AD
:101170002091BF053091C0058091C1059091C205B5
:101180002817390731F4809131018F7D8093310127
:1011900014C0E091C105F091C205E158FA4F2081D9
:1011A0008091C1059091C20501968F7390709093C4
:1011B000C2058093C10520933601FF91EF919F9165
:1011C0008F913F912F910F900BBE0F900FBE0F90FC
:1011D0001F901895AF92BF92DF92EF92FF920F93FC
:1011E0001F93CF93DF93EC017A018B01DD24403014
:1011F00081EE580780E0680780E0780711F0DD2471
:10120000D39491E0A92EB12CEC89FD89DD2069F001
:10121000C50108A002C0880F991F0A94E2F78083D5
:1012200060E079E08DE390E005C0108260E874E84A
:101230008EE190E0A80197010E94990F2150304063
:1012400040405040569547953795279580E120308E
:10125000380720F0DD2011F0DD24D6CFE889F989A8
:101260003083EA89FB89208319A2EE89FF894081B6
:1012700021E030E0C9010C8C02C0880F991F0A944C
:10128000E2F7482B4083EE89FF894081C9010D8C2C
:1012900002C0880F991F0A94E2F7482B4083EE8919
:1012A000FF894081C9010E8C02C0880F991F0A94E2
:1012B000E2F7482B4083EE89FF8980810F8C02C0C2
:1012C000220F331F0A94E2F7209528232083DF9111
:1012D000CF911F910F91FF90EF90DF90BF90AF9053
:1012E0000895DC011C96ED91FC911D97E05CFF4F89
:1012F0002191319180819181281B390B2F7330709E
:10130000C9010895DC011C96ED91FC911D97E05CEC
:10131000FF4F20813181E054F040DF01AE5BBF4FD1
:101320008D919C9111972817390719F42FEF3FEFF2
:1013300007C08D919C91E80FF91F8081282F30E024
:10134000C9010895DC011C96ED91FC911D97E05CAC
:10135000FF4F20813181E054F040DF01AE5BBF4F91
:101360008D919C9111972817390719F42FEF3FEFB2
:1013700010C08D919C911197E80FF91F20818D91DC
:101380009C91119701968F73907011969C938E93F8
:1013900030E0C9010895DC0191968C9191978823E2
:1013A00039F05496ED91FC915597808186FFF9CFE5
:1013B00091961C920895CF93DF93EC01EE85FF8503
:1013C000E05CFF4F20813181E054F0402F5F3F4FC0
:1013D0002F733070DF01AE5BBF4F8D919C911197E1
:1013E00028173907D1F3E05CFF4F80819181E054E9
:1013F000F040E80FF91F6083EE85FF85E05CFF4F4A
:1014000031832083EE89FF89208181E090E00F8C79
:1014100002C0880F991F0A94E2F7282B208381E0ED
:1014200089A3EC89FD8980818064808381E090E0DC
:10143000DF91CF9108951F931092C6051092C505B4
:1014400028EE33E040E050E02093C7053093C80514
:101450004093C9055093CA056CE772E07093C405C8
:101460006093C30583EA93E09093D0058093CF0502
:1014700087EE93E09093D2058093D10585EC90E0C0
:101480009093D4058093D30584EC90E09093D60597
:101490008093D50580EC90E09093D8058093D70594
:1014A00081EC90E09093DA058093D90582EC90E08E
:1014B0009093DC058093DB0586EC90E09093DE054D
:1014C0008093DD0514E01093DF05B3E0B093E005F1
:1014D000A7E0A093E105F5E0F093E205E1E0E093F9
:1014E000E3051092E8051092E7052093E905309393
:1014F000EA054093EB055093EC057093E605609385
:10150000E5058BE294E09093F2058093F1058FE678
:1015100094E09093F4058093F3058DEC90E0909324
:10152000F6058093F5058CEC90E09093F805809398
:10153000F70588EC90E09093FA058093F90589EC23
:1015400090E09093FC058093FB058AEC90E09093EB
:10155000FE058093FD058EEC90E09093000680934D
:10156000FF0510930106B0930206A0930306F093C3
:101570000406E093050610920A06109209062093CD
:101580000B0630930C0640930D0650930E06709395
:1015900008066093070683EB94E09093140680930B
:1015A000130687EF94E0909316068093150685ED59
:1015B00090E0909318068093170684ED90E0909346
:1015C0001A068093190680ED90E090931C06809394
:1015D0001B0681ED90E090931E0680931D0682ED20
:1015E00090E09093200680931F0686ED90E0909304
:1015F00022068093210610932306B0932406A0931D
:101600002506F0932606E093270610922C061092EA
:101610002B0620932D0630932E0640932F065093D1
:10162000300670932A06609329068BE395E0909329
:101630003606809335068FE795E0909338068093C1
:10164000370685E391E090933A068093390684E368
:1016500091E090933C0680933B0680E391E0909369
:101660003E0680933D0681E391E09093400680938F
:101670003F0682E391E0909342068093410686E321
:1016800091E0909344068093430610934506B093EF
:101690004606A0934706F0934806E09349061F913B
:1016A0000895CF92DF92EF92FF920F931F93CF9303
:1016B000DF937C016B018A01C0E0D0E00FC0D6014E
:1016C0006D916D01D701ED91FC910190F081E02DBC
:1016D000C7011995C80FD91F0150104001151105F8
:1016E00071F7CE01DF91CF911F910F91FF90EF9095
:1016F000DF90CF900895DC01ED91FC910190F08195
:10170000E02D19950895EF92FF920F931F938C018E
:10171000DC01ED91FC910190F081E02D6DE01995D7
:101720007C01D801ED91FC910190F081E02DC80180
:101730006AE019959C012E0D3F1DC9011F910F9163
:10174000FF90EF900895CF93DF93EC016115710541
:1017500019F420E030E00FC0DB010D900020E9F724
:101760001197A61BB70BE881F9810280F381E02D68
:10177000AD0119959C01C901DF91CF9108954F9258
:101780005F927F928F929F92AF92BF92CF92DF92A1
:10179000EF92FF920F931F93DF93CF93CDB7DEB7F6
:1017A000A1970FB6F894DEBF0FBECDBF2C01742EEB
:1017B000CB01223008F42AE019A231E2C32ED12C49
:1017C000CC0EDD1E822E9924AA24BB24672D752FF2
:1017D000A50194010E94990F79018A01C801B701FE
:1017E000A50194010E947A0F472D461B0894C10859
:1017F000D1084A3014F4405D01C0495CF6014083D1
:10180000E114F1040105110521F07E2C5F2DC801C2
:10181000DDCFC201B6010E94A30BA1960FB6F894CA
:10182000DEBF0FBECDBFCF91DF911F910F91FF9013
:10183000EF90DF90CF90BF90AF909F908F907F9070
:101840005F904F900895CF92DF92EF92FF920F93A7
:101850001F93CF93DF93EC016A017B0121153105C2
:1018600041F4E881F9810190F081E02D642F199510
:101870001FC02A303105D1F477FF17C0E881F98104
:101880000190F081E02D6DE219958C0144275527D8
:10189000BA014C195D096E097F09CE012AE00E9448
:1018A000BF0B9801280F391F04C02AE00E94BF0B0C
:1018B0009C01C901DF91CF911F910F91FF90EF9093
:1018C000DF90CF900895EF92FF920F931F937B01CB
:1018D0009A010027F7FC0095102FB801A7010E947C
:1018E000230C1F910F91FF90EF900895EF92FF92BC
:1018F0000F931F937C010E94A30B8C01C7010E94D0
:10190000830B080F191FC8011F910F91FF90EF90D3
:101910000895CF93DF930E94EE0C0E945103C5EA15
:10192000D7E00E9487042097E1F30E94A507F9CF32
:101930001F920F920FB60F9211242F933F938F9304
:101940009F93AF93BF9380914F0690915006A091C3
:101950005106B0915206309153060196A11DB11D5A
:10196000232F2D5F2D3720F02D570196A11DB11D7E
:101970002093530680934F0690935006A0935106F0
:10198000B093520680914B0690914C06A0914D0663
:10199000B0914E060196A11DB11D80934B06909308
:1019A0004C06A0934D06B0934E06BF91AF919F9108
:1019B0008F913F912F910F900FBE0F901F90189510
:1019C0008FB7F89420914F06309150064091510600
:1019D000509152068FBFB901CA010895789484B519
:1019E000826084BD84B5816084BD85B5826085BD1B
:1019F00085B5816085BDEEE6F0E080818160808301
:101A0000E1E8F0E0108280818260808380818160E3
:101A10008083E0E8F0E0808181608083E1EBF0E0AA
:101A2000808184608083E0EBF0E08081816080834E
:101A3000E1E9F0E080818260808380818160808341
:101A4000E0E9F0E0808181608083E1EAF0E080817C
:101A500082608083808181608083E0EAF0E0808121
:101A600081608083E1E2F1E0808182608083808117
:101A700081608083E0E2F1E0808181608083EAE739
:101A8000F0E08081846080838081826080838081B7
:101A9000816080838081806880831092C100089576
:101AA000382F863308F0365320917B00832F86959C
:101AB0008695869590E08170907043E0880F991F1D
:101AC0004A95E1F7277F282B20937B003770809180
:101AD00077028295880F880F807C832B80937C000F
:101AE00080917A00806480937A0080917A0086FDEC
:101AF000FCCF2091780040917900942F80E030E075
:101B0000282B392BC90108951F93CF93DF93182FEA
:101B1000EB0161E00E94640E209709F4CAC0CF3F38
:101B2000D10509F4C9C0E12FF0E0E254FE4F8491E1
:101B3000893009F466C08A30B0F48430F1F1853020
:101B400040F4823059F1833070F5813009F0AEC035
:101B500020C0873009F443C0883008F048C0863080
:101B600009F0A4C034C08D3009F478C08E3038F448
:101B70008B3009F45AC08C3008F066C04CC08031FC
:101B800009F480C0813109F487C08F3009F08EC01C
:101B90006FC084B5806884BDC7BD92C084B58062C3
:101BA00084BDC8BD8DC08091800080688093800016
:101BB000D0938900C093880083C0809180008062A8
:101BC00080938000D0938B00C0938A0079C080916D
:101BD000B00080688093B000C093B30071C0809162
:101BE000B00080628093B000C093B40069C080915F
:101BF0009000806880939000D0939900C0939800E3
:101C00005FC080919000806280939000D0939B0091
:101C1000C0939A0055C08091900088608093900096
:101C2000D0939D00C0939C004BC08091A000806821
:101C30008093A0008091A0008F7B8093A000D09320
:101C4000A900C093A8003CC08091A000806280934E
:101C5000A000D093AB00C093AA0032C08091A00036
:101C600088608093A000D093AD00C093AC0028C0E2
:101C700080912001806880932001D0932901C09336
:101C800028011EC080912001806280932001D093A2
:101C90002B01C0932A0114C0809120018860809399
:101CA0002001D0932D01C0932C010AC0C038D1056A
:101CB0001CF4812F60E002C0812F61E00E94170FA9
:101CC000DF91CF911F910895CF93DF93482F50E07C
:101CD000CA0188589E4FFC0134914E5C5E4FFA0158
:101CE0008491882369F190E0880F991FFC01EC51E1
:101CF000FF4FA591B491FC01E250FF4FC591D491E3
:101D0000662351F42FB7F8948C91932F90958923E3
:101D10008C93888189230BC0623061F42FB7F894CB
:101D20008C91932F909589238C938881832B888322
:101D30002FBF06C09FB7F8948C91832B8C939FBFC5
:101D4000DF91CF910895893009F449C08A30A0F419
:101D5000843051F1853040F4823079F1833000F5E0
:101D6000813009F063C026C0873079F1883098F55A
:101D7000863009F05BC025C08D3009F442C08E303A
:101D800028F48B30B1F18C30C0F52DC0803109F4CE
:101D900042C0813109F445C08F3009F047C037C0D7
:101DA000809180008F7703C0809180008F7D809329
:101DB0008000089584B58F7702C084B58F7D84BD7F
:101DC00008958091B0008F7703C08091B0008F7D1F
:101DD0008093B0000895809190008F7707C0809124
:101DE00090008F7D03C080919000877F809390004A
:101DF00008958091A0008F7707C08091A0008F7D0B
:101E000003C08091A000877F8093A00008958091F7
:101E100020018F7703C0809120018F7D8093200166
:101E2000089580912001877F809320010895FF927B
:101E30000F931F93F62E482F50E0CA0182549E4FF5
:101E4000FC012491CA0188589E4FFC0114914E5CFC
:101E50005E4FFA0104910023C9F0222319F0822F6A
:101E60000E94A30EE02FF0E0EE0FFF1FE250FF4FA5
:101E7000A591B4919FB7F894FF2021F48C9110950F
:101E8000812302C08C91812B8C939FBF1F910F9156
:101E9000FF9008950F931F93482F50E0CA0182547A
:101EA0009E4FFC012491CA0188589E4FFC01049169
:101EB0004E5C5E4FFA011491112319F420E030E0DA
:101EC00015C0222319F0822F0E94A30E812F90E0CB
:101ED000880F991F885E9E4FFC01A591B4918C914B
:101EE00020E030E0802311F021E030E0C9011F91B3
:101EF0000F910895629FD001739FF001829FE00DC2
:101F0000F11D649FE00DF11D929FF00D839FF00D78
:101F1000749FF00D659FF00D9927729FB00DE11D24
:101F2000F91F639FB00DE11DF91FBD01CF01112401
:101F30000895A1E21A2EAA1BBB1BFD010DC0AA1F0A
:101F4000BB1FEE1FFF1FA217B307E407F50720F022
:101F5000A21BB30BE40BF50B661F771F881F991F9D
:101F60001A9469F760957095809590959B01AC01E6
:101F7000BD01CF010895EE0FFF1F0590F491E02DF4
:101F80001994803209F091110CC080528F55E0F7FE
:101F90000895911106C0803219F089508550D0F70C
:0C1FA0000895992788270895F894FFCF32
:101FAC006469676900616E616C0044004100696E90
:101FBC00006F7574000020005365740052657365E2
:101FCC007400426C696E6B50696E005265616400FE
:101FDC0057726974650053657450776D46726571FC
:101FEC000048617264536572436F6E6E6563740072
:101FFC00536F6674536572436F6E6E6563740053F2
:10200C00657253656E6400536572526563656976DB
:10201C006500646F6E65000100000000DB09510B68
:08202C007109A2098209CB0928
:00000001FF
