:100000000C9422010C944F010C944F010C944F015D
:100010000C944F010C944F010C944F010C944F0120
:100020000C944F010C94850E0C94B30E0C94E10EBD
:100030000C944F010C944F010C944F010C944F0100
:100040000C944F010C944F010C944F010C944F01F0
:100050000C944F010C944F010C944F010C94DA183E
:100060000C944F010C945E120C94A6130C944F0147
:100070000C944F010C944F010C944F010C944F01C0
:100080000C944F010C944F010C944F010C944F01B0
:100090000C949E120C94E5130C944F010C94940B49
:1000A0000C944F010C944F010C944F010C944F0190
:1000B0000C944F010C944F010C944F010C944F0180
:1000C0000C944F010C944F010C944F010C94DE12D0
:1000D0000C9424140C944F010C941E130C94631470
:1000E0000C944F0100002100240027002A002D005D
:1000F0003000330001010000040107010A01000083
:100100002200250028002B002E00310034000201BF
:100110000000050108010B0100002000230026005B
:1001200029002C002F00320000010000030106010D
:10013000090105050505070508080808020202026D
:100140000A0A080804040404010101010101010173
:100150000303030303030303040707070C0C0C0C3E
:100160000C0C0C0C02020202060606060606060627
:100170000B0B0B0B0B0B0B0B0102102020080810B4
:100180002040102040800201020108040201010207
:1001900004081020408080402010080402018004E0
:1001A000020180402010080402010804020101023B
:1001B0000408102040800102040810204080000044
:1001C000090A02080B0C0D070603040100000000D9
:1001D000000000000000000000000000000000001F
:1001E0000000000000000000000011100F000000DF
:1001F00000000000000000000000000000000000FF
:1002000000000000494E46494E4954594E414ECDDA
:10021000CCCC3D0AD7233C17B7D13877CC2B3295BD
:1002200095E6241FB14F0A000020410000C842009B
:10023000401C4620BCBE4CCA1B0E5AAEC59D740065
:10024000810DD31511241FBECFEFD1E2DEBFCDBF8C
:1002500000E00CBF12E0A0E0B2E0E4E4FDE300E067
:100260000BBF02C007900D92A23EB107D9F71BBE8B
:1002700017E0A2EEB2E001C01D92A43EB107E1F783
:1002800012E0C4E4D2E004C02297FE010E94521E94
:10029000C034D107C9F70E9441180C94A01E0C94D9
:1002A00000002F923F925F926F927F928F929F9267
:1002B000AF92BF92CF92DF92EF92FF920F931F9374
:1002C000CF93DF938C011B01EA016115710519F0D1
:1002D000FB0191838083209749F0CE010297839799
:1002E00028F020E030E040E050E0F6C0F801A190B6
:1002F0008F018A2D90E00E945E1E892BB9F7FDE2E6
:10030000AF1631F4F801A1908F015524539407C022
:10031000FBE2AF1619F4F801A1908F015524209744
:1003200019F0C031D105C1F4F0E3AF1679F4F8014A
:100330008081883711F0883549F4F801A1800E5F7B
:100340001F4FF2E05F2AC0E1D0E006C0209721F401
:1003500080E3A816E9F427C0C830D10531F1C930CF
:10036000D10524F4C230D10531F50CC0CA30D10515
:1003700089F0C031D105F9F4C12CD12CE12CB8E0C1
:10038000FB2E28C0C12CD12CE12CA0E4FA2E22C0D7
:10039000CAE0D0E0FCECCF2EFCECDF2EFCECEF2E24
:1003A000FCE0FF2E17C0C8E0D0E0C12CD12CE12C1E
:1003B000E0E1FE2E0FC09E01442737FD4095542FEB
:1003C00060E070E080E090E80E942E1EC901DA0132
:1003D0006C017D0120E030E040E050E060E03E0153
:1003E000882477FC8094982C70EDB72EBA0CE9E045
:1003F000EB1570F48A2D81548A3118F499ECB92EDA
:1004000006C08A2D81568A3150F589EAB82EBA0C79
:100410008B2D90E08C179D0714F56F3FE1F0C2160D
:10042000D306E406F506B0F0CA01B901A4019301B0
:100430000E940F1E9B01AC012B0D311D411D511D52
:100440002130F0E03F07F0E04F07F0E85F0710F4DD
:1004500061E001C06FEFF801A1908F01C5CF2114B9
:10046000310481F0662331F001501040F101118315
:10047000008308C051FE1AC002501040F1011183E0
:10048000008314C067FF12C050FC05C02FEF3FEF80
:100490004FEF5FE704C020E030E040E050E882E248
:1004A00090E09093E3078093E20716C050FE08C0E7
:1004B00050954095309521953F4F4F4F5F4F0CC061
:1004C00057FF0AC082E290E09093E3078093E2072F
:1004D0002FEF3FEF4FEF5FE7B901CA01DF91CF91F7
:1004E0001F910F91FF90EF90DF90CF90BF90AF9052
:1004F0009F908F907F906F905F903F902F90089586
:10050000662777270C94CE0242EE52E00E949C02AE
:100510000895FB01DC018D9181341CF08B350CF4C6
:10052000805E619161341CF06B350CF4605E861B5B
:10053000611189F3990B0895009731F4DA018D91D7
:100540009C91009709F40EC0DC01FB013D912191C3
:10055000222319F03217C9F3FACF332331F4DA0129
:100560001D921C928827992708951197AF93BF93E6
:10057000FB013D912191321771F4332321F4882737
:100580009927119702C01E921196FA01A193B08388
:100590009F918F910895222369F7EACFA0E0B0E000
:1005A000E4EDF2E00C946F1EEC015B016115710546
:1005B00019F0FB0191838083F9908F2D90E00E94C8
:1005C0005E1E892BC9F7FDE2FF1621F4F990EE2497
:1005D000E39405C02BE2F21609F4F990EE248E01A3
:1005E00001501040C80164E072E043E050E00E9416
:1005F0002E04892B01F58E010E5F1F4FC80167E0A5
:1006000072E045E050E00E942E04892B19F48E011F
:10061000095F1F4FA114B10419F0F5011183008384
:10062000E0FC04C070E090E080E814C070E090E06E
:1006300080E86FEF08C1C8016CE072E043E050E071
:100640000E942E04892B69F4A114B10429F470E0EE
:1006500090E080EC6FE7F7C02296F501D183C0836C
:10066000F6CF8824992440E050E060E070E0EF2D60
:10067000E053EA30A0F5F2E0EF2A8E2D90E09C01E5
:1006800028703070E2FE06C0232B79F50894811C97
:10069000911C2BC0232B19F0089481089108DB01D1
:1006A000CA0112E0880F991FAA1FBB1F1A95D1F724
:1006B000480F591F6A1F7B1F440F551F661F771F66
:1006C0004E0F511D611D711D483929E9520729E955
:1006D000620729E1720748F084E0E82A06C0EE3F8D
:1006E00031F4E3FC39C098E0E92AF990C0CFE53352
:1006F00011F0E53189F529912D3219F4E0E1EE2A66
:1007000005C02B3219F081E090E003C0299182E00E
:1007100090E0E22FE053EA3018F0C81BD90B1CC060
:1007200020E030E0FCE020383F075CF4C901880F8E
:10073000991F880F991F280F391F220F331F2E0F63
:10074000311DE991E053EA3068F3E4FE03C03095CF
:1007500021953F4F820E931ECE2CDD24E1FE07C073
:10076000A114B10421F02197F501D183C083CB01FD
:10077000BA010E94F61C7B018C01F3E0CF22DD243C
:1007800023E0C216D10421F417FB109517F9109538
:1007900057016801C801B70120E030E040E050E0B7
:1007A0000E948A1C882309F44AC097FE0DC023E2E8
:1007B000E22E22E0F22E9094819491089394C0E26C
:1007C000D0E000E010E012C09BE3E92E92E0F92EA9
:1007D000F6CFF7012591359145915491C601B501A8
:1007E0000E94AC1D5B016C018C1A9D0A8C169D0643
:1007F00084F7D595C7950F5F1F4F0630110529F077
:100800008CEF9FEFE80EF91EF1CFC501D6017C01F8
:100810008D018C2D880F8D2D881F8F3F51F0C601C3
:10082000B50120E030E040E050E00E948A1C8823BF
:1008300031F482E290E09093E3078093E2077E2D0B
:100840009F2D802F612F272F392F482F562FB90129
:10085000CA01CDB7DEB7ECE00C948B1EFB01DC01C6
:100860004150504088F08D9181341CF08B350CF450
:10087000805E659161341CF06B350CF4605E861B04
:10088000611171F3990B0895881BFCCFAF92BF9251
:10089000CF92DF92EF92FF920F931F936C01FC01B6
:1008A0008281938160E070E04AE050E00E94510153
:1008B0007B018C01F6018481958160E070E04AE063
:1008C00050E00E9451015B016C01970121503040C2
:1008D00024303105B8F48BE190E0289F8001299FF6
:1008E000100D389F100D112406511D4FB50188279A
:1008F00077FD8095982F0E94F81CF801668B778B06
:10090000808F918F1F910F91FF90EF90DF90CF908C
:10091000BF90AF9008950F931F93CF93DF938C01F7
:10092000FC018281938160E070E04AE050E00E9427
:100930005101EB01F8018481958160E070E04AE0AB
:1009400050E00E9451019E01255030402230310577
:1009500030F0C930D10519F0CA30D10579F56034CD
:100960007105C1F06134710544F46130710581F0A5
:100970006830710509F056C009C0F1E060307F07AA
:1009800059F06050744009F04DC008C092E007C0B3
:1009900091E005C093E003C094E001C095E02230EF
:1009A000310528F485B5887F982B95BD3BC0809193
:1009B0008100887F982B9093810034C0C330D1058B
:1009C00011F02B9779F560347105F9F061347105F8
:1009D00054F46830710599F060327105A1F061300E
:1009E000710501F50EC0E1E060307E0791F0F4E0A2
:1009F00060307F0781F060387105A1F408C092E093
:100A00000BC091E009C093E007C094E005C095E0F9
:100A100003C096E001C097E08091B100887F982BD9
:100A20009093B100DF91CF911F910F910895CF92D4
:100A3000DF92EF92FF920F931F938C01FC01828152
:100A4000938160E070E04AE050E00E9451016B0148
:100A50007C01F8018481958160E070E04AE050E01B
:100A60000E945101FB013197E330F10568F4EE0F6C
:100A7000FF1FEC51FD4FA601662757FD6095762FAD
:100A8000808191810E94A2141F910F91FF90EF909D
:100A9000DF90CF9008958FE497E040E052EC61E062
:100AA00070E00E94A21486E593E090931F04809367
:100AB0001E048FED94E00E94100EA4EEB2E0E0E080
:100AC000F0E043E957E021E737E002C01296FC016D
:100AD000CF0101968230910551F08330910559F094
:100AE0008130910589F411963C932E93EFCF1196A6
:100AF0005C934E93EBCFEE0FFF1FEC51FD4F85EB58
:100B000097E091838083089583309105FCF20895E6
:100B1000CF92DF92EF92FF920F931F93CF93DF93C9
:100B20008C01FC018281938160E072E00E94890265
:100B30006C01F8018481958160E070E04AE050E04A
:100B40000E9451017B018C01EB018FE497E067EB80
:100B500072E00E942E181E141F0484F5CD2871F136
:100B6000C430D1055CF5CC0FDD1FCE51DD4F8FE4D5
:100B700097E00E942915892BD1F38FE497E00E941A
:100B80005A15182FA881B981ED91FC911197682F02
:100B9000772767FD70950190F081E02DCD011995C3
:100BA000112329F78FE497E067EB72E00E942E187B
:100BB0006AE070E080E090E00E949219DF91CF91AE
:100BC0001F910F91FF90EF90DF90CF900895AF921B
:100BD000BF92CF92DF92EF92FF920F931F93CF932A
:100BE000DF938C01FC018281938160E070E04AE038
:100BF00050E00E9451017B01F8018481958160E001
:100C000070E04AE050E00E9451015B016C010894E1
:100C1000E108F108F4E0EF16F10438F50E9422191A
:100C20002BE130E0E29EE001E39ED00DF29ED00D7C
:100C30001124C651DD4F6A8B7B8B8C8B9D8B288159
:100C40003981AB2841F081E08A8FC90161E070E011
:100C50000E9457100AC01A8EC90160E070E00E941D
:100C600057108C8160E00E94C11BDF91CF911F91D2
:100C70000F91FF90EF90DF90CF90BF90AF900895CD
:100C80002F923F924F925F926F927F928F929F929C
:100C9000AF92BF92CF92DF92EF92FF920F931F938A
:100CA0006C01FC018281938160E070E04AE050E0D9
:100CB0000E9451017B018C01F601848195810E9483
:100CC00080021B012C01F601868197810E9480021F
:100CD0003B014C01F601808591850E9480025B01F9
:100CE0006C010894E108F108F4E0EF16F104A8F4AF
:100CF0008BE190E0E89EF001E99EF00DF89EF00D8A
:100D00001124E651FD4F80819181B201A10194012E
:100D10008301760165010E940F0F1F910F91FF90D3
:100D2000EF90DF90CF90BF90AF909F908F907F908B
:100D30006F905F904F903F902F9008952F923F9229
:100D40004F925F926F927F928F929F92AF92BF92DB
:100D5000CF92DF92EF92FF920F931F93DF93CF9387
:100D6000CDB7DEB764970FB6F894DEBF0FBECDBF28
:100D70008C01DC0112968D919C91139760E070E0DC
:100D80004AE050E00E9451016B017C01F80184812E
:100D9000958160E070E04AE050E00E945101698B6B
:100DA0007A8B8B8B9C8BD80116968D919C91179783
:100DB00060E070E04AE050E00E9451016D877E875C
:100DC0008F87988BF8018085918560E070E04AE01C
:100DD00050E00E94510169877A878B879C87D801F0
:100DE0001A968D919C911B970E9480026D837E8341
:100DF0008F839887F801848595850E948002698396
:100E00007A838B839C83D8011E968D919C911F972A
:100E10000E9480021B012C010894C108D108B4E093
:100E2000CB16D10408F06BC08BE190E0C89E800126
:100E3000C99E100DD89E100D11243AEE832E32E07B
:100E4000932E800E911E89899A89F401938382835F
:100E5000AD85BE85B583A483E985FA859F014427C6
:100E600037FD4095542FD4011E962D933D934D93FD
:100E70005C93519789E390E00E94D718782E692EF1
:100E800000D000D0A8014C505D4F980120503D4F3C
:100E9000EDB7FEB7218232824382548216821582D8
:100EA00000511D4FB801ED80FE800F811885A9808B
:100EB000BA80CB80DC800E94C811D4017C9211964C
:100EC0006C921197EDB7FEB736960FB6F894FEBF49
:100ED0000FBEEDBF1E966D917D918D919C915197A6
:100EE0000E94F61C8B019C01872D962D40E050E05E
:100EF00060E070E00E94DB0FD4015A961C92649669
:100F00000FB6F894DEBF0FBECDBFCF91DF911F911A
:100F10000F91FF90EF90DF90CF90BF90AF909F9098
:100F20008F907F906F905F904F903F902F9008959B
:100F3000CF92DF92EF92FF920F931F93CF93DF93A5
:100F40008C01FC018281938160E070E04AE050E016
:100F50000E945101D62EC62EF801C481D58186810A
:100F6000978160E070E04AE050E00E9451017B010F
:100F70008C01CE0165E072E00E948902892B51F458
:100F8000EF2819F48D2D60E002C08D2D61E00E94E4
:100F9000C11B15C0CE016AE072E00E948902892B54
:100FA00071F4B7016F3F710519F014F06FEF70E045
:100FB00077FF02C060E070E08C2D0E942E1ADF9156
:100FC000CF911F910F91FF90EF90DF90CF900895F8
:100FD0008F929F92AF92BF92DF92EF92FF920F9308
:100FE0001F93DF93CF930F920F92CDB7DEB75C01C3
:100FF0007B0101E010E04E010894811C911C3EC071
:10100000D7011296ED91FC911397808189831A8202
:1010100012968D919C911397019660E070E04AE0E2
:1010200050E00E945101D62EC4016FE072E00E9490
:101030008902892B21F48D2D0E94F41B0AC0C40162
:1010400061E172E00E948902892BE1F48D2D0E94FA
:10105000FA19BC018FE497E04AE050E00E941B18A7
:101060000A151B052CF48FE497E060E20E94331709
:101070000F5F1F4FE2E0F0E0EE0EFF1EA016B1067C
:101080000CF0BECF0F900F90CF91DF911F910F9179
:10109000FF90EF90DF90BF90AF909F908F9008955A
:1010A0000F931F938C01FC018281938160E070E0BB
:1010B0004AE050E00E9451017093220460932104A1
:1010C000F8018481958160E070E04AE050E00E9480
:1010D000510160932704709328048093290490930E
:1010E0002A048091210461E00E940E1B0E942219B3
:1010F0006093230470932404809325049093260422
:1011000081E0809320041F910F9108951F9310E0B8
:10111000812F60E00E940E1B1F5F1633C9F71F91DD
:101120000895FF920F931F93CF93DF938C01FC01DF
:101130008281938160E070E04AE050E00E945101BA
:10114000F62EF801C481D581CE0163E172E00E94E0
:101150008902892B19F48F2D60E009C0CE0166E168
:1011600072E00E948902892B21F48F2D61E00E9498
:101170000E1BDF91CF911F910F91FF9008951F9348
:10118000CF93DF93EC018A819B8160E072E00E9443
:10119000890210E0892B09F411E08C819D8160E0C7
:1011A00070E04AE050E00E945101DB01161617067C
:1011B0002CF4812F90E08A179B072CF5112389F0DE
:1011C00022C0A881B981ED91FC9111970680F78129
:1011D000E02DCD011995682F8FE497E00E949315BB
:1011E00005C0ED01CC0FDD1FCE51DD4FE881F98147
:1011F000A081B18114962D913C911597CF01F901F1
:101200001995892BF1F6DF91CF911F910895EF92F7
:10121000FF920F931F93CF93DF937C018B01FB0110
:101220008281938160E070E04AE050E00E945101C9
:101230009B01AC018FED94E0B9010E94470DC2E023
:10124000D0E00EC0F8018281938160E070E04AE056
:1012500050E00E9451018FED94E00E94C90D21964B
:101260000E5F1F4FCE15DF056CF38FED94E00E94EB
:101270000C0EDF91CF911F910F91FF90EF90089589
:101280008F929F92AF92BF92CF92DF92EF92FF9296
:101290000F931F93DF93CF93CDB7DEB7EC970FB6C5
:1012A000F894DEBF0FBECDBF809120048130A1F540
:1012B0000E9422197B018C018091270490912804BF
:1012C000A0912904B0912A04209123043091240490
:1012D0004091250450912604820F931FA41FB51F2F
:1012E0008E159F05A007B107B8F4E0922304F09291
:1012F00024040093250410932604809121040E9465
:10130000F41B019721F48091210460E003C08091D7
:10131000210461E00E94C11B5AEEC52E52E0D52E79
:10132000F601828D882309F455C082810E94FA1942
:10133000AA2797FDA095BA2FBC01CD010E94F81CE9
:10134000F6016683778380879187808191810E94EF
:10135000AB100E9422197B018C01F60182889388D0
:10136000A488B5882685378540895189DC01CB0161
:1013700088199909AA09BB09281739074A075B0781
:1013800040F4280D391D4A1D5B1D228B338B448B85
:10139000558BF60182899389A489B589E81AF90ADF
:1013A0000A0B1B0BC801B7010E94F61C9B01AC0184
:1013B000F60162857385848595850E94A81D18169F
:1013C00024F4F601848161E003C0F601848160E0C9
:1013D0000E94C11B8BE190E0C80ED91E96E5C9168C
:1013E00093E0D90609F09CCF8FE497E00E9429157D
:1013F000892B09F416C18FE497E00E945A15182F23
:101400008A3009F40EC18D3009F0F7C08FE497E0FF
:101410006AE172E00E942E18E0911E04F0911F0410
:10142000108286E593E090931F0480931E046BE185
:1014300072E00E9484029A8389838E010D5F1F4FA0
:10144000EE24FF240894E11CF11C80E090E06BE1A5
:1014500072E00E948402F80191838083FEE1EF161E
:10146000F10421F00E5F1F4F892B61F78B819C8166
:1014700060E070E04AE050E00E94510109811A8169
:10148000C8016DE172E00E948902892B29F4CE0126
:1014900001960E949108AAC0C80161E272E00E9410
:1014A0008902892B19F40E948608A0C0C80167E24E
:1014B00072E00E948902892B29F4CE0101960E94D4
:1014C000500894C0C80160E372E00E948902892B31
:1014D00051F48E2D992787FD9095BE016F5F7F4F48
:1014E0000E94E80783C0C80165E372E00E94890298
:1014F000892B29F4CE0101960E94980777C0C80174
:101500006BE372E00E948902892B29F4CE010196D7
:101510000E948B046BC0C80166E472E00E948902DD
:10152000892B29F4CE0101960E949E065FC0C80156
:1015300065E572E00E948902892B29F4CE010196AB
:101540000E94460453C0C80161E672E00E9489020D
:10155000892B29F4CE0101960E94400647C0C8019C
:101560006EE672E00E948902892B29F4CE01019671
:101570000E94E7053BC0C8016DE772E00E94890246
:10158000892B29F4CE0101960E9417052FC0C801AE
:101590006CE872E00E948902892B41F1C8016BE975
:1015A00072E00E948902892B29F4CE0101960E94E3
:1015B00088051CC0C80163EA72E00E948902892B79
:1015C00029F4CE0101960E94BF0810C0C8016EEA3E
:1015D00072E00E948902892B21F58E2D992787FDC3
:1015E0009095BE016F5F7F4F0E9407098FE497E0DF
:1015F00067EB72E00E942E1814C0992787FD909522
:101600000E94581E892B69F0E0911E04F0911F047E
:1016100024E0EE31F20728F41193F0931F04E093D5
:101620001E04EC960FB6F894DEBF0FBECDBFCF916F
:10163000DF911F910F91FF90EF90DF90CF90BF90BF
:10164000AF909F908F9008950F931F93582F122F54
:10165000413210F081E04AC080912B048823E1F7E9
:1016600082E080932B0400932D048FEF80939804E5
:101670001092530440935404A3E3B4E0FB0102C06E
:1016800081918D938E2F861B8417D0F310922C049A
:1016900080912C04550F852B80932C0480912E046F
:1016A000813041F410922E0480912C048093BB0071
:1016B00085EC01C085EE8093BC00112321F0809160
:1016C0002B048230E1F3809198048F3F11F480E085
:1016D0000DC080919804803211F482E007C080919F
:1016E0009804803311F084E001C083E01F910F91D2
:1016F0000895482F613210F081E0089580912B0405
:10170000843011F082E0089560937604A5E5B4E09A
:10171000842F9C01F90102C081918D938E2F841B2F
:101720008617D0F380E008951F920F920FB60F92A4
:101730000BB60F9211242F933F934F935F936F93A8
:101740007F938F939F93AF93BF93EF93FF9380917A
:10175000B90090E0887F90708036910509F4F2C05E
:1017600081369105CCF58832910509F47BC0893228
:101770009105B4F48031910509F46FC08131910570
:101780003CF4009709F447C1089709F04FC165C0C0
:101790008831910509F466C0809709F047C182C07D
:1017A0008034910509F4A4C08134910544F4803358
:1017B000910509F482C0C89709F038C189C0803505
:1017C000910509F489C08835910509F496C08834DB
:1017D000910509F02BC1AEC08839910509F413C1F8
:1017E00089399105ECF48837910509F4ABC0893744
:1017F00091054CF48836910509F4A4C08037910511
:1018000009F014C19FC08838910509F4FCC08039E3
:10181000910509F49DC08038910509F007C198C071
:10182000803B910509F4C6C0813B91054CF4803A98
:10183000910509F49FC0883A910509F0F7C0BAC034
:10184000803C910509F4E3C0883C910509F4DFC0B0
:10185000883B910509F0EAC0C2C080912C048093B6
:10186000BB00CFC09091530480915404981768F442
:1018700090915304E92FF0E0ED5CFB4F8081809361
:10188000BB009F5F90935304BCC080912D048823BC
:1018900009F44BC085ED8093BC008091BC0084FDB1
:1018A000FCCFC2C080E28093980485ED8093BC0099
:1018B0008091BC0084FDFCCFB7C080E38093980486
:1018C00085ED8093BC008091BC0084FDFCCFACC052
:1018D00088E3809398049BC0809153049091BB004F
:1018E000E82FF0E0ED5CFB4F90838F5F8093530413
:1018F000909153048091540482C08091530490913C
:10190000BB00E82FF0E0ED5CFB4F90838F5F80938E
:10191000530480912D04882341F085ED8093BC0011
:101920008091BC0084FDFCCF7FC081E080932E04B9
:1019300084EA6EC085ED8093BC008091BC0084FD7C
:10194000FCCF72C083E080932B041092970459C09F
:1019500080919704803208F056C08091970490914E
:10196000BB00E82FF0E0E958FB4F90838F5F809336
:10197000970447C080919704803230F4E091970437
:10198000F0E0E958FB4F108285ED8093BC00809118
:10199000BC0084FDFCCF10922B0460919704E09171
:1019A0003104F091320487E794E070E019951092C9
:1019B00097042DC084E080932B041092750410923C
:1019C0007604E0912F04F09130041995809176040B
:1019D000882329F481E08093760410925504909135
:1019E0007504E92FF0E0EB5AFB4F80818093BB0038
:1019F0009F5F909375049091750480917604981779
:101A000010F485EC01C085E88093BC000FC085EC24
:101A10008093BC0009C01092980485ED8093BC00AF
:101A20008091BC0084FDFCCF10922B04FF91EF91BC
:101A3000BF91AF919F918F917F916F915F914F91E6
:101A40003F912F910F900BBE0F900FBE0F901F90E4
:101A5000189510922B0481E080932D0410922E048F
:101A600084E161E00E94C11B85E161E00E94C11B2D
:101A7000E9EBF0E080818E7F808380818D7F8083A1
:101A800088E48093B80085E48093BC00089581E0E9
:101A90008093DE046093BB041092DC041092DD049A
:101AA00008952091BA0430E08091B904281B3109CF
:101AB000C90108954091B9048091BA04481718F0FB
:101AC0002FEF3FEF0AC0E42FF0E0E756FB4F808195
:101AD000282F30E04F5F4093B904C9010895E09189
:101AE000B9048091BA04E81718F0EFEFFFEF06C0D1
:101AF000F0E0E756FB4F8081E82FF0E0CF0108953A
:101B000008951092E2041092E10488EE93E0A0E0C0
:101B1000B0E08093E3049093E404A093E504B093D1
:101B2000E60485EC92E09093E0048093DF0408954E
:101B3000CF92DF92EF92FF920F931F93CF93DF9399
:101B40007C016B018A018091DE048823A1F0C0E052
:101B5000D0E00DC0D701ED91FC91D601AC0FBD1FB7
:101B60000190F081E02DC7016C9119952196C01765
:101B7000D10780F304C0CB01642F0E94790BC80108
:101B8000DF91CF911F910F91FF90EF90DF90CF9059
:101B90000895DF93CF930F92CDB7DEB7FC01698331
:101BA0008091DE048823C9F08091DD04803238F012
:101BB00081E090E09383828320E030E015C0809143
:101BC000DC04E82FF0E0E454FB4F998190838F5FB1
:101BD0008093DC048093DD0405C0CE01019661E0B2
:101BE0000E94790B21E030E0C9010F90CF91DF9185
:101BF00008950F93062F8091BB046CEB74E0409125
:101C0000DD0421E00E94240B1092DC041092DD041C
:101C10001092DE040F91089561E00E94F90D08957D
:101C20001092B9041092BA041092DC041092DD04F0
:101C30000E94290D08950F931F93CF93DF93FC010A
:101C4000738D76957170A685B7859585772329F074
:101C50008C91892309F454C004C08C91892309F024
:101C60004FC08389948920E001972FEF8F3F92071F
:101C7000D9F7C589D689A685B785158560E031E095
:101C800040E050E000E0CE01202F01972FEF8F3F82
:101C90009207D9F78C91812311F0632B03C0832F16
:101CA00080956823330F4F5F5F4F4830510559F7D8
:101CB0008789908D20E001972FEF8F3F9207D9F70A
:101CC0007111609580912D0520912E0590E001966F
:101CD0008F73907030E08217930779F0E0912D05B3
:101CE000F0E0E351FB4F608380912D0590E0019679
:101CF0008F73907080932D0503C0838D8160838FD7
:101D0000DF91CF911F910F9108951F920F920FB6FF
:101D10000F920BB60F9211242F933F934F935F9323
:101D20006F937F938F939F93AF93BF93EF93FF93A3
:101D30008091EB049091EC04009711F00E941B0E2F
:101D4000FF91EF91BF91AF919F918F917F916F9193
:101D50005F914F913F912F910F900BBE0F900FBE4F
:101D60000F901F9018951F920F920FB60F920BB6FF
:101D70000F9211242F933F934F935F936F937F9311
:101D80008F939F93AF93BF93EF93FF938091EB0457
:101D90009091EC04009711F00E941B0EFF91EF91BF
:101DA000BF91AF919F918F917F916F915F914F9173
:101DB0003F912F910F900BBE0F900FBE0F901F9071
:101DC00018951F920F920FB60F920BB60F92112417
:101DD0002F933F934F935F936F937F938F939F9333
:101DE000AF93BF93EF93FF938091EB049091EC043A
:101DF000009711F00E941B0EFF91EF91BF91AF91E0
:101E00009F918F917F916F915F914F913F912F9112
:101E10000F900BBE0F900FBE0F901F9018952F9232
:101E20003F924F925F926F927F928F929F92AF926A
:101E3000BF92CF92DF92EF92FF920F931F93DF93A7
:101E4000CF9300D00F92CDB7DEB71C0149835A83E0
:101E50006B837C834801590126013701CB01BA010C
:101E600020E030E040E050E00E948A1C87FD8CC0FA
:101E7000C501B40120E030E040E050E00E948A1C3F
:101E800087FD82C0C701B60120E030E040E050E0AD
:101E90000E948A1C87FD78C089819A81AB81BC81B0
:101EA000F10180839183A283B383D10114968D9233
:101EB0009D92AD92BC921797C086D186E286F3863A
:101EC00064A575A586A597A50E94F61C20E030E0C4
:101ED0004AE754E40E948E1C7B018C0189819A811F
:101EE000AB81BC81F10184879587A687B787C5013F
:101EF000B401A80197010E94AC1D5B016C01D101E6
:101F000050966D937D938D939C935397C301B2012B
:101F1000A80197010E948E1C7B018C01F101648B4A
:101F2000758B868B978B808D918D019769F560E01D
:101F300070E080E090E029813A814B815C810E94D1
:101F4000251CD1011C966D937D938D939C931F97B7
:101F500060E070E080E090E0A60195010E94251C01
:101F6000F101608B718B828B938B60E070E080E07D
:101F700090E0A80197010E94251CD10154966D9311
:101F80007D938D939C9357970F900F900F900F9088
:101F9000CF91DF911F910F91FF90EF90DF90CF9045
:101FA000BF90AF909F908F907F906F905F904F9079
:101FB0003F902F9008954F925F926F927F928F92F1
:101FC0009F92AF92BF92CF92DF92EF92FF920F93C8
:101FD0001F93CF93DF93EC013A014B017801890104
:101FE000CB01BA01A80197010E94A81D87FF4EC02E
:101FF00068AA79AA8AAA9BAAECAAFDAA0EAB1FAB73
:1020000088AD882309F442C04C8C5D8CF201A0801D
:10201000B180C280D380C601B501A80197010E949A
:10202000A81D181634F4F201E082F18202831383B2
:102030000DC0C601B501A40193010E948A1C88232A
:102040002CF4F2016082718282829382ACA0BDA0E6
:10205000CEA0DFA0ECA8FDA80EA91FA9C601B5015E
:10206000A80197010E94A81D181664F0E8A8F9A815
:102070000AA91BA9C601B501A80197010E948A1CE3
:10208000882324F4ECA2FDA20EA31FA3DF91CF911D
:102090001F910F91FF90EF90DF90CF90BF90AF9086
:1020A0009F908F907F906F905F904F9008959F9238
:1020B000AF92BF92CF92DF92EF92FF920F931F9356
:1020C000CF93DF93EC0199246130710511F49924C9
:1020D000939488AD91E08927981681F5EC8DFD8D5C
:1020E000E080F18002811381ECA2FDA20EA31FA368
:1020F000EA8DFB8D80819181A281B38188A799A708
:10210000AAA7BBA7ACA8BDA8CEA8DFA8C801B701E5
:10211000A60195010E94A81D181664F0A8A8B9A8E8
:10212000CAA8DBA8C801B701A60195010E948A1CB4
:10213000882324F4ACA2BDA2CEA2DFA298AEDF9188
:10214000CF911F910F91FF90EF90DF90CF90BF90B4
:10215000AF909F9008952F923F924F925F926F920F
:102160007F928F929F92AF92BF92CF92DF92EF9227
:10217000FF920F931F93DF93CF9300D000D0CDB782
:10218000DEB79E838D83DC01D8968C91882309F479
:10219000E5C00E94221969837A838B839C83ED8139
:1021A000FE8180A191A1A2A1B3A129813A814B8195
:1021B0005C81281B390B4A0B5B0B84A595A5A6A552
:1021C000B7A5281739074A075B0708F4C7C0028C70
:1021D000F38DE02D2080318042805380AD81BE811F
:1021E0005E96ED91FC915F97608171818281938110
:1021F000A20191010E94251C3B014C01ED81FE8151
:1022000020893189428953890E94AC1DAD81BE81EC
:1022100094962D913D914D915C9197970E94261C2B
:102220007B018C01ED81FE8164A375A386A397A336
:10223000A4A8B5A8C6A8D7A8A60195010E94A81D64
:10224000181674F0ED81FE81A0A8B1A8C2A8D3A889
:10225000C801B701A60195010E948A1C882344F495
:10226000AD81BE819496AD92BD92CD92DC9297974E
:10227000C401B301ED81FE812485358546855785EE
:102280000E94AC1DAD81BE8194962D913D914D91E2
:102290005C9197970E94261C7B018C01C201B101C1
:1022A000ED81FE8120A531A542A553A50E94251CE4
:1022B000AD81BE8154962D913D914D915C91579782
:1022C0000E94AC1D9B01AC01C801B7010E94251CF6
:1022D0007B018C01ED81FE81D4A8C5A8B6A8A7A872
:1022E0002D2D3C2D4B2D5A2D0E94A81D1816BCF0EB
:1022F000AD81BE81D096DC90D097D196CC90D1970D
:10230000D296BC90D297D396AC90C801B7012D2D30
:102310003C2D4B2D5A2D0E948A1C882334F48D2D80
:102320009C2DAB2DBA2D7C018D01AD81BE815C96BB
:10233000ED91FC915D97E082F18202831383FD01B0
:1023400020A631A642A653A689819A81AB81BC8181
:1023500080A391A3A2A3B3A381E001C080E026964D
:102360000FB6F894DEBF0FBECDBFCF91DF911F91A6
:102370000F91FF90EF90DF90CF90BF90AF909F9024
:102380008F907F906F905F904F903F902F90089527
:102390004F925F926F927F928F929F92AF92BF9275
:1023A000CF92DF92EF92FF920F931F93DF93CF9321
:1023B000CDB7DEB74C0127013801E88CF98CFC0160
:1023C000558F448F738F628F378F268F10AE40E00A
:1023D00050E060E070E000E010E02FE733E40E949E
:1023E000DB0F84E690E0A0E0B0E0F40184A795A7BD
:1023F000A6A7B7A780AD882391F1808D918DE816AF
:10240000F90669F160E070E080E090E024853585B0
:10241000468557850E94251CF40164877587868749
:10242000978760E070E080E090E020893189428900
:1024300053890E94251CF401608B718B828B938BD6
:1024400060E070E080E090E0248935894689578912
:102450000E94251CF401648B758B868B978BF4018D
:10246000F18EE08EC401B301A20196018501CC88F2
:10247000DD88EE88FF880E940F0F0E942219F40168
:1024800024A535A546A557A5621B730B840B950B98
:1024900060A371A382A393A3CF91DF911F910F91AA
:1024A000FF90EF90DF90CF90BF90AF909F908F9074
:1024B0007F906F905F904F90089508951F920F92B4
:1024C0000FB60F920BB60F9211242F933F934F9399
:1024D0008F939F93EF93FF938091C00082FD1DC067
:1024E0004091C60020916F05309170052F5F3F4FDE
:1024F0002F733070809171059091720528173907FC
:1025000071F0E0916F05F0917005E15DFA4F408345
:102510003093700520936F0502C08091C600FF9133
:10252000EF919F918F914F913F912F910F900BBE03
:102530000F900FBE0F901F90189508951F920F9245
:102540000FB60F920BB60F9211242F933F934F9318
:102550008F939F93EF93FF938091C80082FD1DC0DE
:102560004091CE002091F7053091F8052F5F3F4F45
:102570002F7330708091F9059091FA05281739076B
:1025800071F0E091F705F091F805E954FA4F4083B6
:102590003093F8052093F70502C08091CE00FF919B
:1025A000EF919F918F914F913F912F910F900BBE83
:1025B0000F900FBE0F901F90189508951F920F92C5
:1025C0000FB60F920BB60F9211242F933F934F9398
:1025D0008F939F93EF93FF938091D00082FD1DC056
:1025E0004091D60020917F06309180062F5F3F4FAB
:1025F0002F733070809181069091820628173907D9
:1026000071F0E0917F06F0918006E15CF94F408324
:102610003093800620937F0602C08091D600FF9100
:10262000EF919F918F914F913F912F910F900BBE02
:102630000F900FBE0F901F90189508951F920F9244
:102640000FB60F920BB60F9211242F933F934F9317
:102650008F939F93EF93FF938091300182FD1DC074
:102660004091360120910707309108072F5F3F4FB7
:102670002F7330708091090790910A072817390746
:1026800071F0E0910707F0910807E953F94F408393
:10269000309308072093070702C080913601FF910D
:1026A000EF919F918F914F913F912F910F900BBE82
:1026B0000F900FBE0F901F901895E0915B07F0915F
:1026C0005C07E05CFF4F8191919120813181821BF9
:1026D000930B8F739070892B11F00E945D12E09123
:1026E0007D07F0917E07E05CFF4F81919191208101
:1026F0003181821B930B8F739070892B11F00E9494
:102700009D12E0919F07F091A007E05CFF4F81913F
:10271000919120813181821B930B8F739070892B53
:1027200011F00E94DD12E091C107F091C207E05C58
:10273000FF4F8191919120813181821B930B8F7387
:102740009070892B11F00E941D1308951F920F9213
:102750000FB60F920BB60F9211242F933F938F93C6
:102760009F93EF93FF932091B3053091B40580912F
:10277000B5059091B6052817390731F48091C1004D
:102780008F7D8093C10014C0E091B505F091B6052E
:10279000ED58FA4F20818091B5059091B6050196CC
:1027A0008F7390709093B6058093B5052093C60003
:1027B000FF91EF919F918F913F912F910F900BBEC1
:1027C0000F900FBE0F901F9018951F920F920FB68B
:1027D0000F920BB60F9211242F933F938F939F93D9
:1027E000EF93FF9320913B0630913C0680913D068C
:1027F00090913E062817390731F48091C9008F7DEA
:102800008093C90014C0E0913D06F0913E06E5506A
:10281000FA4F208180913D0690913E0601968F737C
:10282000907090933E0680933D062093CE00FF91DA
:10283000EF919F918F913F912F910F900BBE0F9031
:102840000FBE0F901F9018951F920F920FB60F9208
:102850000BB60F9211242F933F938F939F93EF9377
:10286000FF932091C3063091C4068091C5069091D4
:10287000C6062817390731F48091D1008F7D8093E7
:10288000D10014C0E091C506F091C606ED57F94F8E
:1028900020818091C5069091C60601968F73907035
:1028A0009093C6068093C5062093D600FF91EF91C2
:1028B0009F918F913F912F910F900BBE0F900FBE64
:1028C0000F901F9018951F920F920FB60F920BB694
:1028D0000F9211242F933F938F939F93EF93FF9326
:1028E00020914B0730914C0780914D0790914E07F6
:1028F0002817390731F4809131018F7D80933101A0
:1029000014C0E0914D07F0914E07E55FF84F20812C
:1029100080914D0790914E0701968F739070909320
:102920004E0780934D0720933601FF91EF919F91C1
:102930008F913F912F910F900BBE0F900FBE0F9074
:102940001F901895AF92BF92DF92EF92FF920F9374
:102950001F93CF93DF93EC017A018B01DD2440308C
:1029600081EE580780E0680780E0780711F0DD24E9
:10297000D39491E0A92EB12CEC89FD89DD2069F07A
:10298000C50108A002C0880F991F0A94E2F780834E
:1029900060E079E08DE390E005C0108260E874E8C3
:1029A0008EE190E0A80197010E942E1E2150304038
:1029B00040405040569547953795279580E1203007
:1029C000380720F0DD2011F0DD24D6CFE889F98921
:1029D0003083EA89FB89208319A2EE89FF8940812F
:1029E00021E030E0C9010C8C02C0880F991F0A94C5
:1029F000E2F7482B4083EE89FF894081C9010D8CA5
:102A000002C0880F991F0A94E2F7482B4083EE8991
:102A1000FF894081C9010E8C02C0880F991F0A945A
:102A2000E2F7482B4083EE89FF8980810F8C02C03A
:102A3000220F331F0A94E2F7209528232083DF9189
:102A4000CF911F910F91FF90EF90DF90BF90AF90CB
:102A50000895DC011C96ED91FC911D97E05CFF4F01
:102A60002191319180819181281B390B2F73307016
:102A7000C9010895DC011C96ED91FC911D97E05C65
:102A8000FF4F20813181E054F040DF01AE5BBF4F4A
:102A90008D919C9111972817390719F42FEF3FEF6B
:102AA00007C08D919C91E80FF91F8081282F30E09D
:102AB000C9010895DC011C96ED91FC911D97E05C25
:102AC000FF4F20813181E054F040DF01AE5BBF4F0A
:102AD0008D919C9111972817390719F42FEF3FEF2B
:102AE00010C08D919C911197E80FF91F20818D9155
:102AF0009C91119701968F73907011969C938E9371
:102B000030E0C9010895DC0191968C91919788235A
:102B100039F05496ED91FC915597808186FFF9CF5D
:102B200091961C920895CF93DF93EC01EE85FF857B
:102B3000E05CFF4F20813181E054F0402F5F3F4F38
:102B40002F733070DF01AE5BBF4F8D919C91119759
:102B500028173907D1F3E05CFF4F80819181E05461
:102B6000F040E80FF91F6083EE85FF85E05CFF4FC2
:102B700031832083EE89FF89208181E090E00F8CF2
:102B800002C0880F991F0A94E2F7282B208381E066
:102B900089A3EC89FD8980818064808381E090E055
:102BA000DF91CF9108951F93109252071092510711
:102BB00028EE33E040E050E0209353073093540771
:102BC000409355075093560765ED72E07093500798
:102BD00060934F078FE295E090935C0780935B07CB
:102BE00083E795E090935E0780935D0785EC90E026
:102BF0009093600780935F0784EC90E09093620766
:102C00008093610780EC90E0909364078093630762
:102C100081EC90E0909366078093650782EC90E0EA
:102C2000909368078093670786EC90E090936A071B
:102C30008093690714E010936B07B3E0B0936C07BF
:102C4000A7E0A0936D07F5E0F0936E07E1E0E09355
:102C50006F071092740710927307209375073093D3
:102C600076074093770750937807709372076093C5
:102C7000710787EB95E090937E0780937D078BEF3C
:102C800095E09093800780937F078DEC90E0909380
:102C90008207809381078CEC90E090938407809367
:102CA000830788EC90E0909386078093850789ECF2
:102CB00090E090938807809387078AEC90E0909348
:102CC0008A07809389078EEC90E090938C0780931D
:102CD0008B0710938D07B0938E07A0938F07F09307
:102CE0009007E09391071092960710929507209312
:102CF0009707309398074093990750939A077093DA
:102D00009407609393078FE396E09093A0078093D6
:102D10009F0783E896E09093A2078093A10785ED33
:102D200090E09093A4078093A30784ED90E09093A4
:102D3000A6078093A50780ED90E09093A807809365
:102D4000A70781ED90E09093AA078093A90782EDF1
:102D500090E09093AC078093AB0786ED90E0909362
:102D6000AE078093AD071093AF07B093B007A09361
:102D7000B107F093B207E093B3071092B80710922F
:102D8000B7072093B9073093BA074093BB07509316
:102D9000BC077093B6076093B50787EC96E09093F5
:102DA000C2078093C1078BE097E09093C40780939C
:102DB000C30785E391E09093C6078093C50784E33A
:102DC00091E09093C8078093C70780E391E09093C8
:102DD000CA078093C90781E391E09093CC07809361
:102DE000CB0782E391E09093CE078093CD0786E3F3
:102DF00091E09093D0078093CF071093D107B093C1
:102E0000D207A093D307F093D407E093D5071F917F
:102E10000895CF92DF92EF92FF920F931F93CF937B
:102E2000DF937C016B018A01C0E0D0E00FC0D601C6
:102E30006D916D01D701ED91FC910190F081E02D34
:102E4000C7011995C80FD91F015010400115110570
:102E500071F7CE01DF91CF911F910F91FF90EF900D
:102E6000DF90CF900895DC01ED91FC910190F0810D
:102E7000E02D19950895EF92FF920F931F938C0107
:102E8000DC01ED91FC910190F081E02D6DE0199550
:102E90007C01D801ED91FC910190F081E02DC801F9
:102EA0006AE019959C012E0D3F1DC9011F910F91DC
:102EB000FF90EF900895CF93DF93EC0161157105BA
:102EC00019F420E030E00FC0DB010D900020E9F79D
:102ED0001197A61BB70BE881F9810280F381E02DE1
:102EE000AD0119959C01C901DF91CF9108954F92D1
:102EF0005F927F928F929F92AF92BF92CF92DF921A
:102F0000EF92FF920F931F93DF93CF93CDB7DEB76E
:102F1000A1970FB6F894DEBF0FBECDBF2C01742E63
:102F2000CB01223008F42AE019A231E2C32ED12CC1
:102F3000CC0EDD1E822E9924AA24BB24672D752F6A
:102F4000A50194010E942E1E79018A01C801B701D2
:102F5000A50194010E940F1E472D461B0894C1082D
:102F6000D1084A3014F4405D01C0495CF601408349
:102F7000E114F1040105110521F07E2C5F2DC8013B
:102F8000DDCFC201B6010E945B17A1960FB6F8947F
:102F9000DEBF0FBECDBFCF91DF911F910F91FF908C
:102FA000EF90DF90CF90BF90AF909F908F907F90E9
:102FB0005F904F900895CF92DF92EF92FF920F9320
:102FC0001F93CF93DF93EC016A017B01211531053B
:102FD00041F4E881F9810190F081E02D642F199589
:102FE0001FC02A303105D1F477FF17C0E881F9817D
:102FF0000190F081E02D6DE219958C014427552751
:10300000BA014C195D096E097F09CE012AE00E94C0
:1030100077179801280F391F04C02AE00E947717FC
:103020009C01C901DF91CF911F910F91FF90EF900B
:10303000DF90CF900895EF92FF920F931F937B0143
:103040009A010027F7FC0095102FB801A7010E94F4
:10305000DB171F910F91FF90EF900895EF92FF9271
:103060000F931F937C010E945B178C01C7010E9484
:103070003B17080F191FC8011F910F91FF90EF9088
:103080000895CF93DF930E9430190E944B05CDE540
:10309000D3E10E9440092097E1F30E945D13F9CF2C
:1030A0000F931F93CF93DF93BC018230910510F4EF
:1030B00062E070E0E091E007F091E107A0E0B0E0AD
:1030C00040E050E024C08081918186179707D0F0BE
:1030D0008617970771F482819381109729F01396D0
:1030E0009C938E9312972CC09093E1078093E007F6
:1030F00027C04115510519F08417950718F4EF0101
:103100008D01AC01DF01828193819C01F90130972F
:10311000D1F641155105F9F0CA01861B970B843091
:10312000910580F48A819B810115110521F0F80138
:103130009383828304C09093E1078093E007FE01AC
:1031400032962FC0FE01E80FF91F61937193029729
:103150009983888326C08DB79EB788579040209169
:10316000BC023091BD0228173907C8F4AC01421BDC
:10317000530B4617570798F0CB010296481759078B
:1031800070F0820F931F9093BD028093BC029093C6
:10319000BF028093BE02F9016193719302C0E0E027
:1031A000F0E0CF01DF91CF911F910F9108950E9420
:1031B000501808951F920F920FB60F9211242F935B
:1031C0003F938F939F93AF93BF938091DB07909131
:1031D000DC07A091DD07B091DE073091DF07019693
:1031E000A11DB11D232F2D5F2D3720F02D570196E6
:1031F000A11DB11D2093DF078093DB079093DC07AF
:10320000A093DD07B093DE078091D7079091D80790
:10321000A091D907B091DA070196A11DB11D809345
:10322000D7079093D807A093D907B093DA07BF9137
:10323000AF919F918F913F912F910F900FBE0F9063
:103240001F9018958FB7F8942091DB073091DC0719
:103250004091DD075091DE078FBFB901CA01089583
:10326000789484B5826084BD84B5816084BD85B561
:10327000826085BD85B5816085BDEEE6F0E0808128
:1032800081608083E1E8F0E0108280818260808349
:10329000808181608083E0E8F0E0808181608083CC
:1032A000E1EBF0E0808184608083E0EBF0E08081FE
:1032B00081608083E1E9F0E08081826080838081A9
:1032C00081608083E0E9F0E0808181608083E1EAD1
:1032D000F0E0808182608083808181608083E0EA89
:1032E000F0E0808181608083E1E2F1E080818260B2
:1032F0008083808181608083E0E2F1E08081816071
:103300008083EAE7F0E0808184608083808182604E
:103310008083808181608083808180688083109237
:10332000C1000895EF92FF920F931F93CF93DF9305
:103330007B018C013FB7F8948091D7079091D80713
:10334000A091D907B091DA0726B5A89B05C02F3FF9
:1033500019F00196A11DB11D3FBFBA2FA92F982FBB
:103360008827820F911DA11DB11D52E0880F991F62
:10337000AA1FBB1F5A95D1F7EC0130C00E94241C34
:103380003FB7F8948091D7079091D807A091D907BB
:10339000B091DA0726B5A89B05C02F3F19F001961A
:1033A000A11DB11D3FBFBA2FA92F982F8827820FCB
:1033B000911DA11DB11D32E0880F991FAA1FBB1FCF
:1033C0003A95D1F78C1B9D0B885E9340B8F2089418
:1033D000E108F10801091109C851DC4FE114F104B9
:1033E0000105110559F6DF91CF911F910F91FF90C3
:1033F000EF900895382F863308F0365320917B00E4
:10340000832F86958695869590E08170907043E035
:10341000880F991F4A95E1F7277F282B20937B007F
:1034200037708091C0028295880F880F807C832B33
:1034300080937C0080917A00806480937A008091F0
:103440007A0086FDFCCF2091780040917900942F7E
:1034500080E030E0282B392BC90108951F93CF93CA
:10346000DF93182FEB0161E00E940E1B209709F4F7
:10347000CAC0CF3FD10509F4C9C0E12FF0E0E25442
:10348000FE4F8491893009F466C08A30B0F48430EC
:10349000F1F1853040F4823059F1833070F581309C
:1034A00009F0AEC020C0873009F443C0883008F06E
:1034B00048C0863009F0A4C034C08D3009F478C00B
:1034C0008E3038F48B3009F45AC08C3008F066C066
:1034D0004CC0803109F480C0813109F487C08F303D
:1034E00009F08EC06FC084B5806884BDC7BD92C02E
:1034F00084B5806284BDC8BD8DC080918000806825
:1035000080938000D0938900C093880083C080910D
:103510008000806280938000D0938B00C0938A00EB
:1035200079C08091B00080688093B000C093B300F0
:1035300071C08091B00080628093B000C093B400ED
:1035400069C080919000806880939000D09399002A
:10355000C09398005FC0809190008062809390003B
:10356000D0939B00C0939A0055C0809190008860D2
:1035700080939000D0939D00C0939C004BC080919D
:10358000A00080688093A0008091A0008F7B809332
:10359000A000D093A900C093A8003CC08091A000D7
:1035A00080628093A000D093AB00C093AA0032C089
:1035B0008091A00088608093A000D093AD00C0935C
:1035C000AC0028C080912001806880932001D093B6
:1035D0002901C09328011EC0809120018062809340
:1035E0002001D0932B01C0932A0114C080912001A7
:1035F000886080932001D0932D01C0932C010AC0D4
:10360000C038D1051CF4812F60E002C0812F61E039
:103610000E94C11BDF91CF911F910895CF93DF933B
:10362000482F50E0CA0188589E4FFC0134914E5CEF
:103630005E4FFA018491882369F190E0880F991F09
:10364000FC01EC51FF4FA591B491FC01E250FF4FFA
:10365000C591D491662351F42FB7F8948C91932F90
:10366000909589238C93888189230BC0623061F403
:103670002FB7F8948C91932F909589238C93888100
:10368000832B88832FBF06C09FB7F8948C91832B20
:103690008C939FBFDF91CF910895893009F449C081
:1036A0008A30A0F4843051F1853040F4823079F1D1
:1036B000833000F5813009F063C026C0873079F18E
:1036C000883098F5863009F05BC025C08D3009F44C
:1036D00042C08E3028F48B30B1F18C30C0F52DC053
:1036E000803109F442C0813109F445C08F3009F0BE
:1036F00047C037C0809180008F7703C080918000E1
:103700008F7D80938000089584B58F7702C084B543
:103710008F7D84BD08958091B0008F7703C0809124
:10372000B0008F7D8093B0000895809190008F77D6
:1037300007C0809190008F7D03C080919000877FAB
:103740008093900008958091A0008F7707C08091AA
:10375000A0008F7D03C08091A000877F8093A00090
:103760000895809120018F7703C0809120018F7D83
:1037700080932001089580912001877F809320010C
:103780000895FF920F931F93F62E482F50E0CA0121
:1037900082549E4FFC012491CA0188589E4FFC011F
:1037A00014914E5C5E4FFA0104910023C9F022236C
:1037B00019F0822F0E944D1BE02FF0E0EE0FFF1F4B
:1037C000E250FF4FA591B4919FB7F894FF2021F4E8
:1037D0008C911095812302C08C91812B8C939FBF7B
:1037E0001F910F91FF9008950F931F93482F50E062
:1037F000CA0182549E4FFC012491CA0188589E4FF1
:10380000FC0104914E5C5E4FFA011491112319F4EE
:1038100020E030E015C0222319F0822F0E944D1BBA
:10382000812F90E0880F991F885E9E4FFC01A59123
:10383000B4918C9120E030E0802311F021E030E061
:10384000C9011F910F91089508955058BB27AA27C9
:103850000ED044C135D130F03AD120F031F49F3F41
:1038600011F41EF42AC10EF4E095E7FB20C1E92F04
:1038700046D180F3BA17620773078407950718F0DB
:1038800071F49EF55EC10EF4E0950B2EBA2FA02DBB
:103890000B01B90190010C01CA01A0011124FF27FD
:1038A000591B99F0593F50F4503E68F11A16F040F8
:1038B000A22F232F342F4427585FF3CF46953795F7
:1038C0002795A795F0405395C9F77EF41F16BA0BBC
:1038D000620B730B840BBAF09150A1F0FF0FBB1F6A
:1038E000661F771F881FC2F70EC0BA0F621F731FB3
:1038F000841F48F4879577956795B795F7959E3F10
:1039000008F0B3CF9395880F08F09927EE0F97959D
:1039100087950895A8D008F481E008950CD0DEC002
:10392000D6D040F0CDD030F021F45F3F19F0BFC0C9
:10393000511108C1C2C0E3D098F39923C9F35523AC
:10394000B1F3951B550BBB27AA2762177307840792
:1039500038F09F5F5F4F220F331F441FAA1FA9F348
:1039600033D00E2E3AF0E0E830D091505040E6953A
:10397000001CCAF729D0FE2F27D0660F771F881F9B
:10398000BB1F261737074807AB07B0E809F0BB0B8A
:10399000802DBF01FF2793585F4F2AF09E3F5105AE
:1039A00068F085C0CFC05F3FECF3983EDCF38695AE
:1039B00077956795B795F7959F5FC9F7880F911D24
:1039C0009695879597F90895E1E0660F771F881F10
:1039D000BB1F621773078407BA0720F0621B730BC3
:1039E000840BBA0BEE1F88F7E0950895E89409C0A0
:1039F00097FB3EF490958095709561957F4F8F4F22
:103A00009F4F9923A9F0F92F96E9BB279395F69537
:103A1000879577956795B795F111F8CFFAF4BB0FB5
:103A200011F460FF1BC06F5F7F4F8F4F9F4F16C019
:103A3000882311F096E911C0772321F09EE8872FA3
:103A4000762F05C0662371F096E8862F70E060E05F
:103A50002AF09A95660F771F881FDAF7880F9695D8
:103A6000879597F90895990F0008550FAA0BE0E87C
:103A7000FEEF16161706E807F907C0F01216130630
:103A8000E407F50798F0621B730B840B950B39F470
:103A90000A2661F0232B242B252B21F408950A26D6
:103AA00009F4A140A6958FEF811D811D089597F916
:103AB0009F6780E870E060E008959FEF80EC0895D4
:103AC00000240A94161617061806090608950024FD
:103AD0000A9412161306140605060895092E039477
:103AE000000C11F4882352F0BB0F40F4BF2B11F4EB
:103AF00060FF04C06F5F7F4F8F4F9F4F089557FD4A
:103B00009058440F551F59F05F3F71F04795880F4B
:103B100097FB991F61F09F3F79F0879508951216E2
:103B200013061406551FF2CF4695F1DF08C016168E
:103B300017061806991FF1CF86957105610508943F
:103B40000895E894BB2766277727CB0197F9089556
:103B50008ADF08F48FEF08950BD0C0CFB1DF28F0D3
:103B6000B6DF18F0952309F0A2CFA7CF1124EACF32
:103B7000C6DFA0F3959FD1F3950F50E0551F629FCC
:103B8000F001729FBB27F00DB11D639FAA27F00DB6
:103B9000B11DAA1F649F6627B00DA11D661F829FDD
:103BA0002227B00DA11D621F739FB00DA11D621FC2
:103BB000839FA00D611D221F749F3327A00D611DDF
:103BC000231F849F600D211D822F762F6A2F1124C1
:103BD0009F5750408AF0E1F088234AF0EE0FFF1F14
:103BE000BB1F661F771F881F91505040A9F79E3F4B
:103BF000510570F05CCFA6CF5F3FECF3983EDCF34D
:103C0000869577956795B795F795E7959F5FC1F787
:103C1000FE2B880F911D9695879597F90895629FC1
:103C2000D001739FF001829FE00DF11D649FE00DB4
:103C3000F11D929FF00D839FF00D749FF00D659F15
:103C4000F00D9927729FB00DE11DF91F639FB00D14
:103C5000E11DF91FBD01CF0111240895A1E21A2E23
:103C6000AA1BBB1BFD010DC0AA1FBB1FEE1FFF1F20
:103C7000A217B307E407F50720F0A21BB30BE40B70
:103C8000F50B661F771F881F991F1A9469F76095B7
:103C90007095809590959B01AC01BD01CF01089571
:103CA000EE0FFF1F0590F491E02D1994803209F07A
:103CB00091110CC080528F55E0F70895911106C004
:103CC000803219F089508550D0F7089599278827B8
:103CD00008952F923F924F925F926F927F928F92B0
:103CE0009F92AF92BF92CF92DF92EF92FF920F938B
:103CF0001F93CF93DF93CDB7DEB7CA1BDB0B0FB695
:103D0000F894DEBF0FBECDBF19942A883988488841
:103D10005F846E847D848C849B84AA84B984C884E7
:103D2000DF80EE80FD800C811B81AA81B981CE0FDE
:103D3000D11D0FB6F894DEBF0FBECDBFED010895C3
:043D4000F894FFCF25
:103D4400736F6674006469676900616E616C004436
:103D5400004100696E006F757400002000536574A3
:103D640000526573657400426C696E6B50696E0035
:103D740052656164005772697465005365745077C5
:103D84006D467265710050696452656C6179437265
:103D9400656174650050696452656C61795365743A
:103DA4000050696452656C617954756E65005069A0
:103DB4006452656C6179456E61626C65004861723C
:103DC40064536572436F6E6E65637400536F6674FB
:103DD400536572436F6E6E65637400536572536509
:103DE4006E64005365725265636569766500493295
:103DF40063577269746500646F6E6500E40764005C
:103E04000100000000C90D980D510D5A0D6F0D8071
:103E14000D000000009315091729155A153A15834A
:023E2400150087
:00000001FF
