:100000000C946F010C949C010C949C010C949C0129
:100010000C949C010C949C010C949C010C949C01EC
:100020000C949C010C94740B0C94A20B0C94D00BAC
:100030000C949C010C949C010C949C010C949C01CC
:100040000C949C010C949C010C949C010C949C01BC
:100050000C949C010C949C010C949C010C944718EA
:100060000C949C010C94CB110C9413130C949C01D4
:100070000C949C010C949C010C949C010C949C018C
:100080000C949C010C949C010C949C010C949C017C
:100090000C940B120C9452130C949C010C949C0124
:1000A0000C949C010C949C010C949C010C949C015C
:1000B0000C949C010C949C010C949C010C949C014C
:1000C0000C949C010C949C010C949C010C944B127C
:1000D0000C9491130C949C010C948B120C94D013DF
:1000E0000C949C0100C201000100110011000C00E1
:1000F00000E100000A002500250021000096000014
:100100001900390039003600127A00001F0046003D
:10011000460044008070000022004D004D004A005F
:10012000004B00003600750075007200403800007A
:100130004A009C009C009900802500007200EC00A1
:10014000EC00E900C0120000E900DA01DA01D70191
:1001500060090000D701B603B603B303B004000082
:10016000B3036E076E076B07580200006E07DC0EC4
:10017000DC0ED80E2C010000DC0EC11DC11DBE1D01
:1001800000002100240027002A002D003000330049
:1001900001010000040107010A01000022002500FE
:1001A00028002B002E003100340002010000050160
:1001B00008010B01000020002300260029002C006C
:1001C0002F003200000100000301060109010505AE
:1001D0000505070508080808020202020A0A0808BD
:1001E00004040404010101010101010103030303EB
:1001F00003030303040707070C0C0C0C0C0C0C0C7A
:100200000202020206060606060606060B0B0B0B8A
:100210000B0B0B0B010210202008081020401020AF
:1002200040800201020108040201010204081020BA
:1002300040808040201008040201800402018040B8
:100240002010080402010804020101020408102021
:10025000408001020408102040800000090A0208C2
:100260000B0C0D0706030401000000000000000055
:10027000000000000000000000000000000000007E
:1002800000000000000011100F000000000000003E
:10029000000000000000000000000000000000005E
:1002A000494E46494E4954594E414ECDCCCC3D0A5B
:1002B000D7233C17B7D13877CC2B329595E6241F3E
:1002C000B14F0A000020410000C84200401C4620F7
:1002D000BCBE4CCA1B0E5AAEC59D740040151124FD
:1002E0001FBECFEFD1E2DEBFCDBF00E00CBF12E0FA
:1002F000A0E0B2E0EAE9FBE300E00BBF02C0079038
:100300000D92A43DB107D9F71BBE1AE0A4EDB2E0EF
:1003100001C01D92AE34B107E1F712E0CEEDD2E09C
:1003200004C02297FE010E947D1DCC3DD107C9F774
:100330000E94AE170C94CB1D0C9400002F923F929C
:100340005F926F927F928F929F92AF92BF92CF9265
:10035000DF92EF92FF920F931F93CF93DF938C0165
:100360001B01EA016115710519F0FB01918380837E
:10037000209749F0CE010297839728F020E030E0E3
:1003800040E050E0F6C0F801A1908F018A2D90E086
:100390000E94891D892BB9F7FDE2AF1631F4F801EF
:1003A000A1908F015524539407C0FBE2AF1619F4B6
:1003B000F801A1908F015524209719F0C031D10583
:1003C000C1F4F0E3AF1679F4F8018081883711F0B9
:1003D000883549F4F801A1800E5F1F4FF2E05F2AD3
:1003E000C0E1D0E006C0209721F480E3A816E9F42C
:1003F00027C0C830D10531F1C930D10524F4C2304D
:10040000D10531F50CC0CA30D10589F0C031D10514
:10041000F9F4C12CD12CE12CB8E0FB2E28C0C12C62
:10042000D12CE12CA0E4FA2E22C0CAE0D0E0FCECF2
:10043000CF2EFCECDF2EFCECEF2EFCE0FF2E17C0E5
:10044000C8E0D0E0C12CD12CE12CE0E1FE2E0FC0A1
:100450009E01442737FD4095542F60E070E080E016
:1004600090E80E94451DC901DA016C017D0120E080
:1004700030E040E050E060E03E01882477FC80946A
:10048000982C70EDB72EBA0CE9E0EB1570F48A2DBC
:1004900081548A3118F499ECB92E06C08A2D815600
:1004A0008A3150F589EAB82EBA0C8B2D90E08C1762
:1004B0009D0714F56F3FE1F0C216D306E406F5067A
:1004C000B0F0CA01B901A40193010E94131D9B0160
:1004D000AC012B0D311D411D511D2130F0E03F07B6
:1004E000F0E04F07F0E85F0710F461E001C06FEF44
:1004F000F801A1908F01C5CF2114310481F066234A
:1005000031F001501040F1011183008308C051FE09
:100510001AC002501040F1011183008314C067FF1C
:1005200012C050FC05C02FEF3FEF4FEF5FE704C054
:1005300020E030E040E050E882E290E090934D0A05
:1005400080934C0A16C050FE08C0509540953095D7
:1005500021953F4F4F4F5F4F0CC057FF0AC082E2BB
:1005600090E090934D0A80934C0A2FEF3FEF4FEFAE
:100570005FE7B901CA01DF91CF911F910F91FF9001
:10058000EF90DF90CF90BF90AF909F908F907F9033
:100590006F905F903F902F900895662777270C9477
:1005A0001B0344ED52E00E94E9020895FB01DC01C7
:1005B0008D9181341CF08B350CF4805E6191613437
:1005C0001CF06B350CF4605E861B611189F3990B8E
:1005D0000895009731F4DA018D919C91009709F408
:1005E0000EC0DC01FB013D912191222319F032174D
:1005F000C9F3FACF332331F4DA011D921C92882714
:10060000992708951197AF93BF93FB013D912191D5
:10061000321771F4332321F488279927119702C0E8
:100620001E921196FA01A193B0839F918F91089524
:10063000222369F7EACFA0E0B0E0E1E2F3E00C9416
:100640009A1DEC015B016115710519F0FB019183A5
:100650008083F9908F2D90E00E94891D892BC9F726
:10066000FDE2FF1621F4F990EE24E39405C02BE29D
:10067000F21609F4F990EE248E0101501040C801E1
:1006800060EA72E043E050E00E947B04892B01F5B0
:100690008E010E5F1F4FC80163EA72E045E050E033
:1006A0000E947B04892B19F48E01095F1F4FA1144E
:1006B000B10419F0F50111830083E0FC04C070E07F
:1006C00090E080E814C070E090E080E86FEF08C12F
:1006D000C80168EA72E043E050E00E947B04892B85
:1006E00069F4A114B10429F470E090E080EC6FE7A4
:1006F000F7C02296F501D183C083F6CF88249924D0
:1007000040E050E060E070E0EF2DE053EA30A0F50B
:10071000F2E0EF2A8E2D90E09C0128703070E2FE0E
:1007200006C0232B79F50894811C911C2BC0232B28
:1007300019F0089481089108DB01CA0112E0880FC2
:10074000991FAA1FBB1F1A95D1F7480F591F6A1F7F
:100750007B1F440F551F661F771F4E0F511D611DD4
:10076000711D483929E9520729E9620729E1720711
:1007700048F084E0E82A06C0EE3F31F4E3FC39C0DB
:1007800098E0E92AF990C0CFE53311F0E53189F519
:1007900029912D3219F4E0E1EE2A05C02B3219F02F
:1007A00081E090E003C0299182E090E0E22FE053E5
:1007B000EA3018F0C81BD90B1CC020E030E0FCE088
:1007C00020383F075CF4C901880F991F880F991FD3
:1007D000280F391F220F331F2E0F311DE991E053CF
:1007E000EA3068F3E4FE03C0309521953F4F820E56
:1007F000931ECE2CDD24E1FE07C0A114B10421F02C
:100800002197F501D183C083CB01BA010E94FA1B65
:100810007B018C01F3E0CF22DD2423E0C216D1045A
:1008200021F417FB109517F9109557016801C801BD
:10083000B70120E030E040E050E00E948E1B8823AA
:1008400009F44AC097FE0DC02FEBE22E22E0F22EF3
:100850009094819491089394C0E2D0E000E010E07D
:1008600012C097EDE92E92E0F92EF6CFF70125910F
:10087000359145915491C601B5010E94B01C5B01B0
:100880006C018C1A9D0A8C169D0684F7D595C79528
:100890000F5F1F4F0630110529F08CEF9FEFE80E18
:1008A000F91EF1CFC501D6017C018D018C2D880F79
:1008B0008D2D881F8F3F51F0C601B50120E030E03B
:1008C00040E050E00E948E1B882331F482E290E0E9
:1008D00090934D0A80934C0A7E2D9F2D802F612F7F
:1008E000272F392F482F562FB901CA01CDB7DEB7B0
:1008F000ECE00C94B61DFB01DC014150504088F047
:100900008D9181341CF08B350CF4805E65916134DF
:100910001CF06B350CF4605E861B611171F3990B52
:100920000895881BFCCFAF92BF92CF92DF92EF92D7
:10093000FF920F931F936C01FC018281938160E011
:1009400070E04AE050E00E949E017B018C01F601BC
:100950008481958160E070E04AE050E00E949E0151
:100960005B016C0197012150304024303105B8F40F
:100970008BE190E0289F8001299F100D389F100D7A
:1009800011240252194FB501882777FD8095982FC1
:100990000E94FC1BF801668B778B808F918F1F91D3
:1009A0000F91FF90EF90DF90CF90BF90AF900895A0
:1009B0000F931F93CF93DF938C01FC01828193816E
:1009C00060E070E04AE050E00E949E01EB01F80117
:1009D0008481958160E070E04AE050E00E949E01D1
:1009E0009E01255030402230310530F0C930D1050C
:1009F00019F0CA30D10579F560347105C1F0613460
:100A0000710544F46130710581F06830710509F0B9
:100A100056C009C0F1E060307F0759F06050744063
:100A200009F04DC008C092E007C091E005C093E016
:100A300003C094E001C095E02230310528F485B56B
:100A4000887F982B95BD3BC080918100887F982B33
:100A50009093810034C0C330D10511F02B9779F504
:100A600060347105F9F06134710554F46830710532
:100A700099F060327105A1F06130710501F50EC089
:100A8000E1E060307E0791F0F4E060307F0781F0B4
:100A900060387105A1F408C092E00BC091E009C074
:100AA00093E007C094E005C095E003C096E001C064
:100AB00097E08091B100887F982B9093B100DF91EF
:100AC000CF911F910F910895FC018481958160E081
:100AD00070E04AE050E00E949E010895FC0184818C
:100AE000958160E070E04AE050E00E949E0189EB51
:100AF00099E069EA72E00E949B17089589EB99E0FA
:100B000040E052EC61E070E00E940F1486ED92E04C
:100B100090939F0380939E03A8EDB6E0E0E0F0E0A1
:100B20004DEF59E02BED39E002C01296FC01CF01E8
:100B300001968230910551F08330910559F0813052
:100B4000910589F411963C932E93EFCF11965C9307
:100B50004E93EBCFEE0FFF1FE852F94F8FE19AE073
:100B600091838083089583309105FCF20895CF929C
:100B7000DF92EF92FF920F931F938C01FC01828111
:100B8000938160E070E04AE050E00E949E016B01BA
:100B90007C01F8018481958160E070E04AE050E0DA
:100BA0000E949E01FB013197E330F10568F4EE0FDE
:100BB000FF1FE852F94FA601662757FD6095762F73
:100BC000808191810E940F141F910F91FF90EF90EF
:100BD000DF90CF9008958F929F92AF92BF92CF9265
:100BE000DF92EF92FF920F931F938C01FC018281A1
:100BF000938160E070E04AE050E00E949E01862E02
:100C0000F8018481958160E070E04AE050E00E9444
:100C10009E01962EF8018681978160E070E04AE09F
:100C200050E00E949E015B016C01F8018085918576
:100C300060E070E04AE050E00E949E016150704028
:100C40006430710560F58EEC90E0689F8001699FCB
:100C5000100D789F100D112400561C4F04531F4F88
:100C6000F80111821082129212928F010A5C1040D8
:100C70008CE190E00E944418F82EE92E682D492D51
:100C800020E00E944E0EF801F082E182A501662765
:100C900057FD6095762F8F2D9E2D0E94FE0B1F9184
:100CA0000F91FF90EF90DF90CF90BF90AF909F900B
:100CB0008F900895AF92BF92CF92DF92EF92FF9202
:100CC0000F931F93CF93DF938C01FC01828193815B
:100CD00060E070E04AE050E00E949E017B01F80174
:100CE0008481958160E070E04AE050E00E949E01BE
:100CF0005B016C010894E108F108F4E0EF16F104DF
:100D000038F50E948F182BE130E0E29EE001E39E6F
:100D1000D00DF29ED00D1124C252D94F6A8B7B8B1D
:100D20008C8B9D8B28813981AB2841F081E08A8FA3
:100D3000C90161E070E00E94C40F0AC01A8EC901A7
:100D400060E070E00E94C40F8C8160E00E94C61ACF
:100D5000DF91CF911F910F91FF90EF90DF90CF9097
:100D6000BF90AF9008952F923F924F925F926F92F3
:100D70007F928F929F92AF92BF92CF92DF92EF922B
:100D8000FF920F931F936C01FC018281938160E0BD
:100D900070E04AE050E00E949E017B018C01F60168
:100DA000848195810E94CD021B012C01F601868170
:100DB00097810E94CD023B014C01F601808591850F
:100DC0000E94CD025B016C010894E108F108F4E097
:100DD000EF16F104A8F48BE190E0E89EF001E99EA3
:100DE000F00DF89EF00D1124E252F94F80819181AF
:100DF000B201A10194018301760165010E947C0E7C
:100E00001F910F91FF90EF90DF90CF90BF90AF9028
:100E10009F908F907F906F905F904F903F902F901A
:100E200008952F923F924F925F926F927F928F928E
:100E30009F92AF92BF92CF92DF92EF92FF920F9369
:100E40001F93DF93CF93CDB7DEB764970FB6F894B7
:100E5000DEBF0FBECDBF8C01DC0112968D919C913F
:100E6000139760E070E04AE050E00E949E016B0141
:100E70007C01F8018481958160E070E04AE050E0F7
:100E80000E949E01698B7A8B8B8B9C8BD801169666
:100E90008D919C91179760E070E04AE050E00E94CD
:100EA0009E016D877E878F87988BF801808591855D
:100EB00060E070E04AE050E00E949E0169877A8716
:100EC0008B879C87D8011A968D919C911B970E94C5
:100ED000CD026D837E838F839887F8018485958505
:100EE0000E94CD0269837A838B839C83D8011E96EE
:100EF0008D919C911F970E94CD021B012C0108949B
:100F0000C108D108B4E0CB16D10408F06BC08BE166
:100F100090E0C89E8001C99E100DD89E100D11242E
:100F20002EED822E26E0922E800E911E89899A89BE
:100F3000F40193838283AD85BE85B583A483E9855F
:100F4000FA859F01442737FD4095542FD4011E9602
:100F50002D933D934D935C93519789E390E00E94CC
:100F60004418782E692E00D000D0A8014851594F5E
:100F700098012C50394FEDB7FEB72182328243825F
:100F80005482168215820C51194FB801ED80FE80F3
:100F90000F811885A980BA80CB80DC800E94351132
:100FA000D4017C9211966C921197EDB7FEB73696EC
:100FB0000FB6F894FEBF0FBEEDBF1E966D917D91EA
:100FC0008D919C9151970E94FA1B8B019C01872D5A
:100FD000962D40E050E060E070E00E94480FD401A0
:100FE0005A961C9264960FB6F894DEBF0FBECDBF22
:100FF000CF91DF911F910F91FF90EF90DF90CF90F5
:10100000BF90AF909F908F907F906F905F904F9028
:101010003F902F900895CF92DF92EF92FF920F931F
:101020001F93CF93DF938C01FC018281938160E059
:1010300070E04AE050E00E949E01D62EC62EF801D4
:10104000C481D5818681978160E070E04AE050E0FC
:101050000E949E017B018C01CE0160E072E00E9443
:10106000D602892B51F4EF2819F48D2D60E002C0CF
:101070008D2D61E00E94C61A15C0CE0165E072E0B8
:101080000E94D602892B71F4B7016F3F710519F0E8
:1010900014F06FEF70E077FF02C060E070E08C2D1D
:1010A0000E943319DF91CF911F910F91FF90EF9024
:1010B000DF90CF9008958F929F92AF92BF92DF9270
:1010C000EF92FF920F931F93DF93CF930F920F92A4
:1010D000CDB7DEB75C017B0101E010E04E01089462
:1010E000811C911C3EC0D7011296ED91FC91139783
:1010F000808189831A8212968D919C911397019613
:1011000060E070E04AE050E00E949E01D62EC401EB
:101110006AE072E00E94D602892B21F48D2D0E9494
:10112000F91A0AC0C4016CE072E00E94D602892B51
:10113000E1F48D2D0E94FF18BC0189EB99E04AE093
:1011400050E00E9488170A151B052CF489EB99E0E2
:1011500060E20E94A0160F5F1F4FE2E0F0E0EE0E8B
:10116000FF1EA016B1060CF0BECF0F900F90CF91CE
:10117000DF911F910F91FF90EF90DF90BF90AF90A4
:101180009F908F9008950F931F938C01FC01828193
:10119000938160E070E04AE050E00E949E0170930D
:1011A0004C0760934B07F8018481958160E070E003
:1011B0004AE050E00E949E016093510770935207ED
:1011C000809353079093540780914B0761E00E94EE
:1011D000131A0E948F1860934D0770934E078093E7
:1011E0004F079093500781E080934A071F910F911A
:1011F00008951F9310E0812F60E00E94131A1F5F73
:101200001633C9F71F910895FF920F931F93CF9341
:10121000DF938C01FC018281938160E070E04AE001
:1012200050E00E949E01F62EF801C481D581CE01C6
:101230006EE072E00E94D602892B19F48F2D60E0D7
:1012400009C0CE0161E172E00E94D602892B21F42F
:101250008F2D61E00E94131ADF91CF911F910F91A2
:10126000FF9008958F929F92AF92BF92CF92DF929C
:10127000EF92FF920F931F93DF93CF93CDB7DEB71B
:10128000EC970FB6F894DEBF0FBECDBF80914A0732
:101290008130A1F50E948F187B018C01809151074C
:1012A00090915207A0915307B091540720914D0798
:1012B00030914E0740914F0750915007820F931F76
:1012C000A41FB51F8E159F05A007B107B8F4E092C3
:1012D0004D07F0924E0700934F07109350078091EF
:1012E0004B070E94F91A019721F480914B0760E0A7
:1012F00003C080914B0761E00E94C61A3EEDC32EE9
:1013000036E0D32EF601828D882309F455C0828100
:101310000E94FF18AA2797FDA095BA2FBC01CD0106
:101320000E94FC1BF601668377838087918780810A
:1013300091810E9418100E948F187B018C01F60188
:1013400082889388A488B588268537854089518905
:10135000DC01CB0188199909AA09BB0928173907AB
:101360004A075B0740F4280D391D4A1D5B1D228B7F
:10137000338B448B558BF60182899389A489B58977
:10138000E81AF90A0A0B1B0BC801B7010E94FA1BE5
:101390009B01AC01F60162857385848595850E9469
:1013A000AC1C181624F4F601848161E003C0F60138
:1013B000848160E00E94C61A8BE190E0C80ED91EBD
:1013C0009AE4C91697E0D90609F09CCF89EB99E019
:1013D0000E949614892B09F40AC189EB99E00E94B6
:1013E000C714182F8A3009F402C18D3009F0EBC000
:1013F00089EB99E065E172E00E949B17E0919E0302
:10140000F0919F03108286ED92E090939F0380936A
:101410009E0366E172E00E94D1029A8389838E0165
:101420000D5F1F4FEE24FF240894E11CF11C80E0A7
:1014300090E066E172E00E94D102F801918380831E
:10144000FEE1EF16F10421F00E5F1F4F892B61F7CB
:101450008B819C8160E070E04AE050E00E949E0138
:1014600009811A81C80168E172E00E94D602892BC5
:1014700029F4CE0101960E9404099EC0C8016CE1C6
:1014800072E00E94D602892B19F40E94F90894C0D8
:10149000C80162E272E00E94D602892B29F4CE01D3
:1014A00001960E94C30888C0C8016BE272E00E94E6
:1014B000D602892B51F48E2D992787FD9095BE0178
:1014C0006F5F7F4F0E945B0877C0C80160E372E0E6
:1014D0000E94D602892B29F4CE0101960E940B08A6
:1014E0006BC0C80166E372E00E94D602892B29F422
:1014F000CE0101960E94D8045FC0C80161E472E089
:101500000E94D602892B29F4CE0101960E94110770
:1015100053C0C80160E572E00E94D602892B29F40D
:10152000CE0101960E94930447C0C8016CE572E0A9
:101530000E94D602892B29F4CE0101960E94B3069F
:101540003BC0C80169E672E00E94D602892B29F4EB
:10155000CE0101960E945A062FC0C80168E772E0CA
:101560000E94D602892B29F4CE0101960E94B7056C
:1015700023C0C80167E872E00E94D602892B29F4D3
:10158000CE0101960E94EB0517C0C80166E972E022
:101590000E94D602892B29F4CE0101960E946E0585
:1015A0000BC0C8016EE972E00E94D602892BF9F4E3
:1015B000CE0101960E94640589EB99E069EA72E028
:1015C0000E949B1714C0992787FD90950E94831D48
:1015D000892B69F0E0919E03F0919F0323E0EE399F
:1015E000F20728F41193F0939F03E0939E03EC9687
:1015F0000FB6F894DEBF0FBECDBFCF91DF911F9124
:101600000F91FF90EF90DF90CF90BF90AF909F90A1
:101610008F9008950F931F93CF93DF93FC01738DE9
:1016200076957170A685B7859585772329F08C917D
:10163000892309F454C004C08C91892309F04FC058
:101640008389948920E001972FEF8F3F9207D9F784
:10165000C589D689A685B785158560E031E040E06B
:1016600050E000E0CE01202F01972FEF8F3F92072F
:10167000D9F78C91812311F0632B03C0832F8095C0
:101680006823330F4F5F5F4F4830510559F7878903
:10169000908D20E001972FEF8F3F9207D9F77111BE
:1016A0006095809197072091980790E001968F733D
:1016B000907030E08217930779F0E0919707F0E09F
:1016C000E95AF84F60838091970790E001968F73F5
:1016D00090708093970703C0838D8160838FDF9123
:1016E000CF911F910F9108951F920F920FB60F92F5
:1016F0000BB60F9211242F933F934F935F936F93E9
:101700007F938F939F93AF93BF93EF93FF938091BA
:10171000550790915607009711F00E940A0BFF9110
:10172000EF91BF91AF919F918F917F916F915F9159
:101730004F913F912F910F900BBE0F900FBE0F90C6
:101740001F9018951F920F920FB60F920BB60F9223
:1017500011242F933F934F935F936F937F938F93B6
:101760009F93AF93BF93EF93FF9380915507909111
:101770005607009711F00E940A0BFF91EF91BF915D
:10178000AF919F918F917F916F915F914F913F9119
:101790002F910F900BBE0F900FBE0F901F901895BA
:1017A0001F920F920FB60F920BB60F9211242F9328
:1017B0003F934F935F936F937F938F939F93AF93D9
:1017C000BF93EF93FF938091550790915607009731
:1017D00011F00E940A0BFF91EF91BF91AF919F9181
:1017E0008F917F916F915F914F913F912F910F90CA
:1017F0000BBE0F900FBE0F901F901895CF92DF92E7
:10180000EF92FF920F931F93CF93DF93EC017A0136
:101810008B011A8E198E188E1F8A1E8A1D8A1C8AA9
:101820001B8A20E030E06901CC0CDD1CC20ED31E07
:10183000B601660F771F660F771FAB014C515F4FE4
:10184000FA0185919591A591B4918E159F05A007F8
:10185000B107E9F4FB01E851FF4F859194919C8B0E
:101860008B8BFB01E651FF4F859194919E8B8D8B65
:10187000FB01E451FF4F85919491988F8F8BFB0171
:10188000E251FF4F859194919A8F898F06C02F5F07
:101890003F4F2D30310509F0C6CF8F89988D892BA8
:1018A00009F468C09C85292F2A50243040F0892FE4
:1018B0008253843020F08C50883008F053C030912F
:1018C0006800243048F0892F8253843028F09E53DA
:1018D000983010F484E001C081E0832B809368008D
:1018E0002C85922F9A50943090F0822F825384301E
:1018F00070F08C50883008F455C0A0E0B0E088301B
:1019000018F0E0E0F0E007C0EDE6F0E004C0EBE640
:10191000F0E0ABE6B0E04081943020F430E02650B7
:10192000304015C0223311F488E01AC0233311F47B
:1019300084E016C0243311F482E012C0253379F01C
:10194000822F8E53883058F430E02E53304081E09F
:1019500090E002C0880F991F2A95E2F701C081E04C
:10196000842B8C93898D9A8D20E001972FEF8F3FE8
:101970009207D9F780915507909156078C179D07CC
:10198000A1F08B8D8E7F8B8F9FB7F8941092970765
:101990008091970780939807D0935607C093550777
:1019A0009FBF03C0ADE6B0E0AACFDF91CF911F91FA
:1019B0000F91FF90EF90DF90CF9008952091550701
:1019C000309156072817390731F490919807809184
:1019D0009707981719F42FEF3FEF0FC0E091980782
:1019E000F0E0E95AF84F20818091980790E0019645
:1019F0008F7390708093980730E0C901089520910B
:101A00005507309156072817390719F020E030E0C4
:101A10000EC0809197072091980790E0805C9F4FBF
:101A2000821B910960E470E00E94321D9C01C90193
:101A300008950F931F93DC0159968D919C915A97AD
:101A4000892B49F481E090E013969C938E93129732
:101A500020E030E097C00FB7F8945B968C915B97CD
:101A60005196ED91FC91529750962C91509781FF91
:101A70008DC08081822B808359968D919C915A973D
:101A8000059620E001972FEF8F3F9207D9F75B96DD
:101A90008C915B9781FF35C031E040E050E070E011
:101AA00010E0832F90E0862397235196ED91FC91CF
:101AB000529750962C915097892B29F08081209530
:101AC0002823208303C08081822B808359968D91A7
:101AD0009C915A97212F01972FEF8F3F9207D9F7AB
:101AE000330F4F5F5F4F48305105D9F65196ED9156
:101AF000FC915297908150968C91509780958923B4
:101B000033C031E040E050E070E010E0832F90E01F
:101B1000862397235196ED91FC91529750962C91E4
:101B20005097892B21F08081822B808304C0808193
:101B300020952823208359968D919C915A97212F87
:101B400001972FEF8F3F9207D9F7330F4F5F5F4F0A
:101B500048305105D9F65196ED91FC91529780810C
:101B600050969C915097892B80830FBF59968D91E9
:101B70009C915A9720E001972FEF8F3F9207D9F75A
:101B800021E030E0C9011F910F91089580812095D7
:101B90002823208371CF20915507309156072817AD
:101BA000390749F49FB7F8941092970780919707E7
:101BB000809398079FBF089520915507309156074D
:101BC0002817390731F49091980780919707981753
:101BD00019F42FEF3FEF0AC0E0919807F0E0E95ABF
:101BE000F84F8081282F332727FD3095C9010895AC
:101BF0001F93CF93DF93EC01162F862F60E00E9496
:101C0000131A8B8D81FD04C0812F61E00E94C61ADA
:101C10001C87212F30E0C9018C5E9D4FFC0184910F
:101C20008D8722533E4FF9016491E62FF0E0EE0FCD
:101C3000FF1FEC54FE4F859194919F878E87DF9113
:101C4000CF911F910895FF920F931F938C01F62E51
:101C5000862F61E00E94131A8F2D61E00E94C61A40
:101C60008F2D90E0FC01EC5EFD4FE491D801509681
:101C7000EC93509782539E4FFC016491E62FF0E065
:101C8000EE0FFF1FE656FE4F8591949152969C935E
:101C90008E9351971F910F91FF900895FF920F938C
:101CA0001F938C01F62EFC011382128288EE93E0C2
:101CB000A0E0B0E084839583A683B78387EB92E0AE
:101CC00091838083148A138A168A158A108E178A44
:101CD000128E118E838D2170220F8C7F822B838F29
:101CE000C801642F0E94230EC8016F2D0E94F80DB9
:101CF0001F910F91FF9008952F923F924F925F9204
:101D00006F927F928F929F92AF92BF92CF92DF920B
:101D1000EF92FF920F931F93DF93CF9300D00F9218
:101D2000CDB7DEB71C0149835A836B837C8348019E
:101D3000590126013701CB01BA0120E030E040E033
:101D400050E00E948E1B87FD8CC0C501B40120E0CD
:101D500030E040E050E00E948E1B87FD82C0C7014A
:101D6000B60120E030E040E050E00E948E1B87FD8D
:101D700078C089819A81AB81BC81F1018083918394
:101D8000A283B383D10114968D929D92AD92BC92A1
:101D90001797C086D186E286F38664A575A586A5C9
:101DA00097A50E94FA1B20E030E04AE754E40E9425
:101DB000921B7B018C0189819A81AB81BC81F101ED
:101DC00084879587A687B787C501B401A8019701C5
:101DD0000E94B01C5B016C01D10150966D937D9304
:101DE0008D939C935397C301B201A80197010E9460
:101DF000921B7B018C01F101648B758B868B978B19
:101E0000808D918D019769F560E070E080E090E051
:101E100029813A814B815C810E94291BD1011C964A
:101E20006D937D938D939C931F9760E070E080E0AD
:101E300090E0A60195010E94291BF101608B718B36
:101E4000828B938B60E070E080E090E0A8019701C6
:101E50000E94291BD10154966D937D938D939C9381
:101E600057970F900F900F900F90CF91DF911F9188
:101E70000F91FF90EF90DF90CF90BF90AF909F9029
:101E80008F907F906F905F904F903F902F9008952C
:101E90004F925F926F927F928F929F92AF92BF927A
:101EA000CF92DF92EF92FF920F931F93CF93DF9326
:101EB000EC013A014B0178018901CB01BA01A8017B
:101EC00097010E94AC1C87FF4EC068AA79AA8AAA13
:101ED0009BAAECAAFDAA0EAB1FAB88AD882309F420
:101EE00042C04C8C5D8CF201A080B180C280D38056
:101EF000C601B501A80197010E94AC1C181634F464
:101F0000F201E082F182028313830DC0C601B501A4
:101F1000A40193010E948E1B88232CF4F20160829D
:101F2000718282829382ACA0BDA0CEA0DFA0ECA87B
:101F3000FDA80EA91FA9C601B501A80197010E941D
:101F4000AC1C181664F0E8A8F9A80AA91BA9C601D8
:101F5000B501A80197010E948E1B882324F4ECA2EE
:101F6000FDA20EA31FA3DF91CF911F910F91FF90B0
:101F7000EF90DF90CF90BF90AF909F908F907F9029
:101F80006F905F904F9008959F92AF92BF92CF92C3
:101F9000DF92EF92FF920F931F93CF93DF93EC01A9
:101FA00099246130710511F49924939488AD91E0DE
:101FB0008927981681F5EC8DFD8DE080F1800281F6
:101FC0001381ECA2FDA20EA31FA3EA8DFB8D8081DD
:101FD0009181A281B38188A799A7AAA7BBA7ACA822
:101FE000BDA8CEA8DFA8C801B701A60195010E942F
:101FF000AC1C181664F0A8A8B9A8CAA8DBA8C80128
:10200000B701A60195010E948E1B882324F4ACA27F
:10201000BDA2CEA2DFA298AEDF91CF911F910F910A
:10202000FF90EF90DF90CF90BF90AF909F9008957A
:102030002F923F924F925F926F927F928F929F92D8
:10204000AF92BF92CF92DF92EF92FF920F931F93C6
:10205000DF93CF9300D000D0CDB7DEB79E838D83C2
:10206000DC01D8968C91882309F4E5C00E948F1872
:1020700069837A838B839C83ED81FE8180A191A10A
:10208000A2A1B3A129813A814B815C81281B390B24
:102090004A0B5B0B84A595A5A6A5B7A528173907FC
:1020A0004A075B0708F4C7C0028CF38DE02D20803F
:1020B000318042805380AD81BE815E96ED91FC916E
:1020C0005F976081718182819381A20191010E9459
:1020D000291B3B014C01ED81FE8120893189428918
:1020E00053890E94B01CAD81BE8194962D913D9183
:1020F0004D915C9197970E942A1B7B018C01ED8189
:10210000FE8164A375A386A397A3A4A8B5A8C6A8B7
:10211000D7A8A60195010E94AC1C181674F0ED8199
:10212000FE81A0A8B1A8C2A8D3A8C801B701A60182
:1021300095010E948E1B882344F4AD81BE81949644
:10214000AD92BD92CD92DC929797C401B301ED811F
:10215000FE8124853585468557850E94B01CAD815A
:10216000BE8194962D913D914D915C9197970E94DF
:102170002A1B7B018C01C201B101ED81FE8120A5EA
:1021800031A542A553A50E94291BAD81BE8154965D
:102190002D913D914D915C9157970E94B01C9B01F0
:1021A000AC01C801B7010E94291B7B018C01ED81A4
:1021B000FE81D4A8C5A8B6A8A7A82D2D3C2D4B2DCF
:1021C0005A2D0E94AC1C1816BCF0AD81BE81D09671
:1021D000DC90D097D196CC90D197D296BC90D297E4
:1021E000D396AC90C801B7012D2D3C2D4B2D5A2D07
:1021F0000E948E1B882334F48D2D9C2DAB2DBA2D7F
:102200007C018D01AD81BE815C96ED91FC915D9765
:10221000E082F18202831383FD0120A631A642A64B
:1022200053A689819A81AB81BC8180A391A3A2A38B
:10223000B3A381E001C080E026960FB6F894DEBF1C
:102240000FBECDBFCF91DF911F910F91FF90EF9007
:10225000DF90CF90BF90AF909F908F907F906F90C6
:102260005F904F903F902F9008954F925F926F92A2
:102270007F928F929F92AF92BF92CF92DF92EF9216
:10228000FF920F931F93DF93CF93CDB7DEB74C012F
:1022900027013801E88CF98CFC01558F448F738F2E
:1022A000628F378F268F10AE40E050E060E070E024
:1022B00000E010E02FE733E40E94480F84E690E04E
:1022C000A0E0B0E0F40184A795A7A6A7B7A780ADCA
:1022D000882391F1808D918DE816F90669F160E00F
:1022E00070E080E090E024853585468557850E9422
:1022F000291BF401648775878687978760E070E003
:1023000080E090E020893189428953890E94291B0D
:10231000F401608B718B828B938B60E070E080E0C6
:1023200090E024893589468957890E94291BF40148
:10233000648B758B868B978BF401F18EE08EC401D4
:10234000B301A20196018501CC88DD88EE88FF8863
:102350000E947C0E0E948F18F40124A535A546A585
:1023600057A5621B730B840B950B60A371A382A30B
:1023700093A3CF91DF911F910F91FF90EF90DF908A
:10238000CF90BF90AF909F908F907F906F905F9015
:102390004F90089508951F920F920FB60F920BB6AB
:1023A0000F9211242F933F934F938F939F93EF930B
:1023B000FF938091C00082FD1DC04091C600209116
:1023C000D9073091DA072F5F3F4F2F73307080911C
:1023D000DB079091DC072817390771F0E091D907E6
:1023E000F091DA07E756F84F40833093DA072093ED
:1023F000D90702C08091C600FF91EF919F918F9104
:102400004F913F912F910F900BBE0F900FBE0F90E9
:102410001F90189508951F920F920FB60F920BB64A
:102420000F9211242F933F934F938F939F93EF938A
:10243000FF938091C80082FD1DC04091CE00209185
:102440006108309162082F5F3F4F2F733070809189
:102450006308909164082817390771F0E0916108CA
:10246000F0916208EF5DF74F40833093620820934C
:10247000610802C08091CE00FF91EF919F918F91F2
:102480004F913F912F910F900BBE0F900FBE0F9069
:102490001F90189508951F920F920FB60F920BB6CA
:1024A0000F9211242F933F934F938F939F93EF930A
:1024B000FF938091D00082FD1DC04091D6002091F5
:1024C000E9083091EA082F5F3F4F2F7330708091F9
:1024D000EB089091EC082817390771F0E091E908B2
:1024E000F091EA08E755F74F40833093EA082093CC
:1024F000E90802C08091D600FF91EF919F918F91E2
:102500004F913F912F910F900BBE0F900FBE0F90E8
:102510001F90189508951F920F920FB60F920BB649
:102520000F9211242F933F934F938F939F93EF9389
:10253000FF938091300182FD1DC0409136012091B2
:102540007109309172092F5F3F4F2F733070809166
:102550007309909174092817390771F0E091710996
:10256000F0917209EF5CF64F40833093720920932B
:10257000710902C080913601FF91EF919F918F9177
:102580004F913F912F910F900BBE0F900FBE0F9068
:102590001F901895E091C509F091C609E05CFF4FC6
:1025A0008191919120813181821B930B8F73907067
:1025B000892B11F00E94CA11E091E709F091E80916
:1025C000E05CFF4F8191919120813181821B930BBF
:1025D0008F739070892B11F00E940A12E091090A02
:1025E000F0910A0AE05CFF4F819191912081318145
:1025F000821B930B8F739070892B11F00E944A12EB
:10260000E0912B0AF0912C0AE05CFF4F81919191AF
:1026100020813181821B930B8F739070892B11F075
:102620000E948A1208951F920F920FB60F920BB656
:102630000F9211242F933F938F939F93EF93FF93C8
:1026400020911D0830911E0880911F08909120084C
:102650002817390731F48091C1008F7D8093C10024
:1026600014C0E0911F08F0912008E352F84F208138
:1026700080911F089091200801968F73907090931D
:10268000200880931F082093C600FF91EF919F912F
:102690008F913F912F910F900BBE0F900FBE0F9017
:1026A0001F9018951F920F920FB60F920BB60F92B4
:1026B00011242F933F938F939F93EF93FF93209138
:1026C000A5083091A6088091A7089091A80828171E
:1026D000390731F48091C9008F7D8093C90014C0FF
:1026E000E091A708F091A808EB59F74F208180915D
:1026F000A7089091A80801968F7390709093A808EE
:102700008093A7082093CE00FF91EF919F918F9126
:102710003F912F910F900BBE0F900FBE0F901F9007
:1027200018951F920F920FB60F920BB60F921124AD
:102730002F933F938F939F93EF93FF9320912D09B6
:1027400030912E0980912F0990913009281739076F
:1027500031F48091D1008F7D8093D10014C0E0913D
:102760002F09F0913009E351F74F208180912F0913
:102770009091300901968F739070909330098093F7
:102780002F092093D600FF91EF919F918F913F9158
:102790002F910F900BBE0F900FBE0F901F901895AA
:1027A0001F920F920FB60F920BB60F9211242F9318
:1027B0003F938F939F93EF93FF932091B5093091AF
:1027C000B6098091B7099091B8092817390731F4F3
:1027D000809131018F7D8093310114C0E091B70960
:1027E000F091B809EB58F64F20818091B70990918C
:1027F000B80901968F7390709093B8098093B709C8
:1028000020933601FF91EF919F918F913F912F91EE
:102810000F900BBE0F900FBE0F901F901895AF92A8
:10282000BF92DF92EF92FF920F931F93CF93DF93AC
:10283000EC017A018B01DD24403081EE580780E005
:10284000680780E0780711F0DD24D39491E0A92E89
:10285000B12CEC89FD89DD2069F0C50108A002C01A
:10286000880F991F0A94E2F7808360E079E08DE396
:1028700090E005C0108260E874E88EE190E0A80165
:1028800097010E94451D21503040404050405695D0
:1028900047953795279580E12030380720F0DD20D7
:1028A00011F0DD24D6CFE889F9893083EA89FB89E4
:1028B000208319A2EE89FF89408121E030E0C9011F
:1028C0000C8C02C0880F991F0A94E2F7482B4083B2
:1028D000EE89FF894081C9010D8C02C0880F991FC4
:1028E0000A94E2F7482B4083EE89FF894081C901B1
:1028F0000E8C02C0880F991F0A94E2F7482B408380
:10290000EE89FF8980810F8C02C0220F331F0A9449
:10291000E2F7209528232083DF91CF911F910F911B
:10292000FF90EF90DF90BF90AF900895DC011C9670
:10293000ED91FC911D97E05CFF4F219131918081D9
:102940009181281B390B2F733070C9010895DC0168
:102950001C96ED91FC911D97E05CFF4F2081318129
:10296000E054F040DF01AE5BBF4F8D919C91119719
:102970002817390719F42FEF3FEF07C08D919C916D
:10298000E80FF91F8081282F30E0C9010895DC018C
:102990001C96ED91FC911D97E05CFF4F20813181E9
:1029A000E054F040DF01AE5BBF4F8D919C911197D9
:1029B0002817390719F42FEF3FEF10C08D919C9124
:1029C0001197E80FF91F20818D919C911197019625
:1029D0008F73907011969C938E9330E0C901089587
:1029E000DC0191968C919197882339F05496ED9162
:1029F000FC915597808186FFF9CF91961C9208959E
:102A0000CF93DF93EC01EE85FF85E05CFF4F2081E3
:102A10003181E054F0402F5F3F4F2F733070DF0162
:102A2000AE5BBF4F8D919C91119728173907D1F359
:102A3000E05CFF4F80819181E054F040E80FF91F86
:102A40006083EE85FF85E05CFF4F31832083EE8954
:102A5000FF89208181E090E00F8C02C0880F991FD0
:102A60000A94E2F7282B208381E089A3EC89FD8971
:102A700080818064808381E090E0DF91CF91089530
:102A80001F931092BC091092BB0928EE33E040E07E
:102A900050E02093BD093093BE094093BF09509385
:102AA000C00967EC72E07093BA096093B90989E9CB
:102AB00097E09093C6098093C5098DED97E09093B8
:102AC000C8098093C70985EC90E09093CA09809368
:102AD000C90984EC90E09093CC098093CB0980ECF9
:102AE00090E09093CE098093CD0981EC90E0909393
:102AF000D0098093CF0982EC90E09093D209809323
:102B0000D10986EC90E09093D4098093D30914E026
:102B10001093D509B3E0B093D609A7E0A093D709E5
:102B2000F5E0F093D809E1E0E093D9091092DE09CD
:102B30001092DD092093DF093093E0094093E10909
:102B40005093E2097093DC096093DB0981E298E01D
:102B50009093E8098093E70985E698E09093EA0965
:102B60008093E9098DEC90E09093EC098093EB0958
:102B70008CEC90E09093EE098093ED0988EC90E066
:102B80009093F0098093EF0989EC90E09093F2091B
:102B90008093F1098AEC90E09093F4098093F30913
:102BA0008EEC90E09093F6098093F5091093F70965
:102BB000B093F809A093F909F093FA09E093FB099F
:102BC0001092000A1092FF092093010A3093020A22
:102BD0004093030A5093040A7093FE096093FD0921
:102BE00089EA98E090930A0A8093090A8DEE98E0AA
:102BF00090930C0A80930B0A85ED90E090930E0A57
:102C000080930D0A84ED90E09093100A80930F0A50
:102C100080ED90E09093120A8093110A81ED90E08C
:102C20009093140A8093130A82ED90E09093160A11
:102C30008093150A86ED90E09093180A8093170A06
:102C40001093190AB0931A0AA0931B0AF0931C0A56
:102C5000E0931D0A1092220A1092210A2093230A5F
:102C60003093240A4093250A5093260A7093200A31
:102C700060931F0A81E399E090932C0A80932B0ABA
:102C800085E799E090932E0A80932D0A85E391E0E1
:102C90009093300A80932F0A84E391E09093320A54
:102CA0008093310A80E391E09093340A8093330A51
:102CB00081E391E09093360A8093350A82E391E0B4
:102CC0009093380A8093370A86E391E090933A0A0A
:102CD0008093390A10933B0AB0933C0AA0933D0AB3
:102CE000F0933E0AE0933F0A1F910895CF92DF923E
:102CF000EF92FF920F931F93CF93DF937C016B01B1
:102D00008A01C0E0D0E00FC0D6016D916D01D701FE
:102D1000ED91FC910190F081E02DC7011995C80F4C
:102D2000D91F015010400115110571F7CE01DF9137
:102D3000CF911F910F91FF90EF90DF90CF9008956A
:102D4000DC01ED91FC910190F081E02D1995089541
:102D5000EF92FF920F931F938C01DC01ED91FC9198
:102D60000190F081E02D6DE019957C01D801ED9185
:102D7000FC910190F081E02DC8016AE019959C0159
:102D80002E0D3F1DC9011F910F91FF90EF900895E7
:102D9000CF93DF93EC016115710519F420E030E069
:102DA0000FC0DB010D900020E9F71197A61BB70BB0
:102DB000E881F9810280F381E02DAD0119959C0134
:102DC000C901DF91CF9108954F925F927F928F92C8
:102DD0009F92AF92BF92CF92DF92EF92FF920F93AA
:102DE0001F93DF93CF93CDB7DEB7A1970FB6F894BB
:102DF000DEBF0FBECDBF2C01742ECB01223008F4F4
:102E00002AE019A231E2C32ED12CCC0EDD1E822E77
:102E10009924AA24BB24672D752FA50194010E9433
:102E2000451D79018A01C801B701A50194010E94DD
:102E3000131D472D461B0894C108D1084A3014F4CD
:102E4000405D01C0495CF6014083E114F1040105D5
:102E5000110521F07E2C5F2DC801DDCFC201B60126
:102E60000E94C816A1960FB6F894DEBF0FBECDBF64
:102E7000CF91DF911F910F91FF90EF90DF90CF9056
:102E8000BF90AF909F908F907F905F904F900895EC
:102E9000CF92DF92EF92FF920F931F93CF93DF9326
:102EA000EC016A017B012115310541F4E881F981CA
:102EB0000190F081E02D642F19951FC02A30310553
:102EC000D1F477FF17C0E881F9810190F081E02DFE
:102ED0006DE219958C0144275527BA014C195D09FB
:102EE0006E097F09CE012AE00E94E4169801280F9E
:102EF000391F04C02AE00E94E4169C01C901DF9139
:102F0000CF911F910F91FF90EF90DF90CF90089598
:102F1000EF92FF920F931F937B019A010027F7FC1A
:102F20000095102FB801A7010E9448171F910F911B
:102F3000FF90EF900895EF92FF920F931F937C0103
:102F40000E94C8168C01C7010E94A816080F191FFD
:102F5000C8011F910F91FF90EF900895CF93DF93D9
:102F60000E949D180E947E05CAECD2E10E9432099F
:102F70002097E1F30E94CA12F9CF0F931F93CF93CA
:102F8000DF93BC018230910510F462E070E0E091C3
:102F90004A0AF0914B0AA0E0B0E040E050E024C0C3
:102FA0008081918186179707D0F08617970771F473
:102FB00082819381109729F013969C938E93129798
:102FC0002CC090934B0A80934A0A27C041155105A3
:102FD00019F08417950718F4EF018D01AC01DF019A
:102FE000828193819C01F9013097D1F641155105F9
:102FF000F9F0CA01861B970B8430910580F48A8111
:103000009B810115110521F0F8019383828304C08F
:1030100090934B0A80934A0AFE0132962FC0FE011C
:10302000E80FF91F6193719302979983888326C0F3
:103030008DB79EB7885790402091AE023091AF0275
:1030400028173907C8F4AC01421B530B4617570722
:1030500098F0CB0102964817590770F0820F931F22
:103060009093AF028093AE029093B1028093B0022E
:10307000F9016193719302C0E0E0F0E0CF01DF91CC
:10308000CF911F910F9108950E94BD1708951F922F
:103090000F920FB60F9211242F933F938F939F930C
:1030A000AF93BF938091450A9091460AA091470A39
:1030B000B091480A3091490A0196A11DB11D232FF4
:1030C0002D5F2D3720F02D570196A11DB11D2093A6
:1030D000490A8093450A9093460AA093470AB09301
:1030E000480A8091410A9091420AA091430AB09106
:1030F000440A0196A11DB11D8093410A9093420A92
:10310000A093430AB093440ABF91AF919F918F91CE
:103110003F912F910F900FBE0F901F9018958FB772
:10312000F8942091450A3091460A4091470A5091FF
:10313000480A8FBFB901CA010895789484B58260A6
:1031400084BD84B5816084BD85B5826085BD85B54B
:10315000816085BDEEE6F0E0808181608083E1E8FA
:10316000F0E0108280818260808380818160808332
:10317000E0E8F0E0808181608083E1EBF0E0808135
:1031800084608083E0EBF0E0808181608083E1E90E
:10319000F0E0808182608083808181608083E0E9CB
:1031A000F0E0808181608083E1EAF0E080818260EC
:1031B0008083808181608083E0EAF0E080818160AB
:1031C0008083E1E2F1E080818260808380818160A0
:1031D0008083E0E2F1E0808181608083EAE7F0E0D3
:1031E000808184608083808182608083808181602F
:1031F00080838081806880831092C1000895382F79
:10320000863308F0365320917B00832F8695869570
:10321000869590E08170907043E0880F991F4A95E1
:10322000E1F7277F282B20937B0037708091B20233
:103230008295880F880F807C832B80937C008091FF
:103240007A00806480937A0080917A0086FDFCCFBA
:103250002091780040917900942F80E030E0282B75
:10326000392BC90108951F93CF93DF93182FEB01DA
:1032700061E00E94131A209709F4CAC0CF3FD1051C
:1032800009F4C9C0E12FF0E0E65AFD4F849189307E
:1032900009F466C08A30B0F48430F1F1853040F42E
:1032A000823059F1833070F5813009F0AEC020C012
:1032B000873009F443C0883008F048C0863009F0F0
:1032C000A4C034C08D3009F478C08E3038F48B300F
:1032D00009F45AC08C3008F066C04CC0803109F443
:1032E00080C0813109F487C08F3009F08EC06FC073
:1032F00084B5806884BDC7BD92C084B5806284BD3A
:10330000C8BD8DC080918000806880938000D0937C
:103310008900C093880083C0809180008062809380
:103320008000D0938B00C0938A0079C08091B00058
:1033300080688093B000C093B30071C08091B000EA
:1033400080628093B000C093B40069C08091900007
:10335000806880939000D0939900C09398005FC0DC
:1033600080919000806280939000D0939B00C093E6
:103370009A0055C080919000886080939000D0930F
:103380009D00C0939C004BC08091A00080688093FA
:10339000A0008091A0008F7B8093A000D093A90013
:1033A000C093A8003CC08091A00080628093A000E0
:1033B000D093AB00C093AA0032C08091A000886077
:1033C0008093A000D093AD00C093AC0028C0809142
:1033D0002001806880932001D0932901C0932801A7
:1033E0001EC080912001806280932001D0932B0128
:1033F000C0932A0114C0809120018860809320012D
:10340000D0932D01C0932C010AC0C038D1051CF403
:10341000812F60E002C0812F61E00E94C61ADF9117
:10342000CF911F910895CF93DF93482F50E0CA01A9
:103430008C5E9D4FFC01349142535E4FFA018491A2
:10344000882369F190E0880F991FFC01E058FE4F36
:10345000A591B491FC01E656FE4FC591D491662327
:1034600051F42FB7F8948C91932F909589238C93D6
:10347000888189230BC0623061F42FB7F8948C9156
:10348000932F909589238C938881832B88832FBFDA
:1034900006C09FB7F8948C91832B8C939FBFDF91CC
:1034A000CF910895893009F449C08A30A0F484305E
:1034B00051F1853040F4823079F1833000F581306C
:1034C00009F063C026C0873079F1883098F58630DE
:1034D00009F05BC025C08D3009F442C08E3028F45D
:1034E0008B30B1F18C30C0F52DC0803109F442C071
:1034F000813109F445C08F3009F047C037C0809151
:1035000080008F7703C0809180008F7D8093800042
:10351000089584B58F7702C084B58F7D84BD0895EA
:103520008091B0008F7703C08091B0008F7D809331
:10353000B0000895809190008F7707C0809190002F
:103540008F7D03C080919000877F809390000895C5
:103550008091A0008F7707C08091A0008F7D03C06D
:103560008091A000877F8093A00008958091200122
:103570008F7703C0809120018F7D80932001089573
:1035800080912001877F809320010895FF920F93FF
:103590001F93F62E482F50E0CA01865A9D4FFC011A
:1035A0002491CA018C5E9D4FFC01149142535E4FE1
:1035B000FA0104910023C9F0222319F0822F0E94FE
:1035C000521AE02FF0E0EE0FFF1FE656FE4FA591D6
:1035D000B4919FB7F894FF2021F48C91109581232A
:1035E00002C08C91812B8C939FBF1F910F91FF90F4
:1035F00008950F931F93482F50E0CA01865A9D4F9C
:10360000FC012491CA018C5E9D4FFC010491425340
:103610005E4FFA011491112319F420E030E015C037
:10362000222319F0822F0E94521A812F90E0880FD6
:10363000991F8C549E4FFC01A591B4918C9120E070
:1036400030E0802311F021E030E0C9011F910F919B
:1036500008955058BB27AA270ED044C135D130F069
:103660003AD120F031F49F3F11F41EF42AC10EF438
:10367000E095E7FB20C1E92F46D180F3BA17620736
:1036800073078407950718F071F49EF55EC10EF478
:10369000E0950B2EBA2FA02D0B01B90190010C0162
:1036A000CA01A0011124FF27591B99F0593F50F47A
:1036B000503E68F11A16F040A22F232F342F4427D2
:1036C000585FF3CF469537952795A795F0405395CA
:1036D000C9F77EF41F16BA0B620B730B840BBAF09A
:1036E0009150A1F0FF0FBB1F661F771F881FC2F705
:1036F0000EC0BA0F621F731F841F48F48795779519
:103700006795B795F7959E3F08F0B3CF9395880FCF
:1037100008F09927EE0F979587950895A8D008F49B
:1037200081E008950CD0DEC0D6D040F0CDD030F08E
:1037300021F45F3F19F0BFC0511108C1C2C0E3D0EE
:1037400098F39923C9F35523B1F3951B550BBB2768
:10375000AA2762177307840738F09F5F5F4F220F15
:10376000331F441FAA1FA9F333D00E2E3AF0E0E80E
:1037700030D091505040E695001CCAF729D0FE2F5A
:1037800027D0660F771F881FBB1F261737074807EC
:10379000AB07B0E809F0BB0B802DBF01FF279358A2
:1037A0005F4F2AF09E3F510568F085C0CFC05F3F54
:1037B000ECF3983EDCF3869577956795B795F7958A
:1037C0009F5FC9F7880F911D9695879597F9089582
:1037D000E1E0660F771F881FBB1F6217730784071E
:1037E000BA0720F0621B730B840BBA0BEE1F88F72D
:1037F000E0950895E89409C097FB3EF49095809574
:10380000709561957F4F8F4F9F4F9923A9F0F92FA6
:1038100096E9BB279395F695879577956795B79524
:10382000F111F8CFFAF4BB0F11F460FF1BC06F5F0A
:103830007F4F8F4F9F4F16C0882311F096E911C01C
:10384000772321F09EE8872F762F05C0662371F03D
:1038500096E8862F70E060E02AF09A95660F771F51
:10386000881FDAF7880F9695879597F90895990F2D
:103870000008550FAA0BE0E8FEEF16161706E8073A
:10388000F907C0F012161306E407F50798F0621B5B
:10389000730B840B950B39F40A2661F0232B242B30
:1038A000252B21F408950A2609F4A140A6958FEF4F
:1038B000811D811D089597F99F6780E870E060E0A1
:1038C00008959FEF80EC089500240A9416161706B9
:1038D00018060906089500240A9412161306140601
:1038E00005060895092E0394000C11F4882352F064
:1038F000BB0F40F4BF2B11F460FF04C06F5F7F4F1C
:103900008F4F9F4F089557FD9058440F551F59F002
:103910005F3F71F04795880F97FB991F61F09F3FBC
:1039200079F087950895121613061406551FF2CFE5
:103930004695F1DF08C0161617061806991FF1CF35
:1039400086957105610508940895E894BB2766275C
:103950007727CB0197F908958ADF08F48FEF089550
:103960000BD0C0CFB1DF28F0B6DF18F0952309F0F7
:10397000A2CFA7CF1124EACFC6DFA0F3959FD1F342
:10398000950F50E0551F629FF001729FBB27F00D0D
:10399000B11D639FAA27F00DB11DAA1F649F662762
:1039A000B00DA11D661F829F2227B00DA11D621FB1
:1039B000739FB00DA11D621F839FA00D611D221F6B
:1039C000749F3327A00D611D231F849F600D211D4F
:1039D000822F762F6A2F11249F5750408AF0E1F0F2
:1039E00088234AF0EE0FFF1FBB1F661F771F881F3B
:1039F00091505040A9F79E3F510570F05CCFA6CF83
:103A00005F3FECF3983EDCF3869577956795B79525
:103A1000F795E7959F5FC1F7FE2B880F911D96954F
:103A2000879597F90895629FD001739FF001829F57
:103A3000E00DF11D649FE00DF11D929FF00D839F3D
:103A4000F00D749FF00D659FF00D9927729FB00DDA
:103A5000E11DF91F639FB00DE11DF91FBD01CF01ED
:103A60001124089597FB092E07260AD077FD04D06C
:103A70002ED006D000201AF4709561957F4F0895DE
:103A8000F6F7909581959F4F0895A1E21A2EAA1BF3
:103A9000BB1BFD010DC0AA1FBB1FEE1FFF1FA217FE
:103AA000B307E407F50720F0A21BB30BE40BF50BFB
:103AB000661F771F881F991F1A9469F76095709584
:103AC000809590959B01AC01BD01CF010895AA1B83
:103AD000BB1B51E107C0AA1FBB1FA617B70710F0F9
:103AE000A61BB70B881F991F5A95A9F7809590952B
:103AF000BC01CD010895EE0FFF1F0590F491E02D5C
:103B00001994803209F091110CC080528F55E0F762
:103B10000895911106C0803219F089508550D0F770
:103B200008959927882708952F923F924F925F9288
:103B30006F927F928F929F92AF92BF92CF92DF92BD
:103B4000EF92FF920F931F93CF93DF93CDB7DEB722
:103B5000CA1BDB0B0FB6F894DEBF0FBECDBF1994A6
:103B60002A88398848885F846E847D848C849B840D
:103B7000AA84B984C884DF80EE80FD800C811B811B
:103B8000AA81B981CE0FD11D0FB6F894DEBF0FBE4A
:0A3B9000CDBFED010895F894FFCFBA
:103B9A006469676900616E616C0044004100696E86
:103BAA00006F7574000020005365740052657365D8
:103BBA007400426C696E6B50696E005265616400F4
:103BCA0057726974650053657450776D46726571F2
:103BDA000050696452656C6179437265617465006D
:103BEA0050696452656C6179536574005069645216
:103BFA00656C617954756E650050696452656C61D3
:103C0A0079456E61626C65004861726453657243FE
:103C1A006F6E6E65637400536F6674536572436F9B
:103C2A006E6E6563740053657253656E6400536506
:103C3A00725265636569766500646F6E65004E0A47
:103C4A0064000100000000190D7616FF0CDE0CDC82
:103C5A000DCB0D00000000001576169614C714A7A8
:043C6A0014F014003E
:00000001FF
