:100000000C9481000C94A9000C94A9000C94EB0CA6
:100010000C94150D0C943F0D0C94A9000C94A900A0
:100020000C94A9000C94A9000C94A9000C94A900AC
:100030000C94A9000C94A9000C94A9000C94A9009C
:100040000C949A140C94A9000C94B9100C940711F8
:100050000C94A9000C94A9000C94A9000C94A9007C
:100060000C94FE090C94A900000000002400270055
:100070002A0000000000250028002B0000000000DE
:1000800023002600290004040404040404040202DA
:100090000202020203030303030301020408102007
:1000A0004080010204081020010204081020000012
:1000B0000007000201000003040600000000000029
:1000C0000000494E46494E4954594E414ECDCCCC84
:1000D0003D0AD7233C17B7D13877CC2B329595E61C
:1000E000241FB14F0A000020410000C84200401CFC
:1000F0004620BCBE4CCA1B0E5AAEC59D7400E70B11
:10010000731211241FBECFEFD8E0DEBFCDBF11E0C8
:10011000A0E0B1E0E0E2F2E302C005900D92AC3D58
:10012000B107D9F714E0ACEDB1E001C01D92AA3DD2
:10013000B107E1F710E0C2E0D1E004C02297FE0170
:100140000E94C018CE3FD107C9F70E9401140C9439
:100150000E190C9400002F923F925F926F927F9243
:100160008F929F92AF92BF92CF92DF92EF92FF92C7
:100170000F931F93CF93DF938C011B01EA0161154D
:10018000710519F0FB0191838083209749F0CE011E
:100190000297839728F020E030E040E050E0F6C07E
:1001A000F801A1908F018A2D90E00E94CC18892B34
:1001B000B9F7FDE2AF1631F4F801A1908F01552493
:1001C000539407C0FBE2AF1619F4F801A1908F0118
:1001D0005524209719F0C031D105C1F4F0E3AF16D2
:1001E00079F4F8018081883711F0883549F4F801F5
:1001F000A1800E5F1F4FF2E05F2AC0E1D0E006C091
:10020000209721F480E3A816E9F427C0C830D1056F
:1002100031F1C930D10524F4C230D10531F50CC01B
:10022000CA30D10589F0C031D105F9F4C12CD12CE7
:10023000E12CB8E0FB2E28C0C12CD12CE12CA0E48D
:10024000FA2E22C0CAE0D0E0FCECCF2EFCECDF2E70
:10025000FCECEF2EFCE0FF2E17C0C8E0D0E0C12C74
:10026000D12CE12CE0E1FE2E0FC09E01442737FD8A
:100270004095542F60E070E080E090E80E949C1868
:10028000C901DA016C017D0120E030E040E050E07E
:1002900060E03E01882477FC8094982C70EDB72EA6
:1002A000BA0CE9E0EB1570F48A2D81548A3118F408
:1002B00099ECB92E06C08A2D81568A3150F589EA0B
:1002C000B82EBA0C8B2D90E08C179D0714F56F3F5C
:1002D000E1F0C216D306E406F506B0F0CA01B90192
:1002E000A40193010E947D189B01AC012B0D311DCF
:1002F000411D511D2130F0E03F07F0E04F07F0E8CD
:100300005F0710F461E001C06FEFF801A1908F0169
:10031000C5CF2114310481F0662331F00150104023
:10032000F1011183008308C051FE1AC00250104031
:10033000F1011183008314C067FF12C050FC05C097
:100340002FEF3FEF4FEF5FE704C020E030E040E0E9
:1003500050E882E290E09093D9048093D80416C0CC
:1003600050FE08C050954095309521953F4F4F4F16
:100370005F4F0CC057FF0AC082E290E09093D9040F
:100380008093D8042FEF3FEF4FEF5FE7B901CA0129
:10039000DF91CF911F910F91FF90EF90DF90CF9061
:1003A000BF90AF909F908F907F906F905F903F90A5
:1003B0002F900895662777270C9428024CED51E082
:1003C0000E94F6010895FB01DC018D9181341CF03F
:1003D0008B350CF4805E619161341CF06B350CF44C
:1003E000605E861B611189F3990B0895009731F4C3
:1003F000DA018D919C91009709F40EC0DC01FB019C
:100400003D912191222319F03217C9F3FACF3323FA
:1004100031F4DA011D921C928827992708951197CB
:10042000AF93BF93FB013D912191321771F43323B8
:1004300021F488279927119702C01E921196FA017C
:10044000A193B0839F918F910895222369F7EACFFA
:10045000A0E0B0E0EEE2F2E00C94DD18EC015B010C
:100460006115710519F0FB0191838083F9908F2D3F
:1004700090E00E94CC18892BC9F7FDE2FF1621F409
:10048000F990EE24E39405C02BE2F21609F4F990FA
:10049000EE248E0101501040C80162EC70E043E090
:1004A00050E00E948803892B01F58E010E5F1F4FDB
:1004B000C80165EC70E045E050E00E948803892B9C
:1004C00019F48E01095F1F4FA114B10419F0F50151
:1004D00011830083E0FC04C070E090E080E814C069
:1004E00070E090E080E86FEF08C1C8016AEC70E04E
:1004F00043E050E00E948803892B69F4A114B10401
:1005000029F470E090E080EC6FE7F7C02296F501E7
:10051000D183C083F6CF8824992440E050E060E086
:1005200070E0EF2DE053EA30A0F5F2E0EF2A8E2DD7
:1005300090E09C0128703070E2FE06C0232B79F514
:100540000894811C911C2BC0232B19F0089481085E
:100550009108DB01CA0112E0880F991FAA1FBB1F77
:100560001A95D1F7480F591F6A1F7B1F440F551F5B
:10057000661F771F4E0F511D611D711D483929E9F6
:10058000520729E9620729E1720748F084E0E82A66
:1005900006C0EE3F31F4E3FC39C098E0E92AF99057
:1005A000C0CFE53311F0E53189F529912D3219F4E9
:1005B000E0E1EE2A05C02B3219F081E090E003C0A3
:1005C000299182E090E0E22FE053EA3018F0C81B56
:1005D000D90B1CC020E030E0FCE020383F075CF481
:1005E000C901880F991F880F991F280F391F220FE3
:1005F000331F2E0F311DE991E053EA3068F3E4FE1A
:1006000003C0309521953F4F820E931ECE2CDD24E2
:10061000E1FE07C0A114B10421F02197F501D183B7
:10062000C083CB01BA010E9464177B018C01F3E007
:10063000CF22DD2423E0C216D10421F417FB10954C
:1006400017F9109557016801C801B70120E030E0A3
:1006500040E050E00E94F816882309F44AC097FE53
:100660000DC021EEE22E20E0F22E909481949108AC
:100670009394C0E2D0E000E010E012C099EFE92EC0
:1006800090E0F92EF6CFF7012591359145915491DF
:10069000C601B5010E941A185B016C018C1A9D0AF3
:1006A0008C169D0684F7D595C7950F5F1F4F0630B2
:1006B000110529F08CEF9FEFE80EF91EF1CFC5016F
:1006C000D6017C018D018C2D880F8D2D881F8F3FC9
:1006D00051F0C601B50120E030E040E050E00E945A
:1006E000F816882331F482E290E09093D904809345
:1006F000D8047E2D9F2D802F612F272F392F482F33
:10070000562FB901CA01CDB7DEB7ECE00C94F91849
:10071000FB01DC014150504088F08D9181341CF088
:100720008B350CF4805E659161341CF06B350CF4F4
:10073000605E861B611171F3990B0895881BFCCFD5
:10074000AF92BF92CF92DF92EF92FF920F931F93DF
:100750006C01FC018281938160E070E04AE050E02E
:100760000E94AB007B018C01F6018481958160E0E1
:1007700070E04AE050E00E94AB005B016C01970121
:100780002150304024303105B8F48BE190E0289FAF
:100790008001299F100D389F100D112402521E4F09
:1007A000B501882777FD8095982F0E946617F8017C
:1007B000668B778B808F918F1F910F91FF90EF90B9
:1007C000DF90CF90BF90AF9008950F931F93CF937A
:1007D000DF938C01FC018281938160E070E04AE04C
:1007E00050E00E94AB00EB01F8018481958160E04C
:1007F00070E04AE050E00E94AB009E01255030407E
:100800002230310530F0C930D10519F0CA30D10598
:1008100079F560347105C1F06134710544F46130DB
:10082000710581F06830710509F056C009C0F1E02A
:1008300060307F0759F06050744009F04DC008C027
:1008400092E007C091E005C093E003C094E001C0CE
:1008500095E02230310528F485B5887F982B95BD29
:100860003BC080918100887F982B9093810034C099
:10087000C330D10511F02B9779F560347105F9F08B
:100880006134710554F46830710599F06032710576
:10089000A1F06130710501F50EC0E1E060307E0726
:1008A00091F0F4E060307F0781F060387105A1F4C9
:1008B00008C092E00BC091E009C093E007C094E04B
:1008C00005C095E003C096E001C097E08091B100BB
:1008D000887F982B9093B100DF91CF911F910F915A
:1008E0000895FC018481958160E070E04AE050E069
:1008F0000E94AB000895FC018481958160E070E066
:100900004AE050E00E94AB008BEA94E062EB71E0B9
:100910000E94EE1308958BEA94E040E052EC61E00F
:1009200070E00E9442118AE492E090931303809356
:10093000120383ED93E00E94760C0895AF92BF926C
:10094000CF92DF92EF92FF920F931F93CF93DF939B
:100950008C01FC018281938160E070E04AE050E00C
:100960000E94AB007B01F8018481958160E070E01A
:100970004AE050E00E94AB005B016C010894E10882
:10098000F108F4E0EF16F10438F50E94E2142BE1CF
:1009900030E0E29EE001E39ED00DF29ED00D1124E6
:1009A000C252DE4F6A8B7B8B8C8B9D8B2881398169
:1009B000AB2841F081E08A8FC90161E070E00E94BC
:1009C000B10E0AC01A8EC90160E070E00E94B10E3B
:1009D0008C8160E00E94EC15DF91CF911F910F9107
:1009E000FF90EF90DF90CF90BF90AF9008952F923F
:1009F0003F924F925F926F927F928F929F92AF92AF
:100A0000BF92CF92DF92EF92FF920F931F936C01F0
:100A1000FC018281938160E070E04AE050E00E9436
:100A2000AB007B018C01F601848195810E94DA0183
:100A30001B012C01F601868197810E94DA013B019E
:100A40004C01F601808591850E94DA015B016C0101
:100A50000894E108F108F4E0EF16F104A8F48BE142
:100A600090E0E89EF001E99EF00DF89EF00D112453
:100A7000E252FE4F80819181B201A1019401830174
:100A8000760165010E94690D1F910F91FF90EF9013
:100A9000DF90CF90BF90AF909F908F907F906F909E
:100AA0005F904F903F902F9008952F923F924F92DA
:100AB0005F926F927F928F929F92AF92BF92CF92EE
:100AC000DF92EF92FF920F931F93DF93CF93CDB7F7
:100AD000DEB764970FB6F894DEBF0FBECDBF8C01B2
:100AE000DC0112968D919C91139760E070E04AE0D2
:100AF00050E00E94AB006B017C01F801848195817C
:100B000060E070E04AE050E00E94AB00698B7A8BB5
:100B10008B8B9C8BD80116968D919C91179760E0DA
:100B200070E04AE050E00E94AB006D877E878F87BF
:100B3000988BF8018085918560E070E04AE050E094
:100B40000E94AB0069877A878B879C87D8011A96A9
:100B50008D919C911B970E94DA016D837E838F8318
:100B60009887F801848595850E94DA0169837A83E4
:100B70008B839C83D8011E968D919C911F970E9418
:100B8000DA011B012C010894C108D108B4E0CB168E
:100B9000D10408F06CC08BE190E0C89E8001C99E32
:100BA000100DD89E100D11248EED882E81E0982E08
:100BB000800E911E89899A89F40193838283AD8581
:100BC000BE85B583A483E985FA859F01442737FD57
:100BD0004095542FD4011E962D933D934D935C93D5
:100BE000519789E390E00E949714782E692E00D0E7
:100BF00000D000D0A80148515E4F98012C503E4FC4
:100C0000EDB7FEB72182328243825482168215826A
:100C10000C511E4FB801ED80FE800F811885A98010
:100C2000BA80CB80DC800E942310D4017C92119684
:100C30006C921197EDB7FEB736960FB6F894FEBFDB
:100C40000FBEEDBF1E966D917D918D919C91519738
:100C50000E9464178B019C01872D962D40E050E087
:100C600060E070E00E94350ED4015A961C926496A2
:100C70000FB6F894DEBF0FBECDBFCF91DF911F91AD
:100C80000F91FF90EF90DF90CF90BF90AF909F902B
:100C90008F907F906F905F904F903F902F9008952E
:100CA000CF92DF92EF92FF920F931F93CF93DF9338
:100CB0008C01FC018281938160E070E04AE050E0A9
:100CC0000E94AB00D62EC62EF801C481D581868144
:100CD000978160E070E04AE050E00E94AB007B0149
:100CE0008C01CE0160E071E00E94E301892B51F498
:100CF000EF2819F48D2D60E002C08D2D61E00E9477
:100D0000EC1515C0CE0165E071E00E94E301892B6E
:100D100071F4B7016F3F710519F014F06FEF70E0D7
:100D200077FF02C060E070E08C2D0E944D15DF91CE
:100D3000CF911F910F91FF90EF90DF90CF9008958A
:100D40008F929F92AF92BF92DF92EF92FF920F939A
:100D50001F93DF93CF9300D0CDB7DEB75C017B014B
:100D600001E010E04E010894811C911C3EC0D701A7
:100D70001296ED91FC911397808189831A821296C5
:100D80008D919C911397019660E070E04AE050E0ED
:100D90000E94AB00D62EC4016AE071E00E94E3011C
:100DA000892B21F48D2D0E9440160AC0C4016CE0ED
:100DB00071E00E94E301892BE1F48D2D0E942B1537
:100DC000BC018BEA94E04AE050E00E94DB130A1574
:100DD0001B052CF48BEA94E060E20E94F3120F5F93
:100DE0001F4FE2E0F0E0EE0EFF1EA016B1060CF081
:100DF000BECF0F900F90CF91DF911F910F91FF9079
:100E0000EF90DF90BF90AF909F908F9008950F93D9
:100E10001F938C01FC018281938160E070E04AE0C5
:100E200050E00E94AB007093160360931503F80125
:100E30008481958160E070E04AE050E00E94AB0060
:100E400060931B0370931C0380931D0390931E03F8
:100E50008091150361E00E94AD150E94E214609339
:100E60001703709318038093190390931A0381E07A
:100E7000809314031F910F9108951F9310E0812F09
:100E800060E00E94AD151F5F1E30C9F71F910895E5
:100E9000FF920F931F93CF93DF938C01FC0182810C
:100EA000938160E070E04AE050E00E94AB00F62ED3
:100EB000F801C481D581CE016EE071E00E94E301AA
:100EC000892B19F48F2D60E009C0CE0161E171E03A
:100ED0000E94E301892B21F48F2D61E00E94AD1562
:100EE000DF91CF911F910F91FF900895EF92FF92A4
:100EF0000F931F93CF93DF937C018B01FB018281C2
:100F0000938160E070E04AE050E00E94AB009B01FA
:100F1000AC0183ED93E0B9010E94AD0BC2E0D0E0DB
:100F20000EC0F8018281938160E070E04AE050E0F9
:100F30000E94AB0083ED93E00E942F0C21960E5F80
:100F40001F4FCE15DF056CF383ED93E00E94720C0A
:100F5000DF91CF911F910F91FF90EF9008958F92A5
:100F60009F92AF92BF92CF92DF92EF92FF920F9338
:100F70001F93DF93CF93CDB7DEB7EC970FB6F894FE
:100F8000DEBF0FBECDBF809114038130A1F50E945A
:100F9000E2147B018C0180911B0390911C03A091B2
:100FA0001D03B0911E032091170330911803409147
:100FB000190350911A03820F931FA41FB51F8E159A
:100FC0009F05A007B107B8F4E0921703F092180349
:100FD0000093190310931A03809115030E94401681
:100FE000019721F48091150360E003C080911503FF
:100FF00061E00E94EC159EEDC92E91E0D92EF6011C
:10100000828D882309F455C082810E942B15AA275E
:1010100097FDA095BA2FBC01CD010E946617F6017D
:101020006683778380879187808191810E94050FF5
:101030000E94E2147B018C01F60182889388A488C7
:10104000B5882685378540895189DC01CB0188190F
:101050009909AA09BB09281739074A075B0740F411
:10106000280D391D4A1D5B1D228B338B448B558BFC
:10107000F60182899389A489B589E81AF90A0A0BCD
:101080001B0BC801B7010E9464179B01AC01F6015C
:1010900062857385848595850E941618181624F438
:1010A000F601848161E003C0F601848160E00E9462
:1010B000EC158BE190E0C80ED91E9AE4C91692E0B7
:1010C000D90609F09CCF8BEA94E00E94C911892BC4
:1010D00009F411C18BEA94E00E94FA11182F8A30AA
:1010E00009F409C18D3009F0F2C08BEA94E065E1A2
:1010F00071E00E94EE13E0911203F091130310824D
:101100008AE492E0909313038093120366E171E006
:101110000E94DE019A8389838E010D5F1F4FEE24AA
:10112000FF240894E11CF11C80E090E066E171E08E
:101130000E94DE01F80191838083FEE1EF16F10445
:1011400021F00E5F1F4F892B61F78B819C8160E03E
:1011500070E04AE050E00E94AB0009811A81C801AA
:1011600068E171E00E94E301892B29F4CE01019628
:101170000E944807A5C0C8016CE171E00E94E3012C
:10118000892B19F40E943D079BC0C80162E271E0FF
:101190000E94E301892B29F4CE0101960E940707E2
:1011A0008FC0C8016BE271E00E94E301892B51F40A
:1011B0008E2D992787FD9095BE016F5F7F4F0E940E
:1011C000A0067EC0C80160E371E00E94E301892BA4
:1011D00029F4CE0101960E94500672C0C80166E350
:1011E00071E00E94E301892B29F4CE0101960E944F
:1011F000E50366C0C80161E471E00E94E301892B48
:1012000029F4CE0101960E9455055AC0C80160E537
:1012100071E00E94E301892B29F4CE0101960E941E
:10122000A0034EC0C8016CE571E00E94E301892B68
:1012300029F4CE0101960E94F70442C0C80169E674
:1012400071E00E94E301892B29F4CE0101960E94EE
:101250009E0436C0C80168E771E00E94E301892B53
:1012600079F1C80167E871E00E94E301892B41F13F
:10127000C80166E971E00E94E301892B29F4CE01DF
:1012800001960E947B041CC0C8016EE971E00E94B7
:10129000E301892B29F4CE0101960E94710410C04C
:1012A000C80169EA71E00E94E301892B21F58E2DC6
:1012B000992787FD9095BE016F5F7F4F0E9476074B
:1012C0008BEA94E062EB71E00E94EE1314C0992760
:1012D00087FD90950E94C618892B69F0E091120352
:1012E000F091130323E0E231F20728F41193F09315
:1012F0001303E0931203EC960FB6F894DEBF0FBE13
:10130000CDBFCF91DF911F910F91FF90EF90DF90B4
:10131000CF90BF90AF909F908F9008950F931F93A1
:10132000582F122F413210F081E04AC080911F03E4
:101330008823E1F782E080931F03009321038FEF5E
:1013400080938C031092470340934803A7E2B3E0D5
:10135000FB0102C081918D938E2F861B8417D0F3E1
:101360001092200380912003550F852B809320033A
:1013700080912203813041F4109222038091200356
:101380008093BB0085EC01C085EE8093BC001123E7
:1013900021F080911F038230E1F380918C038F3F15
:1013A00011F480E00DC080918C03803211F482E052
:1013B00007C080918C03803311F084E001C083E08A
:1013C0001F910F910895482F613210F081E0089528
:1013D00080911F03843011F082E0089560936A03C6
:1013E000A9E4B3E0842F9C01F90102C081918D939F
:1013F0008E2F841B8617D0F380E008951F920F92E2
:101400000FB60F9211242F933F934F935F936F93D7
:101410007F938F939F93AF93BF93EF93FF938091AD
:10142000B90090E0887F90708036910509F4F2C091
:1014300081369105CCF58832910509F47BC089325B
:101440009105B4F48031910509F46FC081319105A3
:101450003CF4009709F447C1089709F04FC165C0F3
:101460008831910509F466C0809709F047C182C0B0
:101470008034910509F4A4C08134910544F480338B
:10148000910509F482C0C89709F038C189C0803538
:10149000910509F489C08835910509F496C088340E
:1014A000910509F02BC1AEC08839910509F413C12B
:1014B00089399105ECF48837910509F4ABC0893777
:1014C00091054CF48836910509F4A4C08037910544
:1014D00009F014C19FC08838910509F4FCC0803917
:1014E000910509F49DC08038910509F007C198C0A5
:1014F000803B910509F4C6C0813B91054CF4803ACC
:10150000910509F49FC0883A910509F0F7C0BAC067
:10151000803C910509F4E3C0883C910509F4DFC0E3
:10152000883B910509F0EAC0C2C0809120038093F6
:10153000BB00CFC09091470380914803981768F48F
:1015400090914703E92FF0E0E95DFC4F80818093A3
:10155000BB009F5F90934703BCC080912103882309
:1015600009F44BC085ED8093BC008091BC0084FDE4
:10157000FCCFC2C080E280938C0385ED8093BC00D9
:101580008091BC0084FDFCCFB7C080E380938C03C6
:1015900085ED8093BC008091BC0084FDFCCFACC085
:1015A00088E380938C039BC0809147039091BB009C
:1015B000E82FF0E0E95DFC4F90838F5F8093470355
:1015C000909147038091480382C080914703909196
:1015D000BB00E82FF0E0E95DFC4F90838F5F8093C4
:1015E000470380912103882341F085ED8093BC005F
:1015F0008091BC0084FDFCCF7FC081E080932203FA
:1016000084EA6EC085ED8093BC008091BC0084FDAF
:10161000FCCF72C083E080931F0310928B0359C0EC
:1016200080918B03803208F056C080918B0390919B
:10163000BB00E82FF0E0E559FC4F90838F5F80936B
:101640008B0347C080918B03803230F4E0918B0391
:10165000F0E0E559FC4F108285ED8093BC0080914D
:10166000BC0084FDFCCF10921F0360918B03E091BE
:101670002503F09126038BE693E070E00995109224
:101680008B032DC084E080931F0310926903109296
:101690006A03E0912303F0912403099580916A0382
:1016A000882329F481E080936A0310924903909182
:1016B0006903E92FF0E0E75BFC4F80818093BB007A
:1016C0009F5F909369039091690380916A039817D3
:1016D00010F485EC01C085E88093BC000FC085EC58
:1016E0008093BC0009C010928C0385ED8093BC00F0
:1016F0008091BC0084FDFCCF10921F03FF91EF91FD
:10170000BF91AF919F918F917F916F915F914F9119
:101710003F912F910F900FBE0F901F901895109230
:101720001F0381E0809321031092220382E161E094
:101730000E94EC1583E161E00E94EC15E9EBF0E01A
:1017400080818E7F808380818D7F808388E48093F9
:10175000B80085E48093BC00089581E08093D203B3
:101760006093AF031092D0031092D103089520919B
:10177000AE0330E08091AD03281B3109C901089503
:101780004091AD038091AE03481718F02FEF3FEF63
:101790000AC0E42FF0E0E357FC4F8081282F30E0AF
:1017A0004F5F4093AD03C9010895E091AD0380916F
:1017B000AE03E81718F0EFEFFFEF06C0F0E0E357D5
:1017C000FC4F8081E82FF0E0CF010895089510923A
:1017D000D6031092D50388EE93E0A0E0B0E08093AA
:1017E000D7039093D803A093D903B093DA0380EC86
:1017F00091E09093D4038093D3030895CF92DF9226
:10180000EF92FF920F931F93CF93DF937C016B01B5
:101810008A018091D2038823A1F0C0E0D0E00DC0FE
:10182000D701ED91FC91D601AC0FBD1F0190F08165
:10183000E02DC7016C9109952196C017D10780F35F
:1018400004C0CB01642F0E94E309C801DF91CF914E
:101850001F910F91FF90EF90DF90CF900895DF934D
:10186000CF930F92CDB7DEB7FC0169838091D2038D
:101870008823C9F08091D103803238F081E090E074
:101880009383828320E030E015C08091D003E82F5D
:10189000F0E0E055FC4F998190838F5F8093D003F7
:1018A0008093D10305C0CE01019661E00E94E30957
:1018B00021E030E0C9010F90CF91DF9108950F939F
:1018C000062F8091AF0360EB73E04091D10321E0DC
:1018D0000E948E091092D0031092D1031092D2036D
:1018E0000F91089561E00E945F0C08951092AD037E
:1018F0001092AE031092D0031092D1030E948F0B6E
:1019000008950F931F93CF93DF93FC01738D76950A
:101910007170A685B7859585772329F08C918923E9
:1019200009F454C004C08C91892309F04FC0838905
:10193000948920E001972FEF8F3F9207D9F7C5894F
:10194000D689A685B785158560E031E040E050E096
:1019500000E0CE01202F01972FEF8F3F9207D9F79C
:101960008C91812311F0632B03C0832F8095682312
:10197000330F4F5F5F4F4830510559F78789908D7E
:1019800020E001972FEF8F3F9207D9F771116095F3
:10199000809121042091220490E001968F73907031
:1019A00030E08217930779F0E0912104F0E0EF51E5
:1019B000FC4F60838091210490E001968F739070BA
:1019C0008093210403C0838D8160838FDF91CF9149
:1019D0001F910F9108951F920F920FB60F9211242D
:1019E0002F933F934F935F936F937F938F939F9327
:1019F000AF93BF93EF93FF938091DF039091E00348
:101A0000009711F00E94810CFF91EF91BF91AF916F
:101A10009F918F917F916F915F914F913F912F9106
:101A20000F900FBE0F901F9018951F920F920FB638
:101A30000F9211242F933F934F935F936F937F9354
:101A40008F939F93AF93BF93EF93FF938091DF03A7
:101A50009091E003009711F00E94810CFF91EF91AB
:101A6000BF91AF919F918F917F916F915F914F91B6
:101A70003F912F910F900FBE0F901F9018951F92BE
:101A80000F920FB60F9211242F933F934F935F93B2
:101A90006F937F938F939F93AF93BF93EF93FF9336
:101AA0008091DF039091E003009711F00E94810C78
:101AB000FF91EF91BF91AF919F918F917F916F9126
:101AC0005F914F913F912F910F900FBE0F901F90FC
:101AD00018952F923F924F925F926F927F928F92C2
:101AE0009F92AF92BF92CF92DF92EF92FF920F93AD
:101AF0001F93DF93CF9300D000D0CDB7DEB71C018A
:101B000049835A836B837C8348015901260137013D
:101B1000CB01BA0120E030E040E050E00E94F8162E
:101B200087FD8CC0C501B40120E030E040E050E00A
:101B30000E94F81687FD82C0C701B60120E030E0A0
:101B400040E050E00E94F81687FD78C089819A81B4
:101B5000AB81BC81F10180839183A283B383D101E6
:101B600014968D929D92AD92BC921797C086D186A5
:101B7000E286F38664A575A586A597A50E946417DD
:101B800020E030E04AE754E40E94FC167B018C011F
:101B900089819A81AB81BC81F10184879587A68771
:101BA000B787C501B401A80197010E941A185B010B
:101BB0006C01D10150966D937D938D939C935397B7
:101BC000C301B201A80197010E94FC167B018C01A0
:101BD000F101648B758B868B978B808D918D01972E
:101BE00069F560E070E080E090E029813A814B8106
:101BF0005C810E949316D1011C966D937D938D9309
:101C00009C931F9760E070E080E090E0A601950152
:101C10000E949316F101608B718B828B938B60E035
:101C200070E080E090E0A80197010E949316D10136
:101C300054966D937D938D939C9357970F900F902F
:101C40000F900F90CF91DF911F910F91FF90EF9028
:101C5000DF90CF90BF90AF909F908F907F906F90CC
:101C60005F904F903F902F9008954F925F926F92A8
:101C70007F928F929F92AF92BF92CF92DF92EF921C
:101C8000FF920F931F93CF93DF93EC013A014B0127
:101C900078018901CB01BA01A80197010E941618A9
:101CA00087FF4EC068AA79AA8AAA9BAAECAAFDAAB5
:101CB0000EAB1FAB88AD882309F442C04C8C5D8C01
:101CC000F201A080B180C280D380C601B501A80115
:101CD00097010E941618181634F4F201E082F1827E
:101CE000028313830DC0C601B501A40193010E94B4
:101CF000F81688232CF4F20160827182828293822A
:101D0000ACA0BDA0CEA0DFA0ECA8FDA80EA91FA985
:101D1000C601B501A80197010E941618181664F0B3
:101D2000E8A8F9A80AA91BA9C601B501A80197014D
:101D30000E94F816882324F4ECA2FDA20EA31FA390
:101D4000DF91CF911F910F91FF90EF90DF90CF9097
:101D5000BF90AF909F908F907F906F905F904F90CB
:101D600008959F92AF92BF92CF92DF92EF92FF922F
:101D70000F931F93CF93DF93EC019924613071058A
:101D800011F49924939488AD91E08927981681F5F0
:101D9000EC8DFD8DE080F18002811381ECA2FDA22B
:101DA0000EA31FA3EA8DFB8D80819181A281B38157
:101DB00088A799A7AAA7BBA7ACA8BDA8CEA8DFA84B
:101DC000C801B701A60195010E941618181664F003
:101DD000A8A8B9A8CAA8DBA8C801B701A60195019F
:101DE0000E94F816882324F4ACA2BDA2CEA2DFA2E2
:101DF00098AEDF91CF911F910F91FF90EF90DF9000
:101E0000CF90BF90AF909F9008952F923F924F92A6
:101E10005F926F927F928F929F92AF92BF92CF927A
:101E2000DF92EF92FF920F931F93DF93CF9300D037
:101E300000D000D0CDB7DEB79E838D83DC01D8966D
:101E40008C91882309F4E5C00E94E21469837A83A7
:101E50008B839C83ED81FE8180A191A1A2A1B3A17E
:101E600029813A814B815C81281B390B4A0B5B0B22
:101E700084A595A5A6A5B7A5281739074A075B0726
:101E800008F4C7C0028CF38DE02D208031804280A1
:101E90005380AD81BE815E96ED91FC915F9760812C
:101EA000718182819381A20191010E9493163B016D
:101EB0004C01ED81FE8120893189428953890E943C
:101EC0001A18AD81BE8194962D913D914D915C91F2
:101ED00097970E9494167B018C01ED81FE8164A38B
:101EE00075A386A397A3A4A8B5A8C6A8D7A8A6013A
:101EF00095010E941618181674F0ED81FE81A0A8B5
:101F0000B1A8C2A8D3A8C801B701A60195010E9433
:101F1000F816882344F4AD81BE819496AD92BD92AB
:101F2000CD92DC929797C401B301ED81FE812485A7
:101F30003585468557850E941A18AD81BE819496D5
:101F40002D913D914D915C9197970E9494167B0144
:101F50008C01C201B101ED81FE8120A531A542A510
:101F600053A50E949316AD81BE8154962D913D914B
:101F70004D915C9157970E941A189B01AC01C801C2
:101F8000B7010E9493167B018C01ED81FE81D4A8DC
:101F9000C5A8B6A8A7A82D2D3C2D4B2D5A2D0E94C3
:101FA00016181816BCF0AD81BE81D096DC90D09783
:101FB000D196CC90D197D296BC90D297D396AC9034
:101FC000C801B7012D2D3C2D4B2D5A2D0E94F8161E
:101FD000882334F48D2D9C2DAB2DBA2D7C018D01E1
:101FE000AD81BE815C96ED91FC915D97E082F182BE
:101FF00002831383FD0120A631A642A653A6898140
:102000009A81AB81BC8180A391A3A2A3B3A381E0F9
:1020100001C080E026960FB6F894DEBF0FBECDBF9C
:10202000CF91DF911F910F91FF90EF90DF90CF90B4
:10203000BF90AF909F908F907F906F905F904F90E8
:102040003F902F9008954F925F926F927F928F9260
:102050009F92AF92BF92CF92DF92EF92FF920F9337
:102060001F93DF93CF93CDB7DEB74C012701380123
:10207000EF88F88CFC01558F448F738F628F378FF8
:10208000268F10AE40E050E060E070E000E010E02D
:102090002FE733E40E94350E84E690E0A0E0B0E044
:1020A000F40184A795A7A6A7B7A780AD882391F1CF
:1020B000808D918DE816F90669F160E070E080E0AE
:1020C00090E024853585468557850E949316F40156
:1020D000648775878687978760E070E080E090E08E
:1020E00020893189428953890E949316F401608BBB
:1020F000718B828B938B60E070E080E090E02489AC
:102100003589468957890E949316F401648B758B33
:10211000868B978BF401F18EE08EC401B301A2018E
:1021200096018501CB88DC88ED88FE880E94690DC8
:102130000E94E214F40124A535A546A557A5621B0B
:10214000730B840B950B60A371A382A393A3CF9110
:10215000DF911F910F91FF90EF90DF90CF90BF9094
:10216000AF909F908F907F906F905F904F90089569
:1021700008951F920F920FB60F9211242F933F9341
:102180004F938F939F93EF93FF938091C00082FDB5
:102190001DC04091C60020916304309164042F5FFC
:1021A0003F4F2F733070809165049091660428171B
:1021B000390771F0E0916304F0916404ED5DFB4F29
:1021C0004083309364042093630402C08091C6006E
:1021D000FF91EF919F918F914F913F912F910F9090
:1021E0000FBE0F901F901895E091B704F091B804BE
:1021F000E05CFF4F8191919120813181821B930B93
:102200008F739070892B11F00E94B81008951F925F
:102210000F920FB60F9211242F933F938F939F939A
:10222000EF93FF932091A7043091A8048091A90413
:102230009091AA042817390731F48091C1008F7D4D
:102240008093C10014C0E091A904F091AA04E95957
:10225000FB4F20818091A9049091AA0401968F736D
:1022600090709093AA048093A9042093C600FF91D4
:10227000EF919F918F913F912F910F900FBE0F90F3
:102280001F901895AF92BF92DF92EF92FF920F933B
:102290001F93CF93DF93EC017A018B01DD24403053
:1022A00081EE580780E0680780E0780711F0DD24B0
:1022B000D39491E0A92EB12CEC89FD89DD2069F041
:1022C000C50108A002C0880F991F0A94E2F7808315
:1022D00060E079E08DE390E005C0108260E874E88A
:1022E0008EE190E0A80197010E949C182150304097
:1022F00040405040569547953795279580E12030CE
:10230000380720F0DD2011F0DD24D6CFE889F989E7
:102310003083EA89FB89208319A2EE89FF894081F5
:1023200021E030E0C9010C8C02C0880F991F0A948B
:10233000E2F7482B4083EE89FF894081C9010D8C6B
:1023400002C0880F991F0A94E2F7482B4083EE8958
:10235000FF894081C9010E8C02C0880F991F0A9421
:10236000E2F7482B4083EE89FF8980810F8C02C001
:10237000220F331F0A94E2F7209528232083DF9150
:10238000CF911F910F91FF90EF90DF90BF90AF9092
:102390000895DC011C96ED91FC911D97E05CFF4FC8
:1023A0002191319180819181281B390B2F733070DD
:1023B000C9010895DC011C96ED91FC911D97E05C2C
:1023C000FF4F20813181E054F040DF01AE5BBF4F11
:1023D0008D919C9111972817390719F42FEF3FEF32
:1023E00007C08D919C91E80FF91F8081282F30E064
:1023F000C9010895DC011C96ED91FC911D97E05CEC
:10240000FF4F20813181E054F040DF01AE5BBF4FD0
:102410008D919C9111972817390719F42FEF3FEFF1
:1024200010C08D919C911197E80FF91F20818D911B
:102430009C91119701968F73907011969C938E9337
:1024400030E0C9010895DC0191968C919197882321
:1024500039F05496ED91FC915597808186FFF9CF24
:1024600091961C920895CF93DF93EC01EE85FF8542
:10247000E05CFF4F20813181E054F0402F5F3F4FFF
:102480002F733070DF01AE5BBF4F8D919C91119720
:1024900028173907D1F3E05CFF4F80819181E05428
:1024A000F040E80FF91F6083EE85FF85E05CFF4F89
:1024B00031832083EE89FF89208181E090E00F8CB9
:1024C00002C0880F991F0A94E2F7282B208381E02D
:1024D00089A3EC89FD8980818064808381E090E01C
:1024E000DF91CF9108951092AE041092AD0488EE62
:1024F00093E0A0E0B0E08093AF049093B004A09389
:10250000B104B093B20480ED91E09093AC04809359
:10251000AB0483E294E09093B8048093B70487E619
:1025200094E09093BA048093B90485EC90E0909382
:10253000BC048093BB0484EC90E09093BE04809331
:10254000BD0480EC90E09093C0048093BF0481ECC4
:1025500090E09093C2048093C10482EC90E0909349
:10256000C4048093C30486EC90E09093C6048093E7
:10257000C50484E08093C70483E08093C80487E0A7
:102580008093C90485E08093CA0481E08093CB04E2
:102590000895CF92DF92EF92FF920F931F93CF9304
:1025A000DF937C016B018A01C0E0D0E00FC0D6014F
:1025B0006D916D01D701ED91FC910190F081E02DBD
:1025C000C7010995C80FD91F015010400115110509
:1025D00071F7CE01DF91CF911F910F91FF90EF9096
:1025E000DF90CF900895DC01ED91FC910190F08196
:1025F000E02D09950895EF92FF920F931F938C01A0
:10260000DC01ED91FC910190F081E02D6DE00995E8
:102610007C01D801ED91FC910190F081E02DC80181
:102620006AE009959C012E0D3F1DC9011F910F9174
:10263000FF90EF900895CF93DF93EC016115710542
:1026400019F420E030E00FC0DB010D900020E9F725
:102650001197A61BB70BE881F9810280F381E02D69
:10266000AD0109959C01C901DF91CF9108954F9269
:102670005F927F928F929F92AF92BF92CF92DF92A2
:10268000EF92FF920F931F93DF93CF93CDB7DEB7F7
:10269000A1970FB6F894DEBF0FBECDBF2C01742EEC
:1026A000CB01223008F42AE019A231E2C32ED12C4A
:1026B000CC0EDD1E822E9924AA24BB24672D752FF3
:1026C000A50194010E949C1879018A01C801B701F3
:1026D000A50194010E947D18472D461B0894C1084E
:1026E000D1084A3014F4405D01C0495CF6014083D2
:1026F000E114F1040105110521F07E2C5F2DC801C4
:10270000DDCFC201B6010E941B13A1960FB6F8944B
:10271000DEBF0FBECDBFCF91DF911F910F91FF9014
:10272000EF90DF90CF90BF90AF909F908F907F9071
:102730005F904F900895CF92DF92EF92FF920F93A8
:102740001F93CF93DF93EC016A017B0121153105C3
:1027500041F4E881F9810190F081E02D642F099521
:102760001FC02A303105D1F477FF17C0E881F98105
:102770000190F081E02D6DE209958C0144275527E9
:10278000BA014C195D096E097F09CE012AE00E9449
:1027900037139801280F391F04C02AE00E9437130D
:1027A0009C01C901DF91CF911F910F91FF90EF9094
:1027B000DF90CF900895EF92FF920F931F937B01CC
:1027C0009A010027F7FC0095102FB801A7010E947D
:1027D0009B131F910F91FF90EF900895EF92FF923E
:1027E0000F931F937C010E941B138C01C7010E9451
:1027F000FB12080F191FC8011F910F91FF90EF9056
:102800000895CF93DF930E94F0140E948B04C4EFCD
:10281000D0E10E94AF072097E1F30E94F410F9CFB6
:102820000F931F93CF93DF93BC018230910510F477
:1028300062E070E0E091D604F091D704A0E0B0E04F
:1028400040E050E024C08081918186179707D0F046
:102850008617970771F482819381109729F0139658
:102860009C938E9312972CC09093D7048093D60498
:1028700027C04115510519F08417950718F4EF0189
:102880008D01AC01DF01828193819C01F9013097B8
:10289000D1F641155105F9F0CA01861B970B84301A
:1028A000910580F48A819B810115110521F0F801C1
:1028B0009383828304C09093D7048093D604FE014F
:1028C00032962FC0FE01E80FF91F619371930297B2
:1028D0009983888326C08DB79EB7885790402091F2
:1028E000B7013091B80128173907C8F4AC01421B71
:1028F000530B4617570798F0CB0102964817590714
:1029000070F0820F931F9093B8018093B70190935A
:10291000BA018093B901F9016193719302C0E0E0BB
:10292000F0E0CF01DF91CF911F910F9108950E94A8
:10293000101408951F920F920FB60F9211242F9327
:102940003F938F939F93AF93BF938091D1049091C6
:10295000D204A091D304B091D4043091D50401964F
:10296000A11DB11D232F2D5F2D3720F02D5701966E
:10297000A11DB11D2093D5048093D1049093D2045E
:10298000A093D304B093D4048091CD049091CE044D
:10299000A091CF04B091D0040196A11DB11D8093E8
:1029A000CD049093CE04A093CF04B093D004BF91F4
:1029B000AF919F918F913F912F910F900FBE0F90EC
:1029C0001F9018958FB7F8942091D1043091D204BC
:1029D0004091D3045091D4048FBFB901CA01089526
:1029E000789484B5826084BD84B5816084BD85B5EA
:1029F000826085BD85B5816085BDEEE6F0E08081B1
:102A000081608083E1E8F0E01082808182608083D1
:102A1000808181608083E0E8F0E080818160808354
:102A2000E1EBF0E0808184608083E0EBF0E0808186
:102A300081608083EAE7F0E0808184608083808128
:102A400082608083808181608083808180688083D0
:102A50001092C1000895982F8E3008F09E50977004
:102A60008091BB018295880F880F807C892B809391
:102A70007C0080917A00806480937A0080917A0053
:102A800086FDFCCF2091780040917900942F80E062
:102A900030E0282B392BC90108951F93CF93DF9382
:102AA000182FEB0161E00E94AD15209709F44AC090
:102AB000CF3FD10509F449C0E12FF0E0E255FF4FC7
:102AC00084918330C1F0843028F4813051F0823019
:102AD000B1F50CC0863019F1873049F1843079F5B1
:102AE00014C084B5806884BDC7BD33C084B580621E
:102AF00084BDC8BD2EC08091800080688093800016
:102B0000D0938900C093880024C0809180008062A7
:102B100080938000D0938B00C0938A001AC080916C
:102B2000B00080688093B000C093B30012C0809161
:102B3000B00080628093B000C093B4000AC0C03877
:102B4000D1051CF4812F60E002C0812F61E00E945A
:102B5000EC15DF91CF911F910895CF93DF93482F0C
:102B600050E0CA0186569F4FFC0134914A575F4F8F
:102B7000FA018491882369F190E0880F991FFC0184
:102B8000E859FF4FA591B491FC01EE58FF4FC59154
:102B9000D491662351F42FB7F8948C91932F90958C
:102BA00089238C93888189230BC0623061F42FB70D
:102BB000F8948C91932F909589238C938881832B03
:102BC00088832FBF06C09FB7F8948C91832B8C937A
:102BD0009FBFDF91CF910895482F50E0CA018255E1
:102BE0009F4FFC012491CA0186569F4FFC0194918E
:102BF0004A575F4FFA013491332309F440C022232E
:102C000051F1233071F0243028F42130A1F022302A
:102C100011F514C02630B1F02730C1F02430D9F4BA
:102C200004C0809180008F7703C0809180008F7DE9
:102C30008093800010C084B58F7702C084B58F7DEB
:102C400084BD09C08091B0008F7703C08091B0002F
:102C50008F7D8093B000E32FF0E0EE0FFF1FEE5862
:102C6000FF4FA591B4912FB7F894662321F48C916E
:102C70009095892302C08C91892B8C932FBF089546
:102C8000682F70E0CB0182559F4FFC012491CB014E
:102C900086569F4FFC0144916A577F4FFB019491E8
:102CA000992319F420E030E03CC0222351F1233075
:102CB00071F0243028F42130A1F0223011F514C035
:102CC0002630B1F02730C1F02430D9F404C080910F
:102CD00080008F7703C0809180008F7D809380007B
:102CE00010C084B58F7702C084B58F7D84BD09C0C4
:102CF0008091B0008F7703C08091B0008F7D80936A
:102D0000B000892F90E0880F991F84589F4FFC01D5
:102D1000A591B4918C9120E030E0842311F021E062
:102D200030E0C90108955058BB27AA270ED044C1EE
:102D300035D130F03AD120F031F49F3F11F41EF438
:102D40002AC10EF4E095E7FB20C1E92F46D180F3BC
:102D5000BA17620773078407950718F071F49EF598
:102D60005EC10EF4E0950B2EBA2FA02D0B01B90118
:102D700090010C01CA01A0011124FF27591B99F0F1
:102D8000593F50F4503E68F11A16F040A22F232FFD
:102D9000342F4427585FF3CF469537952795A7954D
:102DA000F0405395C9F77EF41F16BA0B620B730BF4
:102DB000840BBAF09150A1F0FF0FBB1F661F771F65
:102DC000881FC2F70EC0BA0F621F731F841F48F41A
:102DD000879577956795B795F7959E3F08F0B3CFA0
:102DE0009395880F08F09927EE0F9795879508958A
:102DF000A8D008F481E008950CD0DEC0D6D040F011
:102E0000CDD030F021F45F3F19F0BFC0511108C19F
:102E1000C2C0E3D098F39923C9F35523B1F3951BAE
:102E2000550BBB27AA2762177307840738F09F5FEB
:102E30005F4F220F331F441FAA1FA9F333D00E2E5A
:102E40003AF0E0E830D091505040E695001CCAF7C7
:102E500029D0FE2F27D0660F771F881FBB1F26178C
:102E600037074807AB07B0E809F0BB0B802DBF015F
:102E7000FF2793585F4F2AF09E3F510568F085C0A9
:102E8000CFC05F3FECF3983EDCF38695779567956E
:102E9000B795F7959F5FC9F7880F911D9695879510
:102EA00097F90895E1E0660F771F881FBB1F62172F
:102EB00073078407BA0720F0621B730B840BBA0BED
:102EC000EE1F88F7E0950895E89409C097FB3EF45B
:102ED00090958095709561957F4F8F4F9F4F992367
:102EE000A9F0F92F96E9BB279395F69587957795E5
:102EF0006795B795F111F8CFFAF4BB0F11F460FFA5
:102F00001BC06F5F7F4F8F4F9F4F16C0882311F0FC
:102F100096E911C0772321F09EE8872F762F05C010
:102F2000662371F096E8862F70E060E02AF09A95AB
:102F3000660F771F881FDAF7880F9695879597F9A0
:102F40000895990F0008550FAA0BE0E8FEEF16163A
:102F50001706E807F907C0F012161306E407F5078D
:102F600098F0621B730B840B950B39F40A2661F001
:102F7000232B242B252B21F408950A2609F4A140A4
:102F8000A6958FEF811D811D089597F99F6780E8B1
:102F900070E060E008959FEF80EC089500240A94AB
:102FA0001616170618060906089500240A94121624
:102FB0001306140605060895092E0394000C11F457
:102FC000882352F0BB0F40F4BF2B11F460FF04C004
:102FD0006F5F7F4F8F4F9F4F089557FD9058440F5D
:102FE000551F59F05F3F71F04795880F97FB991F68
:102FF00061F09F3F79F08795089512161306140625
:10300000551FF2CF4695F1DF08C0161617061806B1
:10301000991FF1CF86957105610508940895E8948C
:10302000BB2766277727CB0197F908958ADF08F435
:103030008FEF08950BD0C0CFB1DF28F0B6DF18F0C6
:10304000952309F0A2CFA7CF1124EACFC6DFA0F3C2
:10305000959FD1F3950F50E0551F629FF001729F2D
:10306000BB27F00DB11D639FAA27F00DB11DAA1F4C
:10307000649F6627B00DA11D661F829F2227B00D99
:10308000A11D621F739FB00DA11D621F839FA00D24
:10309000611D221F749F3327A00D611D231F849F74
:1030A000600D211D822F762F6A2F11249F575040CB
:1030B0008AF0E1F088234AF0EE0FFF1FBB1F661F66
:1030C000771F881F91505040A9F79E3F510570F01F
:1030D0005CCFA6CF5F3FECF3983EDCF38695779507
:1030E0006795B795F795E7959F5FC1F7FE2B880F1A
:1030F000911D9695879597F90895629FD001739FCA
:10310000F001829FE00DF11D649FE00DF11D929F83
:10311000F00D839FF00D749FF00D659FF00D9927C2
:10312000729FB00DE11DF91F639FB00DE11DF91FE6
:10313000BD01CF0111240895A1E21A2EAA1BBB1BC9
:10314000FD010DC0AA1FBB1FEE1FFF1FA217B30773
:10315000E407F50720F0A21BB30BE40BF50B661F89
:10316000771F881F991F1A9469F76095709580954D
:1031700090959B01AC01BD01CF010895EE0FFF1F9B
:103180000590F491E02D0994803209F091110CC062
:1031900080528F55E0F70895911106C0803219F0E2
:1031A00089508550D0F708959927882708952F9240
:1031B0003F924F925F926F927F928F929F92AF92C7
:1031C000BF92CF92DF92EF92FF920F931F93CF9314
:1031D000DF93CDB7DEB7CA1BDB0B0FB6F894DEBFAB
:1031E0000FBECDBF09942A88398848885F846E84D1
:1031F0007D848C849B84AA84B984C884DF80EE801B
:10320000FD800C811B81AA81B981CE0FD11D0FB623
:10321000F894DEBF0FBECDBFED010895F894FFCF47
:103220006469676900616E616C0044004100696E09
:10323000006F75740000200053657400526573655B
:103240007400426C696E6B50696E00526561640077
:1032500057726974650053657450776D4672657175
:103260000050696452656C617943726561746500F0
:1032700050696452656C6179536574005069645299
:10328000656C617954756E650050696452656C6156
:1032900079456E61626C6500486172645365724382
:1032A0006F6E6E65637400536F6674536572436F1F
:1032B0006E6E6563740053657253656E640053658A
:1032C0007252656365697665004932635772697445
:1032D0006500646F6E6500DA0464000100000000A0
:1032E0002F0CFE0BB70BC00BD50BE60B000000003C
:0C32F0003312C912C911FA11DA112312AD
:00000001FF
