:100000000C946F010C949C010C949C010C949C0129
:100010000C949C010C949C010C949C010C949C01EC
:100020000C949C010C948C0C0C94BA0C0C94E80C61
:100030000C949C010C949C010C949C010C949C01CC
:100040000C949C010C949C010C949C010C949C01BC
:100050000C949C010C949C010C949C010C945F19D1
:100060000C949C010C94E3120C942B140C949C01A2
:100070000C949C010C949C010C949C010C949C018C
:100080000C949C010C949C010C949C010C949C017C
:100090000C9423130C946A140C949C010C949C01F2
:1000A0000C949C010C949C010C949C010C949C015C
:1000B0000C949C010C949C010C949C010C949C014C
:1000C0000C949C010C949C010C949C010C94631363
:1000D0000C94A9140C949C010C94A3130C94E81494
:1000E0000C949C0100C201000100110011000C00E1
:1000F00000E100000A002500250021000096000014
:100100001900390039003600127A00001F0046003D
:10011000460044008070000022004D004D004A005F
:10012000004B00003600750075007200403800007A
:100130004A009C009C009900802500007200EC00A1
:10014000EC00E900C0120000E900DA01DA01D70191
:1001500060090000D701B603B603B303B004000082
:10016000B3036E076E076B07580200006E07DC0EC4
:10017000DC0ED80E2C010000DC0EC11DC11DBE1D01
:1001800000002100240027002A002D003000330049
:1001900001010000040107010A01000022002500FE
:1001A00028002B002E003100340002010000050160
:1001B00008010B01000020002300260029002C006C
:1001C0002F003200000100000301060109010505AE
:1001D0000505070508080808020202020A0A0808BD
:1001E00004040404010101010101010103030303EB
:1001F00003030303040707070C0C0C0C0C0C0C0C7A
:100200000202020206060606060606060B0B0B0B8A
:100210000B0B0B0B010210202008081020401020AF
:1002200040800201020108040201010204081020BA
:1002300040808040201008040201800402018040B8
:100240002010080402010804020101020408102021
:10025000408001020408102040800000090A0208C2
:100260000B0C0D0706030401000000000000000055
:10027000000000000000000000000000000000007E
:1002800000000000000011100F000000000000003E
:10029000000000000000000000000000000000005E
:1002A000494E46494E4954594E414ECDCCCC3D0A5B
:1002B000D7233C17B7D13877CC2B329595E6241F3E
:1002C000B14F0A000020410000C84200401C4620F7
:1002D000BCBE4CCA1B0E5AAEC59D740058161124E4
:1002E0001FBECFEFD1E2DEBFCDBF00E00CBF12E0FA
:1002F000A0E0B2E0ECE9FEE300E00BBF02C0079033
:100300000D92A83DB107D9F71BBE1AE0A8EDB2E0E7
:1003100001C01D92A235B107E1F712E0CEEDD2E0A7
:1003200004C02297FE010E94FE1ECC3DD107C9F7F2
:100330000E94C6180C944C1F0C9400002F923F9200
:100340005F926F927F928F929F92AF92BF92CF9265
:10035000DF92EF92FF920F931F93CF93DF938C0165
:100360001B01EA016115710519F0FB01918380837E
:10037000209749F0CE010297839728F020E030E0E3
:1003800040E050E0F6C0F801A1908F018A2D90E086
:100390000E940A1F892BB9F7FDE2AF1631F4F8016C
:1003A000A1908F015524539407C0FBE2AF1619F4B6
:1003B000F801A1908F015524209719F0C031D10583
:1003C000C1F4F0E3AF1679F4F8018081883711F0B9
:1003D000883549F4F801A1800E5F1F4FF2E05F2AD3
:1003E000C0E1D0E006C0209721F480E3A816E9F42C
:1003F00027C0C830D10531F1C930D10524F4C2304D
:10040000D10531F50CC0CA30D10589F0C031D10514
:10041000F9F4C12CD12CE12CB8E0FB2E28C0C12C62
:10042000D12CE12CA0E4FA2E22C0CAE0D0E0FCECF2
:10043000CF2EFCECDF2EFCECEF2EFCE0FF2E17C0E5
:10044000C8E0D0E0C12CD12CE12CE0E1FE2E0FC0A1
:100450009E01442737FD4095542F60E070E080E016
:1004600090E80E94C61EC901DA016C017D0120E0FE
:1004700030E040E050E060E03E01882477FC80946A
:10048000982C70EDB72EBA0CE9E0EB1570F48A2DBC
:1004900081548A3118F499ECB92E06C08A2D815600
:1004A0008A3150F589EAB82EBA0C8B2D90E08C1762
:1004B0009D0714F56F3FE1F0C216D306E406F5067A
:1004C000B0F0CA01B901A40193010E94941E9B01DE
:1004D000AC012B0D311D411D511D2130F0E03F07B6
:1004E000F0E04F07F0E85F0710F461E001C06FEF44
:1004F000F801A1908F01C5CF2114310481F066234A
:1005000031F001501040F1011183008308C051FE09
:100510001AC002501040F1011183008314C067FF1C
:1005200012C050FC05C02FEF3FEF4FEF5FE704C054
:1005300020E030E040E050E882E290E09093510A01
:100540008093500A16C050FE08C0509540953095D3
:1005500021953F4F4F4F5F4F0CC057FF0AC082E2BB
:1005600090E09093510A8093500A2FEF3FEF4FEFA6
:100570005FE7B901CA01DF91CF911F910F91FF9001
:10058000EF90DF90CF90BF90AF909F908F907F9033
:100590006F905F903F902F900895662777270C9477
:1005A0001B0348ED52E00E94E9020895FB01DC01C3
:1005B0008D9181341CF08B350CF4805E6191613437
:1005C0001CF06B350CF4605E861B611189F3990B8E
:1005D0000895009731F4DA018D919C91009709F408
:1005E0000EC0DC01FB013D912191222319F032174D
:1005F000C9F3FACF332331F4DA011D921C92882714
:10060000992708951197AF93BF93FB013D912191D5
:10061000321771F4332321F488279927119702C0E8
:100620001E921196FA01A193B0839F918F91089524
:10063000222369F7EACFA0E0B0E0E1E2F3E00C9416
:100640001B1FEC015B016115710519F0FB01918322
:100650008083F9908F2D90E00E940A1F892BC9F7A3
:10066000FDE2FF1621F4F990EE24E39405C02BE29D
:10067000F21609F4F990EE248E0101501040C801E1
:1006800060EA72E043E050E00E947B04892B01F5B0
:100690008E010E5F1F4FC80163EA72E045E050E033
:1006A0000E947B04892B19F48E01095F1F4FA1144E
:1006B000B10419F0F50111830083E0FC04C070E07F
:1006C00090E080E814C070E090E080E86FEF08C12F
:1006D000C80168EA72E043E050E00E947B04892B85
:1006E00069F4A114B10429F470E090E080EC6FE7A4
:1006F000F7C02296F501D183C083F6CF88249924D0
:1007000040E050E060E070E0EF2DE053EA30A0F50B
:10071000F2E0EF2A8E2D90E09C0128703070E2FE0E
:1007200006C0232B79F50894811C911C2BC0232B28
:1007300019F0089481089108DB01CA0112E0880FC2
:10074000991FAA1FBB1F1A95D1F7480F591F6A1F7F
:100750007B1F440F551F661F771F4E0F511D611DD4
:10076000711D483929E9520729E9620729E1720711
:1007700048F084E0E82A06C0EE3F31F4E3FC39C0DB
:1007800098E0E92AF990C0CFE53311F0E53189F519
:1007900029912D3219F4E0E1EE2A05C02B3219F02F
:1007A00081E090E003C0299182E090E0E22FE053E5
:1007B000EA3018F0C81BD90B1CC020E030E0FCE088
:1007C00020383F075CF4C901880F991F880F991FD3
:1007D000280F391F220F331F2E0F311DE991E053CF
:1007E000EA3068F3E4FE03C0309521953F4F820E56
:1007F000931ECE2CDD24E1FE07C0A114B10421F02C
:100800002197F501D183C083CB01BA010E947B1DE2
:100810007B018C01F3E0CF22DD2423E0C216D1045A
:1008200021F417FB109517F9109557016801C801BD
:10083000B70120E030E040E050E00E940F1D882327
:1008400009F44AC097FE0DC02FEBE22E22E0F22EF3
:100850009094819491089394C0E2D0E000E010E07D
:1008600012C097EDE92E92E0F92EF6CFF70125910F
:10087000359145915491C601B5010E94311E5B012D
:100880006C018C1A9D0A8C169D0684F7D595C79528
:100890000F5F1F4F0630110529F08CEF9FEFE80E18
:1008A000F91EF1CFC501D6017C018D018C2D880F79
:1008B0008D2D881F8F3F51F0C601B50120E030E03B
:1008C00040E050E00E940F1D882331F482E290E066
:1008D0009093510A8093500A7E2D9F2D802F612F77
:1008E000272F392F482F562FB901CA01CDB7DEB7B0
:1008F000ECE00C94371FFB01DC014150504088F0C4
:100900008D9181341CF08B350CF4805E65916134DF
:100910001CF06B350CF4605E861B611171F3990B52
:100920000895881BFCCFAF92BF92CF92DF92EF92D7
:10093000FF920F931F936C01FC018281938160E011
:1009400070E04AE050E00E949E017B018C01F601BC
:100950008481958160E070E04AE050E00E949E0151
:100960005B016C0197012150304024303105B8F40F
:100970008BE190E0289F8001299F100D389F100D7A
:1009800011240E51194FB501882777FD8095982FB6
:100990000E947D1DF801668B778B808F918F1F9150
:1009A0000F91FF90EF90DF90CF90BF90AF900895A0
:1009B0000F931F93CF93DF938C01FC01828193816E
:1009C00060E070E04AE050E00E949E01EB01F80117
:1009D0008481958160E070E04AE050E00E949E01D1
:1009E0009E01255030402230310530F0C930D1050C
:1009F00019F0CA30D10579F560347105C1F0613460
:100A0000710544F46130710581F06830710509F0B9
:100A100056C009C0F1E060307F0759F06050744063
:100A200009F04DC008C092E007C091E005C093E016
:100A300003C094E001C095E02230310528F485B56B
:100A4000887F982B95BD3BC080918100887F982B33
:100A50009093810034C0C330D10511F02B9779F504
:100A600060347105F9F06134710554F46830710532
:100A700099F060327105A1F06130710501F50EC089
:100A8000E1E060307E0791F0F4E060307F0781F0B4
:100A900060387105A1F408C092E00BC091E009C074
:100AA00093E007C094E005C095E003C096E001C064
:100AB00097E08091B100887F982B9093B100DF91EF
:100AC000CF911F910F910895FC018481958160E081
:100AD00070E04AE050E00E949E0108958DEB99E09D
:100AE00040E052EC61E070E00E9427158AED92E050
:100AF0009093A3038093A203ACEDB6E0E0E0F0E0B6
:100B000041E05AE02FED39E002C01296FC01CF011E
:100B100001968230910551F08330910559F0813072
:100B2000910589F411963C932E93EFCF11965C9327
:100B30004E93EBCFEE0FFF1FE452F94F83E29AE0A2
:100B400091838083089583309105FCF20895CF92BC
:100B5000DF92EF92FF920F931F938C01FC01828131
:100B6000938160E070E04AE050E00E949E016B01DA
:100B70007C01F8018481958160E070E04AE050E0FA
:100B80000E949E01FB013197E330F10568F4EE0FFE
:100B9000FF1FE452F94FA601662757FD6095762F97
:100BA000808191810E9427151F910F91FF90EF90F6
:100BB000DF90CF9008959F92AF92BF92CF92DF9235
:100BC000EF92FF920F931F93CF93DF938C01DC0181
:100BD00012968D919C91139760E072E00E94D6026C
:100BE0006C01F8018481958160E070E04AE050E09A
:100BF0000E949E017B018C01EB018DEB99E06EEA76
:100C000072E00E94B3181E141F040CF0F0C0992467
:100C1000CD2829F49924939484E090E002C083E0E5
:100C200090E08C179D070CF4E2C0992079F0219791
:100C30008EEC90E0C89FF001C99FF00DD89FF00D99
:100C400011242196E259FB4F118210829E012150FE
:100C500030407901EE0CFF1C8CED96E0E80EF91E99
:100C60008EEC90E0289F8001299F100D389F100D79
:100C700011240C551C4F5AECA52EB12CA00EB11E00
:100C80008DEB99E00E94AE15892BD1F38DEB99E0A5
:100C90000E94DF15D82E992061F0D5018D919C918D
:100CA0001197F801E80FF91FD28201968D939C935A
:100CB0000FC0F701A081B181ED91FC911197682FD0
:100CC000772767FD70950190F081E02DCD01199592
:100CD000DD20B1F68DEB99E06EEA72E00E94B31868
:100CE0006AE070E080E090E00E94171A992009F411
:100CF0007EC06E010894C108D10887E690E0C89EC6
:100D00008001C99E100DD89E100D1124000F111FD7
:100D10000A551C4FEE24FF248EEC90E0C89EE001A3
:100D2000C99ED00DD89ED00D1124CC55DC4F3AEC85
:100D3000A32EB12CAC0EBD1E0FC0E881F981A0819D
:100D4000B1812D913C91CF01D8016D918D01F901B7
:100D500019950894E11CF11CF50180819181E81638
:100D6000F9065CF3FE01E453FF4F118210828EEC12
:100D700090E0C89E8001C99E100DD89E100D1124D0
:100D80000C551C4F2CECE22EF12CE00EF11E29C06C
:100D9000D801ED91FC91A081B18114962D913C91E7
:100DA0001597CF01F9011995892BD9F0F701C08169
:100DB000D181C436D105ACF4F801A081B181ED91A7
:100DC000FC9111970680F781E02DCD011995F8016E
:100DD000EC0FFD1FEA59FF4F80832196D701CD9379
:100DE000DC938DEB99E00E94AE15892B89F2DF919F
:100DF000CF911F910F91FF90EF90DF90CF90BF9018
:100E0000AF909F9008958F929F92AF92BF92CF9292
:100E1000DF92EF92FF920F931F938C01FC0182816E
:100E2000938160E070E04AE050E00E949E01862ECF
:100E3000F8018481958160E070E04AE050E00E9412
:100E40009E01962EF8018681978160E070E04AE06D
:100E500050E00E949E015B016C01F8018085918544
:100E600060E070E04AE050E00E949E0161507040F6
:100E70006430710560F58EEC90E0689F8001699F99
:100E8000100D789F100D11240C551C4F04531F4F4B
:100E9000F80111821082129212928F010A5C1040A6
:100EA0008CE190E00E945C19F82EE92E682D492D06
:100EB00020E00E94660FF801F082E182A50166271A
:100EC00057FD6095762F8F2D9E2D0E94160D1F9138
:100ED0000F91FF90EF90DF90CF90BF90AF909F90D9
:100EE0008F900895AF92BF92CF92DF92EF92FF92D0
:100EF0000F931F93CF93DF938C01FC018281938129
:100F000060E070E04AE050E00E949E017B01F80141
:100F10008481958160E070E04AE050E00E949E018B
:100F20005B016C010894E108F108F4E0EF16F104AC
:100F300038F50E94A7192BE130E0E29EE001E39E24
:100F4000D00DF29ED00D1124CE51D94F6A8B7B8BE0
:100F50008C8B9D8B28813981AB2841F081E08A8F71
:100F6000C90161E070E00E94DC100AC01A8EC9015C
:100F700060E070E00E94DC108C8160E00E94461C02
:100F8000DF91CF911F910F91FF90EF90DF90CF9065
:100F9000BF90AF9008952F923F924F925F926F92C1
:100FA0007F928F929F92AF92BF92CF92DF92EF92F9
:100FB000FF920F931F936C01FC018281938160E08B
:100FC00070E04AE050E00E949E017B018C01F60136
:100FD000848195810E94CD021B012C01F60186813E
:100FE00097810E94CD023B014C01F60180859185DD
:100FF0000E94CD025B016C010894E108F108F4E065
:10100000EF16F104A8F48BE190E0E89EF001E99E70
:10101000F00DF89EF00D1124EE51F94F8081918171
:10102000B201A10194018301760165010E94940F30
:101030001F910F91FF90EF90DF90CF90BF90AF90F6
:101040009F908F907F906F905F904F903F902F90E8
:1010500008952F923F924F925F926F927F928F925C
:101060009F92AF92BF92CF92DF92EF92FF920F9337
:101070001F93DF93CF93CDB7DEB764970FB6F89485
:10108000DEBF0FBECDBF8C01DC0112968D919C910D
:10109000139760E070E04AE050E00E949E016B010F
:1010A0007C01F8018481958160E070E04AE050E0C5
:1010B0000E949E01698B7A8B8B8B9C8BD801169634
:1010C0008D919C91179760E070E04AE050E00E949B
:1010D0009E016D877E878F87988BF801808591852B
:1010E00060E070E04AE050E00E949E0169877A87E4
:1010F0008B879C87D8011A968D919C911B970E9493
:10110000CD026D837E838F839887F80184859585D2
:101110000E94CD0269837A838B839C83D8011E96BB
:101120008D919C911F970E94CD021B012C01089468
:10113000C108D108B4E0CB16D10408F06BC08BE134
:1011400090E0C89E8001C99E100DD89E100D1124FC
:1011500072EE872E76E0972E800E911E89899A89ED
:10116000F40193838283AD85BE85B583A483E9852D
:10117000FA859F01442737FD4095542FD4011E96D0
:101180002D933D934D935C93519789E390E00E949A
:101190005C19782E692E00D000D0A8014451594F17
:1011A00098012850394FEDB7FEB721823282438231
:1011B0005482168215820851194FB801ED80FE80C5
:1011C0000F811885A980BA80CB80DC800E944D12E7
:1011D000D4017C9211966C921197EDB7FEB73696BA
:1011E0000FB6F894FEBF0FBEEDBF1E966D917D91B8
:1011F0008D919C9151970E947B1D8B019C01872DA5
:10120000962D40E050E060E070E00E946010D40154
:101210005A961C9264960FB6F894DEBF0FBECDBFEF
:10122000CF91DF911F910F91FF90EF90DF90CF90C2
:10123000BF90AF909F908F907F906F905F904F90F6
:101240003F902F900895CF92DF92EF92FF920F93ED
:101250001F93CF93DF938C01FC018281938160E027
:1012600070E04AE050E00E949E01D62EC62EF801A2
:10127000C481D5818681978160E070E04AE050E0CA
:101280000E949E017B018C01CE0165E072E00E940C
:10129000D602892B51F4EF2819F48D2D60E002C09D
:1012A0008D2D61E00E94461C15C0CE016AE072E0FF
:1012B0000E94D602892B71F4B7016F3F710519F0B6
:1012C00014F06FEF70E077FF02C060E070E08C2DEB
:1012D0000E94B31ADF91CF911F910F91FF90EF9071
:1012E000DF90CF9008958F929F92AF92BF92DF923E
:1012F000EF92FF920F931F93DF93CF930F920F9272
:10130000CDB7DEB75C017B0101E010E04E0108942F
:10131000811C911C3EC0D7011296ED91FC91139750
:10132000808189831A8212968D919C9113970196E0
:1013300060E070E04AE050E00E949E01D62EC401B9
:101340006FE072E00E94D602892B21F48D2D0E945D
:10135000791C0AC0C40161E172E00E94D602892BA7
:10136000E1F48D2D0E947F1ABC018DEB99E04AE0DB
:1013700050E00E94A0180A151B052CF48DEB99E093
:1013800060E20E94B8170F5F1F4FE2E0F0E0EE0E40
:10139000FF1EA016B1060CF0BECF0F900F90CF919C
:1013A000DF911F910F91FF90EF90DF90BF90AF9072
:1013B0009F908F9008950F931F938C01FC01828161
:1013C000938160E070E04AE050E00E949E017093DB
:1013D000500760934F07F8018481958160E070E0C9
:1013E0004AE050E00E949E016093550770935607B3
:1013F000809357079093580780914F0761E00E94B0
:10140000931B0E94A7196093510770935207809312
:1014100053079093540781E080934E071F910F91DB
:1014200008951F9310E0812F60E00E94931B1F5FBF
:101430001633C9F71F910895FF920F931F93CF930F
:10144000DF938C01FC018281938160E070E04AE0CF
:1014500050E00E949E01F62EF801C481D581CE0194
:1014600063E172E00E94D602892B19F48F2D60E0AF
:1014700009C0CE0166E172E00E94D602892B21F4F8
:101480008F2D61E00E94931BDF91CF911F910F91EF
:10149000FF9008958F929F92AF92BF92CF92DF926A
:1014A000EF92FF920F931F93DF93CF93CDB7DEB7E9
:1014B000EC970FB6F894DEBF0FBECDBF80914E07FC
:1014C0008130A1F50E94A7197B018C0180915507FD
:1014D00090915607A0915707B09158072091510756
:1014E000309152074091530750915407820F931F38
:1014F000A41FB51F8E159F05A007B107B8F4E09291
:101500005107F092520700935307109354078091AC
:101510004F070E94791C019721F480914F0760E0EA
:1015200003C080914F0761E00E94461CE2EECE2E80
:10153000E6E0DE2EF601828D882309F455C0828113
:101540000E947F1AAA2797FDA095BA2FBC01CD0152
:101550000E947D1DF6016683778380879187808155
:1015600091810E9430110E94A7197B018C01F60124
:1015700082889388A488B5882685378540895189D3
:10158000DC01CB0188199909AA09BB092817390779
:101590004A075B0740F4280D391D4A1D5B1D228B4D
:1015A000338B448B558BF60182899389A489B58945
:1015B000E81AF90A0A0B1B0BC801B7010E947B1D30
:1015C0009B01AC01F60162857385848595850E9437
:1015D0002D1E181624F4F601848161E003C0F60183
:1015E000848160E00E94461C8BE190E0C80ED91E09
:1015F0009EE4C91697E0D90609F09CCF8DEB99E0DF
:101600000E94AE15892B09F40AC18DEB99E00E9466
:10161000DF15182F8A3009F402C18D3009F0EBC0B4
:101620008DEB99E06AE172E00E94B318E091A203A9
:10163000F091A30310828AED92E09093A30380932C
:10164000A2036BE172E00E94D1029A8389838E012A
:101650000D5F1F4FEE24FF240894E11CF11C80E075
:1016600090E06BE172E00E94D102F80191838083E7
:10167000FEE1EF16F10421F00E5F1F4F892B61F799
:101680008B819C8160E070E04AE050E00E949E0106
:1016900009811A81C8016DE172E00E94D602892B8E
:1016A00029F4CE0101960E941C0A9EC0C80161E285
:1016B00072E00E94D602892B19F40E94110A94C08C
:1016C000C80167E272E00E94D602892B29F4CE019C
:1016D00001960E94DB0988C0C80160E372E00E94A5
:1016E000D602892B51F48E2D992787FD9095BE0146
:1016F0006F5F7F4F0E94730977C0C80165E372E096
:101700000E94D602892B29F4CE0101960E9423095A
:101710006BC0C8016BE372E00E94D602892B29F4EA
:10172000CE0101960E94D8045FC0C80166E472E051
:101730000E94D602892B29F4CE0101960E94290825
:1017400053C0C80165E572E00E94D602892B29F4D6
:10175000CE0101960E94930447C0C80161E672E081
:101760000E94D602892B29F4CE0101960E94CB0754
:101770003BC0C8016EE672E00E94D602892B29F4B4
:10178000CE0101960E9472072FC0C8016DE772E07A
:101790000E94D602892B29F4CE0101960E94A7054A
:1017A00023C0C8016CE872E00E94D602892B29F49C
:1017B000CE0101960E94030717C0C8016BE972E0D1
:1017C0000E94D602892B29F4CE0101960E94DB05E6
:1017D0000BC0C80163EA72E00E94D602892BF9F4BB
:1017E000CE0101960E9464058DEB99E06EEA72E0ED
:1017F0000E94B31814C0992787FD90950E94041F7A
:10180000892B69F0E091A203F091A30323E0E23A6F
:10181000F20728F41193F093A303E093A203EC964C
:101820000FB6F894DEBF0FBECDBFCF91DF911F91F1
:101830000F91FF90EF90DF90CF90BF90AF909F906F
:101840008F9008950F931F93CF93DF93FC01738DB7
:1018500076957170A685B7859585772329F08C914B
:10186000892309F454C004C08C91892309F04FC026
:101870008389948920E001972FEF8F3F9207D9F752
:10188000C589D689A685B785158560E031E040E039
:1018900050E000E0CE01202F01972FEF8F3F9207FD
:1018A000D9F78C91812311F0632B03C0832F80958E
:1018B0006823330F4F5F5F4F4830510559F78789D1
:1018C000908D20E001972FEF8F3F9207D9F771118C
:1018D000609580919B0720919C0790E001968F7303
:1018E000907030E08217930779F0E0919B07F0E069
:1018F000E55AF84F608380919B0790E001968F73C3
:10190000907080939B0703C0838D8160838FDF91EC
:10191000CF911F910F9108951F920F920FB60F92C2
:101920000BB60F9211242F933F934F935F936F93B6
:101930007F938F939F93AF93BF93EF93FF93809188
:10194000590790915A07009711F00E94220CFF91BD
:10195000EF91BF91AF919F918F917F916F915F9127
:101960004F913F912F910F900BBE0F900FBE0F9094
:101970001F9018951F920F920FB60F920BB60F92F1
:1019800011242F933F934F935F936F937F938F9384
:101990009F93AF93BF93EF93FF93809159079091DB
:1019A0005A07009711F00E94220CFF91EF91BF910E
:1019B000AF919F918F917F916F915F914F913F91E7
:1019C0002F910F900BBE0F900FBE0F901F90189588
:1019D0001F920F920FB60F920BB60F9211242F93F6
:1019E0003F934F935F936F937F938F939F93AF93A7
:1019F000BF93EF93FF938091590790915A070097F7
:101A000011F00E94220CFF91EF91BF91AF919F9135
:101A10008F917F916F915F914F913F912F910F9097
:101A20000BBE0F900FBE0F901F901895CF92DF92B4
:101A3000EF92FF920F931F93CF93DF93EC017A0104
:101A40008B011A8E198E188E1F8A1E8A1D8A1C8A77
:101A50001B8A20E030E06901CC0CDD1CC20ED31ED5
:101A6000B601660F771F660F771FAB014C515F4FB2
:101A7000FA0185919591A591B4918E159F05A007C6
:101A8000B107E9F4FB01E851FF4F859194919C8BDC
:101A90008B8BFB01E651FF4F859194919E8B8D8B33
:101AA000FB01E451FF4F85919491988F8F8BFB013F
:101AB000E251FF4F859194919A8F898F06C02F5FD5
:101AC0003F4F2D30310509F0C6CF8F89988D892B76
:101AD00009F468C09C85292F2A50243040F0892FB2
:101AE0008253843020F08C50883008F053C03091FD
:101AF0006800243048F0892F8253843028F09E53A8
:101B0000983010F484E001C081E0832B809368005A
:101B10002C85922F9A50943090F0822F82538430EB
:101B200070F08C50883008F455C0A0E0B0E08830E8
:101B300018F0E0E0F0E007C0EDE6F0E004C0EBE60E
:101B4000F0E0ABE6B0E04081943020F430E0265085
:101B5000304015C0223311F488E01AC0233311F449
:101B600084E016C0243311F482E012C0253379F0EA
:101B7000822F8E53883058F430E02E53304081E06D
:101B800090E002C0880F991F2A95E2F701C081E01A
:101B9000842B8C93898D9A8D20E001972FEF8F3FB6
:101BA0009207D9F78091590790915A078C179D0792
:101BB000A1F08B8D8E7F8B8F9FB7F89410929B072F
:101BC00080919B0780939C07D0935A07C093590735
:101BD0009FBF03C0ADE6B0E0AACFDF91CF911F91C8
:101BE0000F91FF90EF90DF90CF90089520915907CB
:101BF00030915A072817390731F490919C0780914A
:101C00009B07981719F42FEF3FEF0FC0E0919C0747
:101C1000F0E0E55AF84F208180919C0790E0019612
:101C20008F73907080939C0730E0C90108952091D4
:101C3000590730915A072817390719F020E030E08A
:101C40000EC080919B0720919C0790E0805C9F4F85
:101C5000821B910960E470E00E94B31E9C01C901DF
:101C600008950F931F93DC0159968D919C915A977B
:101C7000892B49F481E090E013969C938E93129700
:101C800020E030E097C00FB7F8945B968C915B979B
:101C90005196ED91FC91529750962C91509781FF5F
:101CA0008DC08081822B808359968D919C915A970B
:101CB000059620E001972FEF8F3F9207D9F75B96AB
:101CC0008C915B9781FF35C031E040E050E070E0DF
:101CD00010E0832F90E0862397235196ED91FC919D
:101CE000529750962C915097892B29F080812095FE
:101CF0002823208303C08081822B808359968D9175
:101D00009C915A97212F01972FEF8F3F9207D9F778
:101D1000330F4F5F5F4F48305105D9F65196ED9123
:101D2000FC915297908150968C9150978095892381
:101D300033C031E040E050E070E010E0832F90E0ED
:101D4000862397235196ED91FC91529750962C91B2
:101D50005097892B21F08081822B808304C0808161
:101D600020952823208359968D919C915A97212F55
:101D700001972FEF8F3F9207D9F7330F4F5F5F4FD8
:101D800048305105D9F65196ED91FC9152978081DA
:101D900050969C915097892B80830FBF59968D91B7
:101DA0009C915A9720E001972FEF8F3F9207D9F728
:101DB00021E030E0C9011F910F91089580812095A5
:101DC0002823208371CF2091590730915A07281773
:101DD000390749F49FB7F89410929B0780919B07AD
:101DE00080939C079FBF08952091590730915A070F
:101DF0002817390731F490919C0780919B07981719
:101E000019F42FEF3FEF0AC0E0919C07F0E0E55A8C
:101E1000F84F8081282F332727FD3095C901089579
:101E20001F93CF93DF93EC01162F862F60E00E9463
:101E3000931B8B8D81FD04C0812F61E00E94461CA5
:101E40001C87212F30E0C9018C5E9D4FFC018491DD
:101E50008D8722533E4FF9016491E62FF0E0EE0F9B
:101E6000FF1FEC54FE4F859194919F878E87DF91E1
:101E7000CF911F910895FF920F931F938C01F62E1F
:101E8000862F61E00E94931B8F2D61E00E94461C0B
:101E90008F2D90E0FC01EC5EFD4FE491D80150964F
:101EA000EC93509782539E4FFC016491E62FF0E033
:101EB000EE0FFF1FE656FE4F8591949152969C932C
:101EC0008E9351971F910F91FF900895FF920F935A
:101ED0001F938C01F62EFC011382128288EE93E090
:101EE000A0E0B0E084839583A683B7838CEB92E077
:101EF00091838083148A138A168A158A108E178A12
:101F0000128E118E838D2170220F8C7F822B838FF6
:101F1000C801642F0E943B0FC8016F2D0E94100F53
:101F20001F910F91FF9008952F923F924F925F92D1
:101F30006F927F928F929F92AF92BF92CF92DF92D9
:101F4000EF92FF920F931F93DF93CF9300D00F92E6
:101F5000CDB7DEB71C0149835A836B837C8348016C
:101F6000590126013701CB01BA0120E030E040E001
:101F700050E00E940F1D87FD8CC0C501B40120E018
:101F800030E040E050E00E940F1D87FD82C0C70195
:101F9000B60120E030E040E050E00E940F1D87FDD8
:101FA00078C089819A81AB81BC81F1018083918362
:101FB000A283B383D10114968D929D92AD92BC926F
:101FC0001797C086D186E286F38664A575A586A597
:101FD00097A50E947B1D20E030E04AE754E40E9470
:101FE000131D7B018C0189819A81AB81BC81F10138
:101FF00084879587A687B787C501B401A801970193
:102000000E94311E5B016C01D10150966D937D934E
:102010008D939C935397C301B201A80197010E942D
:10202000131D7B018C01F101648B758B868B978B63
:10203000808D918D019769F560E070E080E090E01F
:1020400029813A814B815C810E94AA1CD1011C9696
:102050006D937D938D939C931F9760E070E080E07B
:1020600090E0A60195010E94AA1CF101608B718B82
:10207000828B938B60E070E080E090E0A801970194
:102080000E94AA1CD10154966D937D938D939C93CD
:1020900057970F900F900F900F90CF91DF911F9156
:1020A0000F91FF90EF90DF90CF90BF90AF909F90F7
:1020B0008F907F906F905F904F903F902F900895FA
:1020C0004F925F926F927F928F929F92AF92BF9248
:1020D000CF92DF92EF92FF920F931F93CF93DF93F4
:1020E000EC013A014B0178018901CB01BA01A80149
:1020F00097010E942D1E87FF4EC068AA79AA8AAA5E
:102100009BAAECAAFDAA0EAB1FAB88AD882309F4ED
:1021100042C04C8C5D8CF201A080B180C280D38023
:10212000C601B501A80197010E942D1E181634F4AE
:10213000F201E082F182028313830DC0C601B50172
:10214000A40193010E940F1D88232CF4F2016082E8
:10215000718282829382ACA0BDA0CEA0DFA0ECA849
:10216000FDA80EA91FA9C601B501A80197010E94EB
:102170002D1E181664F0E8A8F9A80AA91BA9C60123
:10218000B501A80197010E940F1D882324F4ECA239
:10219000FDA20EA31FA3DF91CF911F910F91FF907E
:1021A000EF90DF90CF90BF90AF909F908F907F90F7
:1021B0006F905F904F9008959F92AF92BF92CF9291
:1021C000DF92EF92FF920F931F93CF93DF93EC0177
:1021D00099246130710511F49924939488AD91E0AC
:1021E0008927981681F5EC8DFD8DE080F1800281C4
:1021F0001381ECA2FDA20EA31FA3EA8DFB8D8081AB
:102200009181A281B38188A799A7AAA7BBA7ACA8EF
:10221000BDA8CEA8DFA8C801B701A60195010E94FC
:102220002D1E181664F0A8A8B9A8CAA8DBA8C80172
:10223000B701A60195010E940F1D882324F4ACA2CA
:10224000BDA2CEA2DFA298AEDF91CF911F910F91D8
:10225000FF90EF90DF90CF90BF90AF909F90089548
:102260002F923F924F925F926F927F928F929F92A6
:10227000AF92BF92CF92DF92EF92FF920F931F9394
:10228000DF93CF9300D000D0CDB7DEB79E838D8390
:10229000DC01D8968C91882309F4E5C00E94A71927
:1022A00069837A838B839C83ED81FE8180A191A1D8
:1022B000A2A1B3A129813A814B815C81281B390BF2
:1022C0004A0B5B0B84A595A5A6A5B7A528173907CA
:1022D0004A075B0708F4C7C0028CF38DE02D20800D
:1022E000318042805380AD81BE815E96ED91FC913C
:1022F0005F976081718182819381A20191010E9427
:10230000AA1C3B014C01ED81FE8120893189428963
:1023100053890E94311EAD81BE8194962D913D91CD
:102320004D915C9197970E94AB1C7B018C01ED81D4
:10233000FE8164A375A386A397A3A4A8B5A8C6A885
:10234000D7A8A60195010E942D1E181674F0ED81E4
:10235000FE81A0A8B1A8C2A8D3A8C801B701A60150
:1023600095010E940F1D882344F4AD81BE8194968F
:10237000AD92BD92CD92DC929797C401B301ED81ED
:10238000FE8124853585468557850E94311EAD81A5
:10239000BE8194962D913D914D915C9197970E94AD
:1023A000AB1C7B018C01C201B101ED81FE8120A536
:1023B00031A542A553A50E94AA1CAD81BE815496A9
:1023C0002D913D914D915C9157970E94311E9B013B
:1023D000AC01C801B7010E94AA1C7B018C01ED81F0
:1023E000FE81D4A8C5A8B6A8A7A82D2D3C2D4B2D9D
:1023F0005A2D0E942D1E1816BCF0AD81BE81D096BC
:10240000DC90D097D196CC90D197D296BC90D297B1
:10241000D396AC90C801B7012D2D3C2D4B2D5A2DD4
:102420000E940F1D882334F48D2D9C2DAB2DBA2DC9
:102430007C018D01AD81BE815C96ED91FC915D9733
:10244000E082F18202831383FD0120A631A642A619
:1024500053A689819A81AB81BC8180A391A3A2A359
:10246000B3A381E001C080E026960FB6F894DEBFEA
:102470000FBECDBFCF91DF911F910F91FF90EF90D5
:10248000DF90CF90BF90AF909F908F907F906F9094
:102490005F904F903F902F9008954F925F926F9270
:1024A0007F928F929F92AF92BF92CF92DF92EF92E4
:1024B000FF920F931F93DF93CF93CDB7DEB74C01FD
:1024C00027013801E88CF98CFC01558F448F738FFC
:1024D000628F378F268F10AE40E050E060E070E0F2
:1024E00000E010E02FE733E40E94601084E690E003
:1024F000A0E0B0E0F40184A795A7A6A7B7A780AD98
:10250000882391F1808D918DE816F90669F160E0DC
:1025100070E080E090E024853585468557850E94EF
:10252000AA1CF401648775878687978760E070E04E
:1025300080E090E020893189428953890E94AA1C59
:10254000F401608B718B828B938B60E070E080E094
:1025500090E024893589468957890E94AA1CF40194
:10256000648B758B868B978BF401F18EE08EC401A2
:10257000B301A20196018501CC88DD88EE88FF8831
:102580000E94940F0E94A719F40124A535A546A521
:1025900057A5621B730B840B950B60A371A382A3D9
:1025A00093A3CF91DF911F910F91FF90EF90DF9058
:1025B000CF90BF90AF909F908F907F906F905F90E3
:1025C0004F90089508951F920F920FB60F920BB679
:1025D0000F9211242F933F934F938F939F93EF93D9
:1025E000FF938091C00082FD1DC04091C6002091E4
:1025F000DD073091DE072F5F3F4F2F7330708091E2
:10260000DF079091E0072817390771F0E091DD07A7
:10261000F091DE07E356F84F40833093DE072093B6
:10262000DD0702C08091C600FF91EF919F918F91CD
:102630004F913F912F910F900BBE0F900FBE0F90B7
:102640001F90189508951F920F920FB60F920BB618
:102650000F9211242F933F934F938F939F93EF9358
:10266000FF938091C80082FD1DC04091CE00209153
:102670006508309166082F5F3F4F2F73307080914F
:102680006708909168082817390771F0E09165088C
:10269000F0916608EB5DF74F408330936608209316
:1026A000650802C08091CE00FF91EF919F918F91BC
:1026B0004F913F912F910F900BBE0F900FBE0F9037
:1026C0001F90189508951F920F920FB60F920BB698
:1026D0000F9211242F933F934F938F939F93EF93D8
:1026E000FF938091D00082FD1DC04091D6002091C3
:1026F000ED083091EE082F5F3F4F2F7330708091BF
:10270000EF089091F0082817390771F0E091ED0873
:10271000F091EE08E355F74F40833093EE08209395
:10272000ED0802C08091D600FF91EF919F918F91AB
:102730004F913F912F910F900BBE0F900FBE0F90B6
:102740001F90189508951F920F920FB60F920BB617
:102750000F9211242F933F934F938F939F93EF9357
:10276000FF938091300182FD1DC040913601209180
:102770007509309176092F5F3F4F2F73307080912C
:102780007709909178092817390771F0E091750958
:10279000F0917609EB5CF64F4083309376092093F5
:1027A000750902C080913601FF91EF919F918F9141
:1027B0004F913F912F910F900BBE0F900FBE0F9036
:1027C0001F901895E091C909F091CA09E05CFF4F8C
:1027D0008191919120813181821B930B8F73907035
:1027E000892B11F00E94E212E091EB09F091EC09C3
:1027F000E05CFF4F8191919120813181821B930B8D
:102800008F739070892B11F00E942213E0910D0AB2
:10281000F0910E0AE05CFF4F81919191208131810E
:10282000821B930B8F739070892B11F00E9462139F
:10283000E0912F0AF091300AE05CFF4F8191919175
:1028400020813181821B930B8F739070892B11F043
:102850000E94A21308951F920F920FB60F920BB60B
:102860000F9211242F933F938F939F93EF93FF9396
:10287000209121083091220880912308909124080A
:102880002817390731F48091C1008F7D8093C100F2
:1028900014C0E0912308F0912408EF51F84F2081F3
:1028A000809123089091240801968F7390709093E3
:1028B0002408809323082093C600FF91EF919F91F5
:1028C0008F913F912F910F900BBE0F900FBE0F90E5
:1028D0001F9018951F920F920FB60F920BB60F9282
:1028E00011242F933F938F939F93EF93FF93209106
:1028F000A9083091AA088091AB089091AC082817DC
:10290000390731F48091C9008F7D8093C90014C0CC
:10291000E091AB08F091AC08E759F74F2081809126
:10292000AB089091AC0801968F7390709093AC08AF
:102930008093AB082093CE00FF91EF919F918F91F0
:102940003F912F910F900BBE0F900FBE0F901F90D5
:1029500018951F920F920FB60F920BB60F9211247B
:102960002F933F938F939F93EF93FF932091310980
:102970003091320980913309909134092817390731
:1029800031F48091D1008F7D8093D10014C0E0910B
:102990003309F0913409EF50F74F208180913309CA
:1029A0009091340901968F739070909334098093BD
:1029B00033092093D600FF91EF919F918F913F9122
:1029C0002F910F900BBE0F900FBE0F901F90189578
:1029D0001F920F920FB60F920BB60F9211242F93E6
:1029E0003F938F939F93EF93FF932091B909309179
:1029F000BA098091BB099091BC092817390731F4B5
:102A0000809131018F7D8093310114C0E091BB0929
:102A1000F091BC09E758F64F20818091BB09909155
:102A2000BC0901968F7390709093BC098093BB0989
:102A300020933601FF91EF919F918F913F912F91BC
:102A40000F900BBE0F900FBE0F901F901895AF9276
:102A5000BF92DF92EF92FF920F931F93CF93DF937A
:102A6000EC017A018B01DD24403081EE580780E0D3
:102A7000680780E0780711F0DD24D39491E0A92E57
:102A8000B12CEC89FD89DD2069F0C50108A002C0E8
:102A9000880F991F0A94E2F7808360E079E08DE364
:102AA00090E005C0108260E874E88EE190E0A80133
:102AB00097010E94C61E215030404040504056951C
:102AC00047953795279580E12030380720F0DD20A5
:102AD00011F0DD24D6CFE889F9893083EA89FB89B2
:102AE000208319A2EE89FF89408121E030E0C901ED
:102AF0000C8C02C0880F991F0A94E2F7482B408380
:102B0000EE89FF894081C9010D8C02C0880F991F91
:102B10000A94E2F7482B4083EE89FF894081C9017E
:102B20000E8C02C0880F991F0A94E2F7482B40834D
:102B3000EE89FF8980810F8C02C0220F331F0A9417
:102B4000E2F7209528232083DF91CF911F910F91E9
:102B5000FF90EF90DF90BF90AF900895DC011C963E
:102B6000ED91FC911D97E05CFF4F219131918081A7
:102B70009181281B390B2F733070C9010895DC0136
:102B80001C96ED91FC911D97E05CFF4F20813181F7
:102B9000E054F040DF01AE5BBF4F8D919C911197E7
:102BA0002817390719F42FEF3FEF07C08D919C913B
:102BB000E80FF91F8081282F30E0C9010895DC015A
:102BC0001C96ED91FC911D97E05CFF4F20813181B7
:102BD000E054F040DF01AE5BBF4F8D919C911197A7
:102BE0002817390719F42FEF3FEF10C08D919C91F2
:102BF0001197E80FF91F20818D919C9111970196F3
:102C00008F73907011969C938E9330E0C901089554
:102C1000DC0191968C919197882339F05496ED912F
:102C2000FC915597808186FFF9CF91961C9208956B
:102C3000CF93DF93EC01EE85FF85E05CFF4F2081B1
:102C40003181E054F0402F5F3F4F2F733070DF0130
:102C5000AE5BBF4F8D919C91119728173907D1F327
:102C6000E05CFF4F80819181E054F040E80FF91F54
:102C70006083EE85FF85E05CFF4F31832083EE8922
:102C8000FF89208181E090E00F8C02C0880F991F9E
:102C90000A94E2F7282B208381E089A3EC89FD893F
:102CA00080818064808381E090E0DF91CF910895FE
:102CB0001F931092C0091092BF0928EE33E040E044
:102CC00050E02093C1093093C2094093C309509347
:102CD000C4096CEC72E07093BE096093BD098DE984
:102CE00097E09093CA098093C90981EE97E0909389
:102CF000CC098093CB0985EC90E09093CE0980932A
:102D0000CD0984EC90E09093D0098093CF0980ECBA
:102D100090E09093D2098093D10981EC90E0909358
:102D2000D4098093D30982EC90E09093D6098093E4
:102D3000D50986EC90E09093D8098093D70914E0E8
:102D40001093D909B3E0B093DA09A7E0A093DB09A7
:102D5000F5E0F093DC09E1E0E093DD091092E2098F
:102D60001092E1092093E3093093E4094093E509C7
:102D70005093E6097093E0096093DF0985E298E0DB
:102D80009093EC098093EB0989E698E09093EE0923
:102D90008093ED098DEC90E09093F0098093EF091A
:102DA0008CEC90E09093F2098093F10988EC90E02C
:102DB0009093F4098093F30989EC90E09093F609DD
:102DC0008093F5098AEC90E09093F8098093F709D5
:102DD0008EEC90E09093FA098093F9091093FB0927
:102DE000B093FC09A093FD09F093FE09E093FF095D
:102DF0001092040A1092030A2093050A3093060ADF
:102E00004093070A5093080A7093020A6093010ADC
:102E10008DEA98E090930E0A80930D0A81EF98E076
:102E20009093100A80930F0A85ED90E09093120A18
:102E30008093110A84ED90E09093140A8093130A12
:102E400080ED90E09093160A8093150A81ED90E052
:102E50009093180A8093170A82ED90E090931A0AD3
:102E60008093190A86ED90E090931C0A80931B0AC8
:102E700010931D0AB0931E0AA0931F0AF093200A14
:102E8000E093210A1092260A1092250A2093270A1D
:102E90003093280A4093290A50932A0A7093240AEF
:102EA0006093230A85E399E09093300A80932F0A78
:102EB00089E799E09093320A8093310A85E391E0A3
:102EC0009093340A8093330A84E391E09093360A16
:102ED0008093350A80E391E09093380A8093370A13
:102EE00081E391E090933A0A8093390A82E391E07A
:102EF00090933C0A80933B0A86E391E090933E0ACC
:102F000080933D0A10933F0AB093400AA093410A70
:102F1000F093420AE093430A1F910895CF92DF9203
:102F2000EF92FF920F931F93CF93DF937C016B017E
:102F30008A01C0E0D0E00FC0D6016D916D01D701CC
:102F4000ED91FC910190F081E02DC7011995C80F1A
:102F5000D91F015010400115110571F7CE01DF9105
:102F6000CF911F910F91FF90EF90DF90CF90089538
:102F7000DC01ED91FC910190F081E02D199508950F
:102F8000EF92FF920F931F938C01DC01ED91FC9166
:102F90000190F081E02D6DE019957C01D801ED9153
:102FA000FC910190F081E02DC8016AE019959C0127
:102FB0002E0D3F1DC9011F910F91FF90EF900895B5
:102FC000CF93DF93EC016115710519F420E030E037
:102FD0000FC0DB010D900020E9F71197A61BB70B7E
:102FE000E881F9810280F381E02DAD0119959C0102
:102FF000C901DF91CF9108954F925F927F928F9296
:103000009F92AF92BF92CF92DF92EF92FF920F9377
:103010001F93DF93CF93CDB7DEB7A1970FB6F89488
:10302000DEBF0FBECDBF2C01742ECB01223008F4C1
:103030002AE019A231E2C32ED12CCC0EDD1E822E45
:103040009924AA24BB24672D752FA50194010E9401
:10305000C61E79018A01C801B701A50194010E9429
:10306000941E472D461B0894C108D1084A3014F419
:10307000405D01C0495CF6014083E114F1040105A3
:10308000110521F07E2C5F2DC801DDCFC201B601F4
:103090000E94E017A1960FB6F894DEBF0FBECDBF19
:1030A000CF91DF911F910F91FF90EF90DF90CF9024
:1030B000BF90AF909F908F907F905F904F900895BA
:1030C000CF92DF92EF92FF920F931F93CF93DF93F4
:1030D000EC016A017B012115310541F4E881F98198
:1030E0000190F081E02D642F19951FC02A30310521
:1030F000D1F477FF17C0E881F9810190F081E02DCC
:103100006DE219958C0144275527BA014C195D09C8
:103110006E097F09CE012AE00E94FC179801280F52
:10312000391F04C02AE00E94FC179C01C901DF91ED
:10313000CF911F910F91FF90EF90DF90CF90089566
:10314000EF92FF920F931F937B019A010027F7FCE8
:103150000095102FB801A7010E9460181F910F91D0
:10316000FF90EF900895EF92FF920F931F937C01D1
:103170000E94E0178C01C7010E94C017080F191F99
:10318000C8011F910F91FF90EF900895CF93DF93A7
:103190000E94B5190E946E05C2EED3E10E944A0A50
:1031A0002097E1F30E94E213F9CF0F931F93CF937F
:1031B000DF93BC018230910510F462E070E0E09191
:1031C0004E0AF0914F0AA0E0B0E040E050E024C089
:1031D0008081918186179707D0F08617970771F441
:1031E00082819381109729F013969C938E93129766
:1031F0002CC090934F0A80934E0A27C04115510569
:1032000019F08417950718F4EF018D01AC01DF0167
:10321000828193819C01F9013097D1F641155105C6
:10322000F9F0CA01861B970B8430910580F48A81DE
:103230009B810115110521F0F8019383828304C05D
:1032400090934F0A80934E0AFE0132962FC0FE01E2
:10325000E80FF91F6193719302979983888326C0C1
:103260008DB79EB7885790402091B3023091B40239
:1032700028173907C8F4AC01421B530B46175707F0
:1032800098F0CB0102964817590770F0820F931FF0
:103290009093B4028093B3029093B6028093B502E8
:1032A000F9016193719302C0E0E0F0E0CF01DF919A
:1032B000CF911F910F9108950E94D51808951F92E4
:1032C0000F920FB60F9211242F933F938F939F93DA
:1032D000AF93BF938091490A90914A0AA0914B0AFB
:1032E000B0914C0A30914D0A0196A11DB11D232FBA
:1032F0002D5F2D3720F02D570196A11DB11D209374
:103300004D0A8093490A90934A0AA0934B0AB093BE
:103310004C0A8091450A9091460AA091470AB091C3
:10332000480A0196A11DB11D8093450A9093460A53
:10333000A093470AB093480ABF91AF919F918F9194
:103340003F912F910F900FBE0F901F9018958FB740
:10335000F8942091490A30914A0A40914B0A5091C1
:103360004C0A8FBFB901CA010895789484B5826070
:1033700084BD84B5816084BD85B5826085BD85B519
:10338000816085BDEEE6F0E0808181608083E1E8C8
:10339000F0E0108280818260808380818160808300
:1033A000E0E8F0E0808181608083E1EBF0E0808103
:1033B00084608083E0EBF0E0808181608083E1E9DC
:1033C000F0E0808182608083808181608083E0E999
:1033D000F0E0808181608083E1EAF0E080818260BA
:1033E0008083808181608083E0EAF0E08081816079
:1033F0008083E1E2F1E0808182608083808181606E
:103400008083E0E2F1E0808181608083EAE7F0E0A0
:1034100080818460808380818260808380818160FC
:1034200080838081806880831092C1000895EF922C
:10343000FF920F931F93CF93DF937B018C013FB7D4
:10344000F8948091450A9091460AA091470AB0915C
:10345000480A26B5A89B05C02F3F19F00196A11D6B
:10346000B11D3FBFBA2FA92F982F8827820F911D1A
:10347000A11DB11D52E0880F991FAA1FBB1F5A95AD
:10348000D1F7EC0130C00E94A91C3FB7F89480919D
:10349000450A9091460AA091470AB091480A26B57C
:1034A000A89B05C02F3F19F00196A11DB11D3FBF7C
:1034B000BA2FA92F982F8827820F911DA11DB11D0A
:1034C00032E0880F991FAA1FBB1F3A95D1F78C1BBA
:1034D0009D0B885E9340B8F20894E108F108010959
:1034E0001109C851DC4FE114F1040105110559F629
:1034F000DF91CF911F910F91FF90EF900895382F9A
:10350000863308F0365320917B00832F869586956D
:10351000869590E08170907043E0880F991F4A95DE
:10352000E1F7277F282B20937B0037708091B7022B
:103530008295880F880F807C832B80937C008091FC
:103540007A00806480937A0080917A0086FDFCCFB7
:103550002091780040917900942F80E030E0282B72
:10356000392BC90108951F93CF93DF93182FEB01D7
:1035700061E00E94931B209709F4CAC0CF3FD10598
:1035800009F4C9C0E12FF0E0E65AFD4F849189307B
:1035900009F466C08A30B0F48430F1F1853040F42B
:1035A000823059F1833070F5813009F0AEC020C00F
:1035B000873009F443C0883008F048C0863009F0ED
:1035C000A4C034C08D3009F478C08E3038F48B300C
:1035D00009F45AC08C3008F066C04CC0803109F440
:1035E00080C0813109F487C08F3009F08EC06FC070
:1035F00084B5806884BDC7BD92C084B5806284BD37
:10360000C8BD8DC080918000806880938000D09379
:103610008900C093880083C080918000806280937D
:103620008000D0938B00C0938A0079C08091B00055
:1036300080688093B000C093B30071C08091B000E7
:1036400080628093B000C093B40069C08091900004
:10365000806880939000D0939900C09398005FC0D9
:1036600080919000806280939000D0939B00C093E3
:103670009A0055C080919000886080939000D0930C
:103680009D00C0939C004BC08091A00080688093F7
:10369000A0008091A0008F7B8093A000D093A90010
:1036A000C093A8003CC08091A00080628093A000DD
:1036B000D093AB00C093AA0032C08091A000886074
:1036C0008093A000D093AD00C093AC0028C080913F
:1036D0002001806880932001D0932901C0932801A4
:1036E0001EC080912001806280932001D0932B0125
:1036F000C0932A0114C0809120018860809320012A
:10370000D0932D01C0932C010AC0C038D1051CF400
:10371000812F60E002C0812F61E00E94461CDF9192
:10372000CF911F910895CF93DF93482F50E0CA01A6
:103730008C5E9D4FFC01349142535E4FFA0184919F
:10374000882369F190E0880F991FFC01E058FE4F33
:10375000A591B491FC01E656FE4FC591D491662324
:1037600051F42FB7F8948C91932F909589238C93D3
:10377000888189230BC0623061F42FB7F8948C9153
:10378000932F909589238C938881832B88832FBFD7
:1037900006C09FB7F8948C91832B8C939FBFDF91C9
:1037A000CF910895893009F449C08A30A0F484305B
:1037B00051F1853040F4823079F1833000F5813069
:1037C00009F063C026C0873079F1883098F58630DB
:1037D00009F05BC025C08D3009F442C08E3028F45A
:1037E0008B30B1F18C30C0F52DC0803109F442C06E
:1037F000813109F445C08F3009F047C037C080914E
:1038000080008F7703C0809180008F7D809380003F
:10381000089584B58F7702C084B58F7D84BD0895E7
:103820008091B0008F7703C08091B0008F7D80932E
:10383000B0000895809190008F7707C0809190002C
:103840008F7D03C080919000877F809390000895C2
:103850008091A0008F7707C08091A0008F7D03C06A
:103860008091A000877F8093A0000895809120011F
:103870008F7703C0809120018F7D80932001089570
:1038800080912001877F809320010895FF920F93FC
:103890001F93F62E482F50E0CA01865A9D4FFC0117
:1038A0002491CA018C5E9D4FFC01149142535E4FDE
:1038B000FA0104910023C9F0222319F0822F0E94FB
:1038C000D21BE02FF0E0EE0FFF1FE656FE4FA59152
:1038D000B4919FB7F894FF2021F48C911095812327
:1038E00002C08C91812B8C939FBF1F910F91FF90F1
:1038F00008950F931F93482F50E0CA01865A9D4F99
:10390000FC012491CA018C5E9D4FFC01049142533D
:103910005E4FFA011491112319F420E030E015C034
:10392000222319F0822F0E94D21B812F90E0880F52
:10393000991F8C549E4FFC01A591B4918C9120E06D
:1039400030E0802311F021E030E0C9011F910F9198
:10395000089508955058BB27AA270ED044C135D1E9
:1039600030F03AD120F031F49F3F11F41EF42AC117
:103970000EF4E095E7FB20C1E92F46D180F3BA179A
:10398000620773078407950718F071F49EF55EC10E
:103990000EF4E0950B2EBA2FA02D0B01B90190016A
:1039A0000C01CA01A0011124FF27591B99F0593FAE
:1039B00050F4503E68F11A16F040A22F232F342FF6
:1039C0004427585FF3CF469537952795A795F04044
:1039D0005395C9F77EF41F16BA0B620B730B840B59
:1039E000BAF09150A1F0FF0FBB1F661F771F881F11
:1039F000C2F70EC0BA0F621F731F841F48F4879569
:103A000077956795B795F7959E3F08F0B3CF939557
:103A1000880F08F09927EE0F979587950895A8D0FD
:103A200008F481E008950CD0DEC0D6D040F0CDD0AF
:103A300030F021F45F3F19F0BFC0511108C1C2C07E
:103A4000E3D098F39923C9F35523B1F3951B550B94
:103A5000BB27AA2762177307840738F09F5F5F4F61
:103A6000220F331F441FAA1FA9F333D00E2E3AF0A2
:103A7000E0E830D091505040E695001CCAF729D0BC
:103A8000FE2F27D0660F771F881FBB1F261737070B
:103A90004807AB07B0E809F0BB0B802DBF01FF273B
:103AA00093585F4F2AF09E3F510568F085C0CFC004
:103AB0005F3FECF3983EDCF3869577956795B79575
:103AC000F7959F5FC9F7880F911D9695879597F990
:103AD0000895E1E0660F771F881FBB1F6217730709
:103AE0008407BA0720F0621B730B840BBA0BEE1F1E
:103AF00088F7E0950895E89409C097FB3EF4909507
:103B00008095709561957F4F8F4F9F4F9923A9F0B6
:103B1000F92F96E9BB279395F69587957795679545
:103B2000B795F111F8CFFAF4BB0F11F460FF1BC089
:103B30006F5F7F4F8F4F9F4F16C0882311F096E91C
:103B400011C0772321F09EE8872F762F05C06623CA
:103B500071F096E8862F70E060E02AF09A95660F83
:103B6000771F881FDAF7880F9695879597F908953C
:103B7000990F0008550FAA0BE0E8FEEF161617067E
:103B8000E807F907C0F012161306E407F50798F0E6
:103B9000621B730B840B950B39F40A2661F0232BFF
:103BA000242B252B21F408950A2609F4A140A6957B
:103BB0008FEF811D811D089597F99F6780E870E060
:103BC00060E008959FEF80EC089500240A94161693
:103BD000170618060906089500240A9412161306FB
:103BE000140605060895092E0394000C11F4882389
:103BF00052F0BB0F40F4BF2B11F460FF04C06F5FA5
:103C00007F4F8F4F9F4F089557FD9058440F551F7A
:103C100059F05F3F71F04795880F97FB991F61F04E
:103C20009F3F79F087950895121613061406551FC5
:103C3000F2CF4695F1DF08C0161617061806991F31
:103C4000F1CF86957105610508940895E894BB2726
:103C500066277727CB0197F908958ADF08F48FEF5D
:103C600008950BD0C0CFB1DF28F0B6DF18F0952350
:103C700009F0A2CFA7CF1124EACFC6DFA0F3959F0A
:103C8000D1F3950F50E0551F629FF001729FBB2743
:103C9000F00DB11D639FAA27F00DB11DAA1F649FEF
:103CA0006627B00DA11D661F829F2227B00DA11DA2
:103CB000621F739FB00DA11D621F839FA00D611D28
:103CC000221F749F3327A00D611D231F849F600D49
:103CD000211D822F762F6A2F11249F5750408AF082
:103CE000E1F088234AF0EE0FFF1FBB1F661F771F0E
:103CF000881F91505040A9F79E3F510570F05CCF4E
:103D0000A6CF5F3FECF3983EDCF3869577956795F9
:103D1000B795F795E7959F5FC1F7FE2B880F911D2B
:103D20009695879597F90895629FD001739FF0014A
:103D3000829FE00DF11D649FE00DF11D929FF00D3B
:103D4000839FF00D749FF00D659FF00D9927729F72
:103D5000B00DE11DF91F639FB00DE11DF91FBD01FD
:103D6000CF011124089597FB092E07260AD077FD6D
:103D700004D02ED006D000201AF4709561957F4FA4
:103D80000895F6F7909581959F4F0895A1E21A2E18
:103D9000AA1BBB1BFD010DC0AA1FBB1FEE1FFF1FEF
:103DA000A217B307E407F50720F0A21BB30BE40B3F
:103DB000F50B661F771F881F991F1A9469F7609586
:103DC0007095809590959B01AC01BD01CF01089540
:103DD000AA1BBB1B51E107C0AA1FBB1FA617B70731
:103DE00010F0A61BB70B881F991F5A95A9F780954D
:103DF0009095BC01CD010895EE0FFF1F0590F49141
:103E0000E02D1994803209F091110CC080528F5529
:103E1000E0F70895911106C0803219F0895085505D
:103E2000D0F708959927882708952F923F924F92AF
:103E30005F926F927F928F929F92AF92BF92CF923A
:103E4000DF92EF92FF920F931F93CF93DF93CDB743
:103E5000DEB7CA1BDB0B0FB6F894DEBF0FBECDBFBB
:103E600019942A88398848885F846E847D848C847C
:103E70009B84AA84B984C884DF80EE80FD800C8195
:103E80001B81AA81B981CE0FD11D0FB6F894DEBF78
:0C3E90000FBECDBFED010895F894FFCFE8
:103E9C00736F6674006469676900616E616C0044DD
:103EAC00004100696E006F7574000020005365744A
:103EBC0000526573657400426C696E6B50696E00DC
:103ECC00526561640057726974650053657450776C
:103EDC006D467265710050696452656C617943720C
:103EEC00656174650050696452656C6179536574E1
:103EFC000050696452656C617954756E6500506947
:103F0C006452656C6179456E61626C6500486172E2
:103F1C0064536572436F6E6E65637400536F6674A1
:103F2C00536572436F6E6E656374005365725365AF
:103F3C006E64005365725265636569766500646FE3
:103F4C006E6500520A64000100000000310E8E17ED
:103F5C00170EF60DF40EE30E0000000018168E1767
:083F6C00AE15DF15BF150816A4
:00000001FF
