:100000000C9462000C948A000C948A000C94740581
:100010000C949E050C94C8050C948A000C948A00DC
:100020000C948A000C948A000C948A000C948A0028
:100030000C948A000C948A000C948A000C948A0018
:100040000C944A090C948A000C94F3050C94410614
:100050000C948A000C948A000C948A000C948A00F8
:100060000C948A000C948A000000000024002700F1
:100070002A0000000000250028002B0000000000DE
:1000800023002600290004040404040404040202DA
:100090000202020203030303030301020408102007
:1000A0004080010204081020010204081020000012
:1000B0000007000201000003040600000000000029
:1000C0000000AD0711241FBECFEFD8E0DEBFCDBFCB
:1000D00011E0A0E0B1E0EEE3F7E102C005900D927F
:1000E000A838B107D9F713E0A8E8B1E001C01D9224
:1000F000A835B107E1F710E0C4ECD0E004C02297C6
:10010000FE010E94860BC23CD107C9F70E943B0941
:100110000C949D0B0C9400002F923F925F926F9273
:100120007F928F929F92AF92BF92CF92DF92EF9287
:10013000FF920F931F93CF93DF938C011B01EA0172
:100140006115710519F0FB0191838083209749F0B7
:10015000CE010297839728F020E030E040E050E0A5
:10016000F6C0F801A1908F018A2D90E00E94920BB9
:10017000892BB9F7FDE2AF1631F4F801A1908F0198
:100180005524539407C0FBE2AF1619F4F801A1906F
:100190008F015524209719F0C031D105C1F4F0E347
:1001A000AF1679F4F8018081883711F0883549F469
:1001B000F801A1800E5F1F4FF2E05F2AC0E1D0E09E
:1001C00006C0209721F480E3A816E9F427C0C830C0
:1001D000D10531F1C930D10524F4C230D10531F552
:1001E0000CC0CA30D10589F0C031D105F9F4C12C59
:1001F000D12CE12CB8E0FB2E28C0C12CD12CE12C55
:10020000A0E4FA2E22C0CAE0D0E0FCECCF2EFCEC39
:10021000DF2EFCECEF2EFCE0FF2E17C0C8E0D0E094
:10022000C12CD12CE12CE0E1FE2E0FC09E01442711
:1002300037FD4095542F60E070E080E090E80E9428
:10024000620BC901DA016C017D0120E030E040E081
:1002500050E060E03E01882477FC8094982C70ED9B
:10026000B72EBA0CE9E0EB1570F48A2D81548A316F
:1002700018F499ECB92E06C08A2D81568A3150F5B2
:1002800089EAB82EBA0C8B2D90E08C179D0714F5D7
:100290006F3FE1F0C216D306E406F506B0F0CA01DE
:1002A000B901A40193010E94430B9B01AC012B0DEA
:1002B000311D411D511D2130F0E03F07F0E04F0797
:1002C000F0E85F0710F461E001C06FEFF801A19062
:1002D0008F01C5CF2114310481F0662331F0015024
:1002E0001040F1011183008308C051FE1AC0025072
:1002F0001040F1011183008314C067FF12C050FC4D
:1003000005C02FEF3FEF4FEF5FE704C020E030E084
:1003100040E050E882E290E09093570380935603C8
:1003200016C050FE08C050954095309521953F4F1E
:100330004F4F5F4F0CC057FF0AC082E290E090938E
:100340005703809356032FEF3FEF4FEF5FE7B9015D
:10035000CA01DF91CF911F910F91FF90EF90DF9035
:10036000CF90BF90AF909F908F907F906F905F9055
:100370003F902F90089548E851E00E94D3010895DE
:10038000FB01DC018D9181341CF08B350CF4805E17
:10039000619161341CF06B350CF4605E861B611159
:1003A00089F3990B0895009731F4DA018D919C91AE
:1003B000009709F40EC0DC01FB013D91219122233D
:1003C00019F03217C9F3FACF332331F4DA011D9251
:1003D0001C928827992708951197AF93BF93FB012B
:1003E0003D912191321771F4332321F48827992705
:1003F000119702C01E921196FA01A193B0839F91AA
:100400008F910895222369F7EACF0F931F93CF931B
:10041000DF938C01FC018281938160E070E04AE00F
:1004200050E00E948C00EB01F8018481958160E02E
:1004300070E04AE050E00E948C009E012550304060
:100440002230310530F0C930D10519F0CA30D1055C
:1004500079F560347105C1F06134710544F461309F
:10046000710581F06830710509F056C009C0F1E0EE
:1004700060307F0759F06050744009F04DC008C0EB
:1004800092E007C091E005C093E003C094E001C092
:1004900095E02230310528F485B5887F982B95BDED
:1004A0003BC080918100887F982B9093810034C05D
:1004B000C330D10511F02B9779F560347105F9F04F
:1004C0006134710554F46830710599F0603271053A
:1004D000A1F06130710501F50EC0E1E060307E07EA
:1004E00091F0F4E060307F0781F060387105A1F48D
:1004F00008C092E00BC091E009C093E007C094E00F
:1005000005C095E003C096E001C097E08091B1007E
:10051000887F982B9093B100DF91CF911F910F911D
:100520000895FC018481958160E070E04AE050E02C
:100530000E948C000895FC018481958160E070E048
:100540004AE050E00E948C008BE293E062E771E0A9
:100550000E94280908958BE293E040E052EC61E0AC
:1005600070E00E947C068AE891E0909353028093A9
:1005700052020895CF92DF92EF92FF920F931F9352
:10058000CF93DF938C01FC018281938160E070E066
:100590004AE050E00E948C00D62EC62EF801C4819D
:1005A000D5818681978160E070E04AE050E00E944A
:1005B0008C007B018C01CE0160E071E00E94C001E3
:1005C000892B51F4EF2819F48D2D60E002C08D2D98
:1005D00061E00E949C0A15C0CE0165E071E00E94B6
:1005E000C001892B71F4B7016F3F710519F014F048
:1005F0006FEF70E077FF02C060E070E08C2D0E942A
:10060000FD09DF91CF911F910F91FF90EF90DF9047
:10061000CF9008958F929F92AF92BF92DF92EF9208
:10062000FF920F931F93DF93CF9300D0CDB7DEB728
:100630005C017B0101E010E04E010894811C911CDB
:100640003EC0D7011296ED91FC911397808189836A
:100650001A8212968D919C911397019660E070E03A
:100660004AE050E00E948C00D62EC4016AE071E09E
:100670000E94C001892B21F48D2D0E94F00A0AC02E
:10068000C4016CE071E00E94C001892BE1F48D2D62
:100690000E94DB09BC018BE293E04AE050E00E943B
:1006A00015090A151B052CF48BE293E060E20E9409
:1006B0002D080F5F1F4FE2E0F0E0EE0EFF1EA016C8
:1006C000B1060CF0BECF0F900F90CF91DF911F912C
:1006D0000F91FF90EF90DF90BF90AF909F908F9021
:1006E00008950F931F938C01FC018281938160E038
:1006F00070E04AE050E00E948C00709356026093D4
:100700005502F8018481958160E070E04AE050E094
:100710000E948C0060935B0270935C0280935D0288
:1007200090935E028091550261E00E945D0A0E94F2
:1007300092096093570270935802809359029093E4
:100740005A0281E0809354021F910F9108951F93E4
:1007500010E0812F60E00E945D0A1F5F1E30C9F724
:100760001F910895FF920F931F93CF93DF938C01F6
:10077000FC018281938160E070E04AE050E00E94D9
:100780008C00F62EF801C481D581CE016EE071E0B7
:100790000E94C001892B19F48F2D60E009C0CE01A1
:1007A00061E171E00E94C001892B21F48F2D61E08D
:1007B0000E945D0ADF91CF911F910F91FF900895E4
:1007C000EF92FF920F931F93DF93CF93CDB7DEB7D6
:1007D000EC970FB6F894DEBF0FBECDBF80915402E8
:1007E0008130A1F50E9492097B018C0180915B020E
:1007F00090915C02A0915D02B0915E02209157023F
:10080000309158024091590250915A02820F931F21
:10081000A41FB51F8E159F05A007B107B8F4E0927D
:100820005702F09258020093590210935A02809195
:1008300055020E94F00A019721F48091550260E070
:1008400003C08091550261E00E949C0A8BE293E014
:100850000E940307892B09F4D0C08BE293E00E9429
:100860003407182F8A3009F4C8C08D3009F0B1C0A0
:100870008BE293E065E171E00E942809E091520269
:10088000F091530210828AE891E090935302809392
:10089000520266E171E00E94BB019A8389838E0156
:1008A0000D5F1F4FEE24FF240894E11CF11C80E033
:1008B00090E066E171E00E94BB01F80191838083C2
:1008C000FEE1EF16F10421F00E5F1F4F892B61F757
:1008D0008B819C8160E070E04AE050E00E948C00D7
:1008E00009811A81C80168E171E00E94C001892B69
:1008F00029F4CE0101960E94B20364C0C8016CE1E4
:1009000071E00E94C001892B19F40E94A7035AC00C
:10091000C80162E271E00E94C001892B29F4CE0176
:1009200001960E9471034EC0C8016BE271E00E9403
:10093000C001892B51F48E2D992787FD9095BE011A
:100940006F5F7F4F0E940A033DC0C80160E371E002
:100950000E94C001892B29F4CE0101960E94BA029F
:1009600031C0C80166E371E00E94C001892B29F4FF
:10097000CE0101960E94050225C0C80161E471E024
:100980000E94C001892BF1F0C80160E571E00E946E
:10099000C001892BB9F0C8016FE571E00E94C00168
:1009A000892B29F4CE0101960E949B020BC0C8013D
:1009B00067E671E00E94C001892BF9F4CE0101962F
:1009C0000E9491028BE293E062E771E00E942809A5
:1009D00014C0992787FD90950E948C0B892B69F094
:1009E000E0915202F091530222E0E235F20728F43E
:1009F0001193F0935302E0935202EC960FB6F894E1
:100A0000DEBF0FBECDBFCF91DF911F910F91FF9041
:100A1000EF9008950F931F93CF93DF93FC01738D95
:100A200076957170A685B7859585772329F08C9189
:100A3000892309F454C004C08C91892309F04FC064
:100A40008389948920E001972FEF8F3F9207D9F790
:100A5000C589D689A685B785158560E031E040E077
:100A600050E000E0CE01202F01972FEF8F3F92073B
:100A7000D9F78C91812311F0632B03C0832F8095CC
:100A80006823330F4F5F5F4F4830510559F787890F
:100A9000908D20E001972FEF8F3F9207D9F77111CA
:100AA00060958091A1022091A20290E001968F733F
:100AB000907030E08217930779F0E091A102F0E0A6
:100AC000EF59FD4F60838091A10290E001968F73F2
:100AD00090708093A10203C0838D8160838FDF912A
:100AE000CF911F910F9108951F920F920FB60F9201
:100AF00011242F933F934F935F936F937F938F9323
:100B00009F93AF93BF93EF93FF9380915F02909178
:100B10006002009711F00E940A05FF91EF91BF91CA
:100B2000AF919F918F917F916F915F914F913F9185
:100B30002F910F900FBE0F901F9018951F920F923C
:100B40000FB60F9211242F933F934F935F936F93A0
:100B50007F938F939F93AF93BF93EF93FF93809176
:100B60005F0290916002009711F00E940A05FF91C8
:100B7000EF91BF91AF919F918F917F916F915F9115
:100B80004F913F912F910F900FBE0F901F9018958E
:100B90001F920F920FB60F9211242F933F934F93F2
:100BA0005F936F937F938F939F93AF93BF93EF93D5
:100BB000FF9380915F0290916002009711F00E9474
:100BC0000A05FF91EF91BF91AF919F918F917F9116
:100BD0006F915F914F913F912F910F900FBE0F90AA
:100BE0001F90189508951F920F920FB60F9211241F
:100BF0002F933F934F938F939F93EF93FF93809106
:100C0000C00082FD1DC04091C6002091E3023091DA
:100C1000E4022F5F3F4F2F7330708091E502909177
:100C2000E6022817390771F0E091E302F091E4023F
:100C3000ED55FD4F40833093E4022093E30202C060
:100C40008091C600FF91EF919F918F914F913F91BD
:100C50002F910F900FBE0F901F901895E0913703C2
:100C6000F0913803E05CFF4F8191919120813181B7
:100C7000821B930B8F739070892B11F00E94F205E9
:100C800008951F920F920FB60F9211242F933F9346
:100C90008F939F93EF93FF93209127033091280325
:100CA0008091290390912A032817390731F4809104
:100CB000C1008F7D8093C10014C0E0912903F091A1
:100CC0002A03E951FD4F20818091290390912A0345
:100CD00001968F73907090932A0380932903209339
:100CE000C600FF91EF919F918F913F912F910F90AF
:100CF0000FBE0F901F901895AF92BF92DF92EF92A8
:100D0000FF920F931F93CF93DF93EC017A018B0136
:100D1000DD24403081EE580780E0680780E07807E6
:100D200011F0DD24D39491E0A92EB12CEC89FD893A
:100D3000DD2069F0C50108A002C0880F991F0A9440
:100D4000E2F7808360E079E08DE390E005C01082F7
:100D500060E874E88EE190E0A80197010E94620BC0
:100D60002150304040405040569547953795279543
:100D700080E12030380720F0DD2011F0DD24D6CFCF
:100D8000E889F9893083EA89FB89208319A2EE89F1
:100D9000FF89408121E030E0C9010C8C02C0880F3E
:100DA000991F0A94E2F7482B4083EE89FF8940811E
:100DB000C9010D8C02C0880F991F0A94E2F7482BD5
:100DC0004083EE89FF894081C9010E8C02C0880FE3
:100DD000991F0A94E2F7482B4083EE89FF898081AE
:100DE0000F8C02C0220F331F0A94E2F720952823AC
:100DF0002083DF91CF911F910F91FF90EF90DF90B3
:100E0000BF90AF900895DC011C96ED91FC911D9769
:100E1000E05CFF4F2191319180819181281B390B3A
:100E20002F733070C9010895DC011C96ED91FC917F
:100E30001D97E05CFF4F20813181E054F040DF01DD
:100E4000AE5BBF4F8D919C9111972817390719F40C
:100E50002FEF3FEF07C08D919C91E80FF91F808124
:100E6000282F30E0C9010895DC011C96ED91FC911A
:100E70001D97E05CFF4F20813181E054F040DF019D
:100E8000AE5BBF4F8D919C9111972817390719F4CC
:100E90002FEF3FEF10C08D919C911197E80FF91F34
:100EA00020818D919C91119701968F73907011966E
:100EB0009C938E9330E0C9010895DC0191968C914A
:100EC0009197882339F05496ED91FC915597808144
:100ED00086FFF9CF91961C920895CF93DF93EC0192
:100EE000EE85FF85E05CFF4F20813181E054F040CA
:100EF0002F5F3F4F2F733070DF01AE5BBF4F8D917F
:100F00009C91119728173907D1F3E05CFF4F80813E
:100F10009181E054F040E80FF91F6083EE85FF8572
:100F2000E05CFF4F31832083EE89FF89208181E0DF
:100F300090E00F8C02C0880F991F0A94E2F7282BCB
:100F4000208381E089A3EC89FD898081806480838E
:100F500081E090E0DF91CF91089510922E031092DE
:100F60002D0388EE93E0A0E0B0E080932F039093F0
:100F70003003A0933103B09332038CE791E0909358
:100F80002C0380932B0383EA92E0909338038093A1
:100F9000370387EE92E090933A038093390385EC10
:100FA00090E090933C0380933B0384EC90E090931B
:100FB0003E0380933D0380EC90E090934003809348
:100FC0003F0381EC90E0909342038093410382ECD5
:100FD00090E0909344038093430386EC90E09093D9
:100FE00046038093450384E08093470383E0809326
:100FF000480387E08093490385E080934A0381E0BA
:1010000080934B030895CF92DF92EF92FF920F935C
:101010001F93CF93DF937C016B018A01C0E0D0E086
:101020000FC0D6016D916D01D701ED91FC9101903A
:10103000F081E02DC7010995C80FD91F015010405C
:101040000115110571F7CE01DF91CF911F910F911D
:10105000FF90EF90DF90CF900895DC01ED91FC912F
:101060000190F081E02D09950895EF92FF920F9382
:101070001F938C01DC01ED91FC910190F081E02D3A
:101080006DE009957C01D801ED91FC910190F08112
:10109000E02DC8016AE009959C012E0D3F1DC90194
:1010A0001F910F91FF90EF900895CF93DF93EC0184
:1010B0006115710519F420E030E00FC0DB010D90DF
:1010C0000020E9F71197A61BB70BE881F981028090
:1010D000F381E02DAD0109959C01C901DF91CF910C
:1010E00008954F925F927F928F929F92AF92BF929C
:1010F000CF92DF92EF92FF920F931F93DF93CF93E4
:10110000CDB7DEB7A1970FB6F894DEBF0FBECDBF47
:101110002C01742ECB01223008F42AE019A231E20E
:10112000C32ED12CCC0EDD1E822E9924AA24BB24E2
:10113000672D752FA50194010E94620B79018A0128
:10114000C801B701A50194010E94430B472D461B1E
:101150000894C108D1084A3014F4405D01C0495CCC
:10116000F6014083E114F1040105110521F07E2C04
:101170005F2DC801DDCFC201B6010E945508A196BE
:101180000FB6F894DEBF0FBECDBFCF91DF911F9198
:101190000F91FF90EF90DF90CF90BF90AF909F9016
:1011A0008F907F905F904F900895CF92DF92EF9253
:1011B000FF920F931F93CF93DF93EC016A017B01A2
:1011C0002115310541F4E881F9810190F081E02D8C
:1011D000642F09951FC02A303105D1F477FF17C05D
:1011E000E881F9810190F081E02D6DE209958C0193
:1011F00044275527BA014C195D096E097F09CE01B4
:101200002AE00E9471089801280F391F04C02AE0C3
:101210000E9471089C01C901DF91CF911F910F912C
:10122000FF90EF90DF90CF900895EF92FF920F9391
:101230001F937B019A010027F7FC0095102FB8013E
:10124000A7010E94D5081F910F91FF90EF9008957C
:10125000EF92FF920F931F937C010E9455088C011F
:10126000C7010E943508080F191FC8011F910F916F
:10127000FF90EF900895CF93DF930E94A0090E9402
:10128000AB02CEE2D6E00E94E0032097E1F30E9499
:101290002E06F9CF1F920F920FB60F9211242F93A3
:1012A0003F938F939F93AF93BF93809151039091FE
:1012B0005203A0915303B09154033091550301960A
:1012C000A11DB11D232F2D5F2D3720F02D57019625
:1012D000A11DB11D20935503809351039093520398
:1012E000A0935303B093540380914D0390914E0308
:1012F000A0914F03B09150030196A11DB11D8093A1
:101300004D0390934E03A0934F03B0935003BF91AE
:10131000AF919F918F913F912F910F900FBE0F90A2
:101320001F9018958FB7F894209151033091520374
:1013300040915303509154038FBFB901CA010895DE
:10134000789484B5826084BD84B5816084BD85B5A0
:10135000826085BD85B5816085BDEEE6F0E0808167
:1013600081608083E1E8F0E0108280818260808388
:10137000808181608083E0E8F0E08081816080830B
:10138000E1EBF0E0808184608083E0EBF0E080813D
:1013900081608083EAE7F0E08081846080838081DF
:1013A0008260808380818160808380818068808387
:1013B0001092C1000895982F8E3008F09E509770BB
:1013C000809177018295880F880F807C892B80938C
:1013D0007C0080917A00806480937A0080917A000A
:1013E00086FDFCCF2091780040917900942F80E019
:1013F00030E0282B392BC90108951F93CF93DF9339
:10140000182FEB0161E00E945D0A209709F44AC0A1
:10141000CF3FD10509F449C0E12FF0E0E255FF4F7D
:1014200084918330C1F0843028F4813051F08230CF
:10143000B1F50CC0863019F1873049F1843079F567
:1014400014C084B5806884BDC7BD33C084B58062D4
:1014500084BDC8BD2EC080918000806880938000CC
:10146000D0938900C093880024C08091800080625E
:1014700080938000D0938B00C0938A001AC0809123
:10148000B00080688093B000C093B30012C0809118
:10149000B00080628093B000C093B4000AC0C0382E
:1014A000D1051CF4812F60E002C0812F61E00E9411
:1014B0009C0ADF91CF911F910895CF93DF93482F1E
:1014C00050E0CA0186569F4FFC0134914A575F4F46
:1014D000FA018491882369F190E0880F991FFC013B
:1014E000E859FF4FA591B491FC01EE58FF4FC5910B
:1014F000D491662351F42FB7F8948C91932F909543
:1015000089238C93888189230BC0623061F42FB7C3
:10151000F8948C91932F909589238C938881832BB9
:1015200088832FBF06C09FB7F8948C91832B8C9330
:101530009FBFDF91CF910895482F50E0CA01825597
:101540009F4FFC012491CA0186569F4FFC01949144
:101550004A575F4FFA013491332309F440C02223E4
:1015600051F1233071F0243028F42130A1F02230E1
:1015700011F514C02630B1F02730C1F02430D9F471
:1015800004C0809180008F7703C0809180008F7DA0
:101590008093800010C084B58F7702C084B58F7DA2
:1015A00084BD09C08091B0008F7703C08091B000E6
:1015B0008F7D8093B000E32FF0E0EE0FFF1FEE5819
:1015C000FF4FA591B4912FB7F894662321F48C9125
:1015D0009095892302C08C91892B8C932FBF0895FD
:1015E000682F70E0CB0182559F4FFC012491CB0105
:1015F00086569F4FFC0144916A577F4FFB0194919F
:10160000992319F420E030E03CC0222351F123302B
:1016100071F0243028F42130A1F0223011F514C0EB
:101620002630B1F02730C1F02430D9F404C08091C5
:1016300080008F7703C0809180008F7D8093800031
:1016400010C084B58F7702C084B58F7D84BD09C07A
:101650008091B0008F7703C08091B0008F7D809320
:10166000B000892F90E0880F991F84589F4FFC018C
:10167000A591B4918C9120E030E0842311F021E019
:1016800030E0C9010895629FD001739FF001829FED
:10169000E00DF11D649FE00DF11D929FF00D839F01
:1016A000F00D749FF00D659FF00D9927729FB00D9E
:1016B000E11DF91F639FB00DE11DF91FBD01CF01B1
:1016C00011240895A1E21A2EAA1BBB1BFD010DC017
:1016D000AA1FBB1FEE1FFF1FA217B307E407F507E2
:1016E00020F0A21BB30BE40BF50B661F771F881FBE
:1016F000991F1A9469F760957095809590959B0154
:10170000AC01BD01CF010895EE0FFF1F0590F491CC
:10171000E02D0994803209F091110CC080528F5550
:10172000E0F70895911106C0803219F08950855074
:0E173000D0F70895992788270895F894FFCFE1
:10173E006469676900616E616C0044004100696E06
:10174E00006F757400002000536574005265736558
:10175E007400426C696E6B50696E00526561640074
:10176E0057726974650053657450776D4672657172
:10177E000048617264536572436F6E6E65637400E8
:10178E00536F6674536572436F6E6E656374005368
:10179E00657253656E640053657252656365697652
:1017AE006500646F6E650001000000006D070308A0
:0817BE000307340714075D075F
:00000001FF
